:020000040800F2
:1000000018040020C10100085B070008CD050008A6
:1000100059070008AB020008C90B000800000000E7
:10002000000000000000000000000000FD080008C3
:10003000AD0200080000000001080008D509000812
:10004000DB010008DB010008DB010008DB01000820
:10005000DB010008DB010008DB010008DB01000810
:10006000DB010008DB010008DB010008DB01000800
:10007000DB010008DB010008DB010008DB010008F0
:10008000DB010008DB010008DB010008DB010008E0
:10009000DB010008DB010008DB010008DB010008D0
:1000A000DB010008DB010008DB010008DB010008C0
:1000B000DB010008DB010008DB010008DB010008B0
:1000C000DB010008DB010008DB010008DB010008A0
:1000D000DB010008350A0008DB010008DB0100082D
:1000E000DB010008DB010008DB010008DB01000880
:1000F000DB010008DB010008DB010008DB01000870
:10010000DB010008DB010008DB010008DB0100085F
:10011000DB010008DB010008DB010008DB0100084F
:10012000DB010008DB010008DB010008DB0100083F
:10013000DB010008DB010008DB010008DB0100082F
:10014000DB010008DB010008DB010008DB0100081F
:10015000DB010008DB010008DB010008DB0100080F
:10016000DB010008DB010008DB010008DB010008FF
:10017000DB010008DB010008DB010008DB010008EF
:10018000DB010008DB010008DB010008DB010008DF
:10019000DB010008DB010008DB010008DB010008CF
:1001A000DB010008DB010008DB010008DFF80CD0F0
:1001B00000F04AF800480047810F000818040020AA
:1001C0000648804706480047FEE7FEE7FEE7FEE7F1
:1001D000FEE7FEE7FEE7FEE7FEE7FEE7D9090008D7
:1001E000AD0100082DE9F05F0546002092469B46D0
:1001F00088460646814640241BE02846414647463D
:10020000224600F042F853465A46C01A914110D394
:1002100011461846224600F029F82D1A67EB01080E
:100220004F4622460120002100F020F817EB00097C
:100230004E41201EA4F10104DFDC484631462A4627
:100240004346BDE8F09F0000064C074D06E0E0681D
:1002500040F0010394E8070098471034AC42F6D30D
:10026000FFF7A8FF1C1000083C100008202A04DB40
:10027000203A00FA02F1002070479140C2F12003B9
:1002800020FA03F3194390407047202A04DB203AF8
:1002900021FA02F00021704721FA02F3D040C2F1A6
:1002A00020029140084319467047FEE7704700005E
:1002B00070B586B00121084600F0A4FA0121102093
:1002C00000F0BCFA00248DF8164001208DF81700CC
:1002D00002258DF815508DF81450400204901C4EE4
:1002E00004A9304600F024F98DF8145069020491F5
:1002F00004A9304600F01CF907220A21304600F01C
:1003000055F907220921304600F050F94FF4E13049
:100310000090ADF80440ADF80640ADF80840ADF8E7
:100320000C400C20ADF80A000A4C6946204600F04B
:10033000E5FB00F013FA012240F22551204600F0BF
:10034000C2FB0121204600F08BFB06B070BD00000F
:1003500000000240001001402DE9F041064600F087
:1003600053FC294D0121284600F058F9274C284616
:10037000214600F038F90128F9D10022A0212846B1
:1003800000F0DFF9224F2846394600F02CF9012809
:10039000F9D13146284600F0DDF91D4EB61C314634
:1003A000284600F020F90128F9D10121284600F063
:1003B00035F92146284600F016F90128F9D1012225
:1003C000A021284600F0BDF9104C641C21462846A7
:1003D00000F009F90128F9D10021284600F0F7F8CA
:1003E0000A4C3F342146284600F0FDF80128F9D197
:1003F000284600F0A3F904460121284600F01AF926
:100400002046BDE8F08100000054004001000300D8
:10041000820007002DE9F04105460C46194E0121E6
:10042000304600F0FBF8184F3046394600F0DBF854
:100430000128F9D10022A021304600F082F9134FA3
:100440003046394600F0CFF80128F9D12146304630
:1004500000F080F90D4CA41C2146304600F0C3F892
:100460000128F9D12978304600F074F92146304648
:1004700000F0B9F80128F9D13046BDE8F04101217A
:1004800000F0D8B8005400400100030082000700CB
:100490001CB50121022000F0B5F9114C04220621FF
:1004A000204600F083F804220721204600F07EF861
:1004B00001218DF8061000218DF8071002218DF81A
:1004C00005108DF80410402100916946204600F087
:1004D0002FF8802100916946204600F029F81CBDC4
:1004E000000402401FB50121480500F099F94FF4BE
:1004F0008060ADF80A000001ADF80C000A480090D9
:100500004BF6FF70ADF806000020ADF80400772030
:10051000ADF80800054C6946204600F0B1F801210D
:10052000204600F06FF81FBD801A060000540040FE
:100530002DE9F041002201274FF0030C07FA02F5E4
:100540000B682B40AB422CD1066853000CFA03F425
:10055000A64306600E79D0F800809E4046EA080661
:1005600006600E79012E01D0022E12D18668A643B4
:1005700086604E79D0F808809E4046EA080686607C
:100580004668AE43466045688E799640B6B23543BC
:100590004560C568A543C560CC799C40C3681C43D1
:1005A000C460521C102AC9D3BDE8F08110B54B07B6
:1005B000DB0E9A40C90800EB8100016A0F249C40C1
:1005C000A1430162016A1143016210BDFEE70029E7
:1005D00004D0018841F4806101807047018821F4D2
:1005E000806101807047034600209A8A1B8B1B04A0
:1005F0001A4322F07F42914300D101207047C94342
:1006000081827047002904D0018841F001010180F6
:100610007047018821F0010101807047002904D052
:10062000018841F4807101807047018821F4807154
:1006300001807047002904D0018841F400710180D5
:100640007047018821F40071018070470CB50246A3
:10065000002000920A0F019221F07F41019A002AA6
:1006600003D0009A1432009203E0090C009A183269
:100670000092009A12680A4200D001200CBD0000CE
:100680007FB504460D46A08820F03F06684600F07E
:10069000E3F802982749B0FBF1F189B20E43A68036
:1006A000228822F001022280234B2A689A4209D82C
:1006B0005200B0FBF2F080B2042800D20420491CA2
:1006C000218423E0EB88A3F53F46FF3E0BD002EBED
:1006D000C20303EB0212B0FBF2F080B240F48040A0
:1006E000020506D007E002EB4202B0FBF2F080B256
:1006F000F6E740F0010040F400404FF49672514399
:100700004FF47A72B1FBF2F1491C2184A083208856
:1007100040F00100208020884FF6F5310840A9887C
:100720006A89114301432180A889298908432081CE
:100730007FBD000040420F00A0860100008AC0B2C9
:100740007047002A02D041F0010101E001F0FE01F2
:100750000182704701827047FEE7704708B54FF489
:10076000A06000F043F825208DF8000001208DF8EE
:1007700001008DF802008DF80300684600F002F8D1
:1007800008BD000030B50F23C27801250178002A8A
:100790001FD0154A126802F4E062C2F5E062C2F3AB
:1007A0000722C2F10404D3404278A24084781C405E
:1007B0001443220101F1E02181F80024007800F0C7
:1007C0001F018D404009800000F1E020C0F8005179
:1007D00030BD01F01F0085404809800000F1E02095
:1007E000C0F8805130BD00000CED00E00249084324
:1007F00002490860704700000000FA050CED00E0B7
:1008000070470000054A002903D0116801431160B8
:100810007047116881431160704700003038024012
:10082000054A002903D0116801431160704711681F
:10083000814311607047000040380240054A00299A
:1008400003D0116801431160704711688143116042
:10085000704700004438024070B5244B196801F01D
:100860000C01234C00291ED0224E04291DD008293A
:100870001DD00460196801F0F00109091E4A545C9A
:100880000168E14041601C6804F4E054A40A145D6E
:1008900021FA04F484601B6803F460435B0BD25CB0
:1008A000D140C16070BD0460E4E70660E2E70F4A32
:1008B000121F1168C1F38055116801F03F0135B175
:1008C000B6FBF1F11468C4F38814614305E0B4FB8E
:1008D000F1F11468C4F3881461431268C2F3014251
:1008E000521C5200B1FBF2F10160C3E7083802402C
:1008F0000024F40040787D010000002070470000D3
:100900001CB50021019100912E4A106840F48030FE
:1009100010604FF4A043106800F40030009001987C
:10092000401C0190009810B901989842F3D11068CA
:10093000800302D50120009000E00091009801287A
:100940003FD120484030016841F0805101601E498C
:10095000086840F4404008601A48083003680360A3
:10096000036843F400430360036843F4A053036047
:10097000041F164B2360136843F0807313601368E1
:100980009B01FCD50A6842F480320A604A68D203AF
:10099000FCD50A6842F400320A604A689203FCD52A
:1009A0000B4A40F205711160016821F003010160FA
:1009B000016841F0020101600168C1F3810102296F
:1009C000FAD11CBD0038024000700040195A40079F
:1009D000003C02407047000010B51248016841F425
:1009E000700101601048016841F0010101600E4A88
:1009F00000210832116002680C4B1A400260031D8E
:100A00000B4A1A60026822F48022026006480C3009
:100A10000160FFF775FF03494FF0006080390860FF
:100A200010BD000088ED00E000380240FFFFF6FE38
:100A30001030002410B5094C40F22551204600F03A
:100A400022F8002808D0204600F0B6F8C1B22046AF
:100A5000BDE8104000F0B4B810BD00000010014027
:100A6000002904D0818941F4005181817047818936
:100A700021F40051818170470246002012880A4209
:100A800000D00120704770B5002440F66A12C1F30F
:100A9000421301F01F05012606FA05F2012B0CD0C6
:100AA000022B0DD0838A1340090A8E400088304003
:100AB0000BB100B10124204670BD83891340F3E7D8
:100AC000038A1340F0E710B540F66A13C1F34213EE
:100AD00001F01F040121A140012B07D0022B07D0F8
:100AE00014303AB102680A43026010BD0C30F8E7D6
:100AF0001030F6E702688A43026010BD7FB50446F5
:100B00000D46208A20F44051E88808432082A089BD
:100B100041F20C618843A9882A8911436A890243FA
:100B20001143A181A08A20F44071A8890843A082C2
:100B30006846FFF791FE1E48844202D01D48844259
:100B400001D1039800E00298A189090408D500EBBF
:100B5000C00101EB001029684900B0FBF1F007E08B
:100B600000EBC00101EB001029688900B0FBF1F037
:100B70006422B0FBF2F109010B096FF018056B4319
:100B800000EB8300A3891D044FF0320307D503EB6C
:100B9000C000B0FBF2F000F00700084306E003EBF2
:100BA0000010B0FBF2F000F00F00084320817FBD81
:100BB00000100140001401408088C0F30800704715
:100BC000C1F3080181807047FEE710B50446204656
:100BD000FFF7F6FF80212046FFF74EFF0028F9D0EF
:100BE00010BD70B506460D4600243046295DFFF75E
:100BF000ECFF641C285D0028F7D140213046FFF748
:100C00003BFF0028F9D070BD70B5114D114C01218A
:100C10002046FFF703FD0022A0212046FFF791FDAB
:100C200029462046FFF712FD0028F0D00A49204649
:100C3000FFF7E5FC01212046FFF7FCFC4FF40035EF
:100C400029462046FFF702FD0128F9D070BD0000BB
:100C50000200001000540040000400100FB4054BC7
:100C600010B503A9044A029800F018F810BC5DF80A
:100C700014FB00005D0F00081000002002E008C80F
:100C8000121F08C1002AFAD170477047002001E006
:100C900001C1121F002AFBD1704700002DE9FF4F50
:100CA0008DB09B460F460446002606E025280BD053
:100CB0005A460F999047641C761C20780028F5D17D
:100CC00011B03046BDE8F08F0025A84601229849B2
:100CD00000E0054314F8013F203B02FA03F008420C
:100CE000F7D120782E2817D114F8010F45F004050C
:100CF0002A280ED06FF02F022078A0F130010929A8
:100D00000AD808EB880102EB410100EB0108641CE2
:100D1000F2E757F8048B641C20786C280DD004DCB3
:100D20004C2812D06A2811D104E074280DD07A28FA
:100D30000CD10AE045F4001507E0617845F4801510
:100D4000814202D1641C05F58015641C2278692A51
:100D500045D008DC002AB3D0582A69D0632A10D0C5
:100D6000642A08D13BE0702A67D0732A13D0752A11
:100D70005CD0782A5CD010465A460F999047761C72
:100D8000D3E017F8040B8DF8000000208DF8010067
:100D9000E946012003E057F8049B4FF0FF30690754
:100DA0004FF0000501D40AE06D1C45450DDA85427F
:100DB000FADB19F805100029F6D106E06D1C854212
:100DC000FCDB19F805100029F8D12E4404E019F8CD
:100DD000010B5A460F9990476D1EF8D2A5E00A20E4
:100DE0000021CDE90801C5F3025002280DD001CF42
:100DF000C117031E71F100030DDA4FF0000CD0EBA8
:100E00000C006CEB01012D2308E0FF1D27F0070704
:100E1000F7E80201EDE72B0504D52B238DF82830E8
:100E200001233BE0EB0739D02023F7E70A2000E05D
:100E300010200021CDE9080107E01020002145F035
:100E40000405CDE908014FF00808C5F30250022857
:100E50000FD001CF00214FF0000A2B071FD5702AB9
:100E60000DD0DDE908C38CF0100C5CEA030C0CD04B
:100E700015E0FF1D27F00707F7E80201EBE7402226
:100E80008DF828204FF0010A0BE050EA010306D04C
:100E900030238DF828308DF8292002239A46582ACD
:100EA00004D024A20DF120090B9209E026A2F9E753
:100EB000DDE90823FFF796F90B9B9B5C09F8013DE0
:100EC00050EA0102F4D1ADEB090020300890680728
:100ED00001D44FF001080899884502DDA8EB010014
:100EE00000E000208046002506E00AA85A46405D42
:100EF0000F9990476D1C761C5545F6DB04E03020B9
:100F00005A460F999047761CB8F10001A8F10108E4
:100F1000F5DC05E019F8010B5A460F999047761C4D
:100F20000899481E08900029F4DC641CC5E60000FE
:100F300009280100303132333435363738396162AF
:100F40006364656600000000303132333435363773
:100F500038394142434445460000000070B504461C
:100F6000064DE1B22846FFF72BFE80212846FFF709
:100F700083FD0028F9D0204670BD0000001001401C
:100F800008B5022427200090FFF792F90EA114481B
:100F9000FFF727FE0CA0FFF761FE12A0FFF75EFE31
:100FA000FFF776FAFFF79EFA12A0FFF757FE2146E9
:100FB0006846FFF72FFA2046FFF7CEF9014612A048
:100FC000FFF74CFEFEE70000D5E2CAC7D2BBB8F679
:100FD000454550524F4DB2E2CAD4CAB5D1E90A00D4
:100FE000001001400D0AB3F5CABCBBAF4932430D36
:100FF0000A0000000D0A493243B3F5CABCBBAFCDAD
:10100000EAB1CF0D0A000000746573745F72656108
:101010006444617461203D30782578003C100008FC
:1010200000000020140000007C0C00085010000894
:1010300014000020040400008C0C000800000000D4
:10104000010203040102030406070809000000006E
:04000005080001AD41
:00000001FF
