:020000040800F2
:1000000018040020C10100087B0D0008F506000857
:10001000790D000809020008E11500080000000041
:10002000000000000000000000000000991300081C
:10003000F9030008000000007D0D0008811400088D
:10004000DB010008DB010008DB010008DB01000820
:10005000DB010008DB010008DB010008DB01000810
:10006000DB010008DB010008DB010008DB01000800
:10007000DB010008DB010008DB010008DB010008F0
:10008000DB010008DB010008DB010008DB010008E0
:10009000DB010008DB010008DB010008DB010008D0
:1000A000DB010008DB010008DB010008DB010008C0
:1000B000DB010008DB010008DB010008DB010008B0
:1000C000DB010008DB010008DB010008DB010008A0
:1000D000DB010008DB010008DB010008DB01000890
:1000E000DB010008DB010008DB010008DB01000880
:1000F000DB010008DB010008DB010008DB01000870
:10010000DB010008DB010008DB010008DB0100085F
:10011000DB010008DB010008DB010008DB0100084F
:10012000DB010008DB010008DB010008DB0100083F
:10013000DB010008DB010008DB010008DB0100082F
:10014000DB010008DB010008DB010008DB0100081F
:10015000DB010008DB010008DB010008DB0100080F
:10016000DB010008DB010008DB010008DB010008FF
:10017000DB010008DB010008DB010008DB010008EF
:10018000DB010008DB010008DB010008DB010008DF
:10019000DB010008DB010008DB010008DB010008CF
:1001A000DB010008DB010008DB010008DFF80CD0F0
:1001B00000F018F8004800475916000818040020FD
:1001C0000648804706480047FEE7FEE7FEE7FEE7F1
:1001D000FEE7FEE7FEE7FEE7FEE7FEE78514000820
:1001E000AD010008064C074D06E0E06840F0010351
:1001F00094E8070098471034AC42F6D3FFF7DAFFD3
:10020000A0160008C0160008FEE7000008490023F9
:10021000084A00200A60091D401C80B2B0F5487FE2
:10022000F8D3581C83B2B3F5F07FF2D370470000C7
:1002300000B80BD0FF00007F00B58BB04FF440300A
:10024000009000200190FF210491039002900591FD
:100250000A48069040F21F30079001200990C820FC
:100260000890684600F050F800F0BEF8022000F058
:1002700041F80028FAD00BB000BD000078B70CD0D0
:100280004FF0504100234FF4784200200A80891C2F
:10029000401C80B2B0F5487FF8D3581C83B2B3F548
:1002A000F07FF2D37047000000B58BB04FF44030C0
:1002B0000090022001901F2004903F200390002016
:1002C0000290FF2005900A4806904FF42F70079087
:1002D000642009900890684600F016F800F084F851
:1002E000022000F007F80028FAD00BB000BD000093
:1002F000BCE404D001460020024A52680A4200D001
:100300000120704700B0024010B40023DFF8D0C0D5
:10031000DCF80010334A1140CCF80010DCF8001073
:1003200002681143CCF80010DCF8341021F007010A
:10033000CCF83410DCF8341042681143CCF8341097
:100340004168002934D0012939D002293CD0032941
:100350003FD0C16809010269120243691B03846826
:100360001A4321431143DCF838201143CCF83810EC
:100370008169CCF83C10DCF840106FF30D01CCF82B
:100380004010DCF84010C2691143CCF84010818C59
:100390000904DCF8442002F04042CCF84420DCF8A8
:1003A0004420006A10430843CCF8440010BC704756
:1003B000C1680902028A1204037D1B06CFE7C168E7
:1003C0000902028A1204CAE7C16849010269D2021D
:1003D000C5E7C1684901026992024369DB03BEE7D0
:1003E00000B00240FCE0FCFF0248016841F001015E
:1003F0000160704700B002407047000070B586B0E1
:100400000121084600F0BCFC0121102000F0D4FCC2
:100410001E4E07220A21304600F057F90722092113
:10042000304600F052F900248DF8164001218DF875
:10043000171002258DF81450490204918DF81550BB
:1004400004A9304600F0F6F88DF8145068020490C4
:1004500004A9304600F0EEF84FF4E1300090ADF81A
:100460000440ADF80640ADF80840ADF80C400C2053
:10047000ADF80A00064C6946204601F047F8012114
:10048000204601F02FF806B070BD000000000240C9
:100490000010014000234FF0204210280BD0B0F58F
:1004A000807F0AD0B0F5805F0AD0D2F8580131EAD7
:1004B000000009D107E0506EF9E7D2F88400F6E7B2
:1004C000D2F8A400F3E70123184670474268016898
:1004D00011438268C068521E520142EA402008431C
:1004E0000149086070470000500100A030B4036863
:1004F0009900A1F1C041D1F840116FF30E01D0F87D
:1005000008C04268046942EA0C02D0F80CC04CEA08
:10051000040C42EA0C02D0F814C042EA0C02D0F8F3
:1005200018C042EA0C0CC2694CEA0204D0F820C0A0
:1005300044EA0C05446A254329434FF02045002B2B
:1005400048D0D5F840316FF30E0342EA0C02234342
:100550001A43C5F8402102689200A2F1C042C2F8D5
:1005600040110168A9B38900A1F1C041D1F8481137
:1005700001F07042816A0B68D1F804C05B1EACF1D7
:10058000010C43EA0C13D1F808C0ACF1010C43EAAA
:100590000C23B1F810C0ACF1010C43EA0C431A4330
:1005A000D5F8483103F07043D1F80CC0898AACF11A
:1005B000010C4FEA0C3C491E4CEA01511943C5F8A5
:1005C000481100688000A0F1C040C0F8482130BC4C
:1005D000704702E0C5F84011C3E7D5F8481101F0B3
:1005E0007041806A02684368521E5B1E42EA031231
:1005F00083685B1E42EA0322C3685B1E42EA033241
:10060000038A5B1E42EA0342838A007E5B1E42EA43
:100610000352401E42EA00600843C5F8480130BC5E
:100620007047000002490A6842EA400008607047CB
:10063000540100A02DE9F00100220126032706FA4B
:1006400002FC0B6803EA0C03634538D105685300CC
:1006500007FA03F4A54305600D79D0F800809D40AA
:1006600045EA080505600D79012D01D0022D17D14D
:100670008568A54385604D79D0F808809D4045EA9E
:1006800008058560456825EA0C0CC0F804C0D0F860
:1006900004C08D799540ADB24CEA050CC0F804C099
:1006A000D0F80CC02CEA040CC0F80CC091F807C0BC
:1006B0000CFA03F3D0F80CC043EA0C03C360521CDD
:1006C000102ABCD3BDE8F00170474B07DB0E9A40FF
:1006D000C90800EB8100016A4FF00F0C0CFA03F31C
:1006E00099430162016A1143016270474183704777
:1006F00001837047FEE700002DE9F04F83B0012130
:1007000040F2FF1000F03CFB4FF00408CDF80080F1
:1007100002208DF805008DF8040000208DF80600F9
:100720008DF807006946AB48FFF784FF0E220221CF
:10073000A848FFF7CAFF082500956946A548FFF7B6
:1007400079FF0E220321A348FFF7BFFF4FF4807A01
:10075000CDF800A069469F48FFF76CFF0E220821E4
:100760009C48FFF7B2FF0124009469469A48FFF7BE
:1007700061FF092200219848FFF7A7FF4FF4006BA3
:10078000CDF800B069469548FFF754FF0E220B21C3
:100790009248FFF79AFF2003009069468F48FFF7C1
:1007A00049FF0E220C218D48FFF78FFF0220009099
:1007B00069468948FFF73EFF092201218648FFF775
:1007C00084FF4FF04009CDF8009069468448FFF758
:1007D00031FF0E2206218248FFF777FF202000908C
:1007E00069468048FFF726FF0E2205217D48FFF766
:1007F0006CFFCDF8009069467A48FFF71BFF0E2288
:1008000006217848FFF761FF600300906946714850
:10081000FFF710FF0E220D216E48FFF756FFA602CC
:10082000009669466E48FFF705FF09220A216C48C9
:10083000FFF74BFFE003009069466648FFF7FAFEBA
:100840000E220F216348FFF740FF00946946664877
:10085000FFF7F0FE0E2200216348FFF736FF8027E6
:10086000009769466148FFF7E5FE0E2207215F48C1
:10087000FFF72BFFCDF8008069465B48FFF7DAFEF3
:100880000E2202215848FFF720FF4FF01008CDF844
:10089000008069465348FFF7CDFE0E2204215148DF
:1008A000FFF713FF2003009069464D48FFF7C2FE93
:1008B0000E220C214A48FFF708FFCDF80090DFF820
:1008C000309169464846FFF7B5FE0E22062148469C
:1008D000FFF7FBFECDF800B069464148FFF7AAFEDE
:1008E0000E220B213E48FFF7F0FECDF8008069464E
:1008F0003D48FFF79FFE0E2204213B48FFF7E5FE2F
:10090000009569463548FFF795FE0E2203213348CE
:10091000FFF7DBFECDF800A069462F48FFF78AFEFF
:100920000E2208212C48FFF7D0FE6502009569468B
:100930002948FFF77FFE0E2209212748FFF7C5FE51
:10094000009769462648FFF775FE0E2207212448C6
:10095000FFF7BBFE009669462348FFF76BFE0E22A9
:100960000A212148FFF7B1FE009569461E48FFF7AE
:1009700061FE0E2209211C48FFF7A7FE00961D4DBF
:1009800069462846FFF756FE0E220A212846FFF741
:100990009CFECDF8008002208DF805008DF8044003
:1009A00000208DF806008DF8074069464846FFF79D
:1009B00041FE009769464846FFF73CFE1021484635
:1009C000FFF796FE80214846FFF792FE03B0BDE890
:1009D000F08F0000001C02400004024000000240B2
:1009E00000180240001002400020024000080240AF
:1009F000000C02400014024010B5FFF77DFE00F02D
:100A00005BF8BDE8104000F001B8000070B590B090
:100A10003020009040F24F300190192002904FF4A6
:100A2000FC70039002200490FF200590002408949D
:100A30000794069409944FF480600A9005200B9067
:100A40004FF050400C9040F243600D904FF4F07521
:100A50000F95C01E0E90154E6946304600F036F9CF
:100A600004944FF4C0610A9107210B9110490C9135
:100A700040F683400D900F95C01E0E900D4C6946B8
:100A8000204600F023F90121304600F013F901213E
:100A9000204600F00FF9012000F068F9012000F075
:100AA00091F8012000F07EF810B070BD846801401C
:100AB00000B80BD00469014000B58FB002221421A8
:100AC000C82000F00FFA4FF4803000F0FBF901204D
:100AD00000F002FA3D2000F0D7F90028FAD00121F9
:100AE000880600F069F90121C80500F049F90020E5
:100AF00000900190029003900121049105912F2113
:100B000006911821079140F24F3108914FF4FC7182
:100B1000099140F221410A9140F20E210B910C9073
:100B20000E900D90684600F05DF80FB000BD00001B
:100B3000F0B583B00121882000F022F94FF48064E1
:100B4000009401208DF8040000218DF806108DF826
:100B500007008DF80510104F69463846FFF76AFD0B
:100B60006600009669463846FFF764FDA5000095CB
:100B700069463846FFF75EFD0096084F69463846DD
:100B8000FFF758FD06490C800E800D80C9143846C9
:100B9000FFF7ACFD03B0F0BD001C0240000C0240AA
:100BA000181C02400649002804D0086840F00100E3
:100BB00008607047086820F0010008607047000076
:100BC000186801400649002804D0086840F48030C5
:100BD00008607047086820F48030086070470000A3
:100BE0001868014010B42F4A13682F490B40136056
:100BF000038A1B04D2F800C044694CEA040C4CEA96
:100C000003031360121D13680B401360038B1B0456
:100C1000D2F800C0C4694CEA040C4CEA0303136028
:100C2000121D13680B401360038C1B04D2F800C024
:100C3000446A4CEA040C4CEA03031360121D136867
:100C400019401160018D09041368D0F82CC043EAE3
:100C50000C0319431160111D0A68144B1A400A60F5
:100C600043680268D0F80CC01A43836843EA0C0357
:100C70001A430B681A430A60416B0A02018E0B0487
:100C80000B49D1F800C00CF07F4CC1F800C0D1F87E
:100C900000C0806B1A434CEA00001043086010BC8F
:100CA000704700000868014000F800F08F88FE0FD0
:100CB0002C680140002904D0016841F00101016065
:100CC0007047016821F001010160704730B48A88E3
:100CD0001204436803F4704343600B681A43426094
:100CE0008A891204836803F4704383608B681A4313
:100CF0008260026922F0070202610A690261CA6920
:100D000012020B8C1B0491F824C04FEA0C6C84690E
:100D1000002484618D6943EA0C032A431A438261EB
:100D2000426922F0FF0242614A694261C26922F0CF
:100D3000070222F4E062C261CB6A8A6A1A43C26186
:100D4000826A84620A6B82620A8F1204C36A03F0A9
:100D5000E023C3624B6B1A43C262026B6FF30A0259
:100D60000263C96B016330BC704700000149086031
:100D70007047000024680140FEE77047704700009C
:100D8000054A002903D011680843106070471168B4
:100D900021EA00001060704730380240054A0029FF
:100DA00003D01168084310607047116821EA000001
:100DB0001060704738380240054A002903D0116896
:100DC000084310607047116821EA00001060704706
:100DD0004438024030B4DFF89CC0DCF8001001F069
:100DE0000C01254D002923D0244C042922D00829A8
:100DF00022D00560DCF8001001F0F0010909204B59
:100E0000595C026822FA01F14160DCF8002002F42A
:100E1000E052920A9A5C21FA02F28260DCF8002029
:100E200002F46042520B9A5CD140C16030BC704702
:100E30000560DFE70460DDE7124A1168C1F3805303
:100E4000116801F03F0133B1B4FBF1F11368C3F352
:100E50008813594305E0B5FBF1F11368C3F3881318
:100E600059431268C2F30142521C5200B1FBF2F125
:100E70000160BFE7083802400024F40040787D019B
:100E800000000020043802400022410901290DD051
:100E900002290ED00849096800F01F00012303FA57
:100EA00000F0084200D0012210467047034909684B
:100EB000F2E703490968EFE774380240003802405E
:100EC00070380240034A116821F440310843106031
:100ED000704700008C3802400149086770470000E5
:100EE00000004742800140EA0160024940EA027086
:100EF00008607047883802402DE9F04F83B0012127
:100F0000FC20FFF73DFF02208DF804008DF805005E
:100F100000208DF806008DF807000120009069463A
:100F2000D148FFF787FB0C220021CF48FFF7CDFB0C
:100F3000022000906946CC48FFF77CFB0C2201217F
:100F4000C948FFF7C2FB042000906946C648FFF776
:100F500071FB0C220221C448FFF7B7FB0820009068
:100F60006946C148FFF766FB0C220321BE48FFF724
:100F7000ACFB102500956946BB48FFF75BFB0C22D4
:100F80000421B948FFF7A1FB202600966946B64820
:100F9000FFF750FB0C220521B348FFF796FB4FF4F7
:100FA0008058CDF800806946AF48FFF743FB0C221C
:100FB0001146AD48FFF789FB4FF40059CDF800907A
:100FC0006946A948FFF736FB0C220D21A648FFF71A
:100FD0007CFBAF0200976946A348FFF72BFB0C226E
:100FE0000E21A148FFF771FBEC02009469469E4870
:100FF000FFF720FB0C220F219B48FFF766FB012027
:10100000009069469948FFF715FB0C22002197488C
:10101000FFF75BFB0220009069469448FFF70AFB4C
:101020000C2201219148FFF750FB009569468F483B
:10103000FFF700FB0C2204218C48FFF746FB0096CB
:1010400069468A48FFF7F6FA0C2205218748FFF720
:101050003CFB009769468648FFF7ECFA0C220E210C
:101060008348FFF732FB009469468148FFF7E2FAB4
:101070000C220F217E48FFF728FB012000906946D3
:101080007B48FFF7D7FA0C2200217948FFF71DFBB8
:101090000220009069467648FFF7CCFA0C22012125
:1010A0007348FFF712FB8020009069467148FFF7F4
:1010B000C1FA0C2207216F48FFF707FBE6110096E3
:1010C00069466C48FFF7B6FA0C2208216948FFF719
:1010D000FCFA4FF4007ACDF800A069466548FFF7A6
:1010E000A9FA0C2209216348FFF7EFFA4FF4806B4D
:1010F000CDF800B069465F48FFF79CFA0C220A2140
:101100005C48FFF7E2FA2511009569465948FFF758
:1011100091FA0C220B215748FFF7D7FACDF800803F
:1011200069465448FFF786FA0C2211465148FFF7EA
:10113000CCFACDF8009069464E48FFF77BFA0C22B6
:101140000D214C48FFF7C1FA009769464948FFF75F
:1011500071FA0C220E214748FFF7B7FA009469464E
:101160004448FFF767FA0C220F214248FFF7ADFA17
:10117000009669463E48FFF75DFA0C2208213C487C
:10118000FFF7A3FACDF800A069463948FFF752FAF5
:101190000C2209213648FFF798FACDF800B06946CD
:1011A0003348FFF747FA0C220A213148FFF78DFA3E
:1011B00040200090304F69463846FFF73BFA0C223A
:1011C00006213846FFF781FA01200090DFF8AC8055
:1011D00069464046FFF72EFA0C2200214046FFF7F1
:1011E00074FA009569462048FFF724FA0C220B2177
:1011F0001D48FFF76AFA009469461C48FFF71AFA7F
:101200000C220F211948FFF760FA0096694617482B
:10121000FFF710FA0C2208211448FFF756FA802134
:10122000009169463846FFF705FA0C220721384637
:10123000FFF74BFA0220009069460E48FFF7FAF9D3
:101240000C2201210B48FFF740FA0120009069466B
:101250000848FFF7EFF90C2200210648FFF735FA9E
:1012600003B0BDE8F08F00000014024000180240F7
:10127000000C024000100240001C02400008024026
:1012800000B593B0FFF738FE01210846FFF786FD51
:1012900002200190072202920421039104920590FA
:1012A0000690079001200890002009900A911021D3
:1012B0000B9140210C9189000D910E90C9000F9166
:1012C00049001091119001A8129008A8FFF70EF99B
:1012D00000F002F813B000BDF0B585B0012600960D
:1012E0000825019500240294039420210120FFF792
:1012F000D1F80028F9D16846FFF7E8F80A2000F095
:1013000039F80227009701950294039420210120C7
:10131000FFF7C0F80028F9D16846FFF7D7F8032097
:10132000009001950297039420210120FFF7B2F865
:101330000028F9D16846FFF7C9F840F222200421BD
:10134000009101950296039020210120FFF7A2F859
:101350000028F9D16846FFF7B9F840F26A50FFF764
:1013600061F920210120FFF795F80028F9D105B097
:10137000F0BD000001B481B00649019848430090D7
:1013800002E00098401E009000980028F9D102B0B9
:1013900070470000A08601007047000082B0002165
:1013A00001910091304A106840F48030106010685C
:1013B00000F4003000900198401C0190009818B98A
:1013C0000198B0F5A04FF2D1106810F4003F02D0A0
:1013D0000120009000E000910098012842D12348AC
:1013E000016841F0805101602149086840F44040A3
:1013F0000860204803680360036843F40043036007
:10140000036843F4A0530360A0F1040C1A4BCCF81A
:101410000030136843F080731360136813F0007F8B
:10142000FBD00A6842F480320A604A6812F4803FB6
:10143000FBD00A6842F400320A604A6812F4003FA6
:10144000FBD00E4A40F205711160016821F00301E2
:101450000160016841F002010160016801F00C01C6
:101460000829FAD102B070470038024040380240E3
:101470000070004008380240195A4007003C024002
:101480007047000010B51148016841F47001016017
:101490000F48016841F0010101600E4A002111600E
:1014A000026822F4102222F080720260031D0A4AB0
:1014B0001A60026822F48022026008480160FFF787
:1014C0006DFF07494FF00060086010BD88ED00E037
:1014D0000038024008380240103000240C38024026
:1014E00008ED00E0002904D0818941F40051818198
:1014F0007047818921F400518181704702460020A4
:1015000012880A4200D001207047000030B585B033
:1015100004460D46208A20F44050E9880843208282
:10152000A08920F4037020F4A050A9882A891143CF
:101530006A8910430843A081A08A20F44070A989D9
:101540000843A0826846FFF745FCA4F18040B0F54F
:10155000883010D0B0F580600DD00298A18911F4C8
:10156000004F0AD000EBC00101EB001029684900D0
:10157000B0FBF1F009E00398F0E700EBC00101EBEC
:10158000001029688900B0FBF1F0124AA2FB00317B
:10159000490909010B096FF0180C03FB0CF300EB70
:1015A0008300A38913F4004F4FF0320307D003EBFD
:1015B000C000A2FB0020C0F34210084306E003EB8A
:1015C0000010A2FB0020C0F343100843208105B0A7
:1015D00030BD00001F85EB51C1F3080181807047C9
:1015E000FEE70000014A024900F013B83516000872
:1015F0001000002002E008C8121F08C1002AFAD11A
:1016000070477047002001E001C1121F002AFBD182
:1016100070472DE9F04116460F460446002503E0C9
:101620003946B047641C6D1C20780028F8D1284644
:10163000BDE8F08170B50446064DE1B22846FFF7DB
:10164000CBFF80212846FFF759FF0028F9D020461C
:1016500070BD000000100140FFF76AFAFEF7CEFEF1
:1016600007A0FFF7BFFFFFF70BFEFFF7C5F9FEF777
:10167000CDFDFEF705FEFEF717FEFEF7DDFDFEE7EA
:101680000D0A20B1FCBBF053544D3332463432398D
:10169000204C434420B2E2CAD4C0FDB3CC0D0A00B2
:1016A000C01600080000002014000000F415000817
:1016B000D4160008140000200404000004160008DA
:1016C00000000000010203040102030406070809E8
:0416D0000000000016
:04000005080001AD41
:00000001FF
