:020000040800F2
:1000000018040020C1010008350400080B04000892
:1000100033040008AB0200081109000800000000CA
:10002000000000000000000000000000FD050008C6
:10003000AD0200080000000001050008D506000818
:10004000DB010008DB010008DB010008DB01000820
:10005000DB010008DB010008DB010008DB01000810
:10006000DB010008DB010008DB010008DB01000800
:10007000DB010008DB010008DB010008DB010008F0
:10008000DB010008DB010008DB010008DB010008E0
:10009000DB010008DB010008DB010008DB010008D0
:1000A000DB010008DB010008DB010008DB010008C0
:1000B000DB010008DB010008DB010008DB010008B0
:1000C000DB010008DB010008DB010008DB010008A0
:1000D000DB0100083507000861070008DB010008A4
:1000E000DB010008DB010008DB010008DB01000880
:1000F000DB010008DB010008DB010008DB01000870
:10010000DB010008DB010008DB010008DB0100085F
:10011000DB010008DB010008DB010008DB0100084F
:10012000DB010008DB010008DB010008DB0100083F
:10013000DB010008DB010008DB010008DB0100082F
:10014000DB010008DB010008DB010008DB0100081F
:10015000DB010008DB010008DB010008DB0100080F
:10016000DB010008DB010008DB010008DB010008FF
:10017000DB010008DB010008DB010008DB010008EF
:10018000DB010008DB010008DB010008DB010008DF
:10019000DB010008DB010008DB010008DB010008CF
:1001A000DB010008DB010008DB010008DFF80CD0F0
:1001B00000F04AF800480047CD0D00081804002060
:1001C0000648804706480047FEE7FEE7FEE7FEE7F1
:1001D000FEE7FEE7FEE7FEE7FEE7FEE7D9060008DA
:1001E000AD0100082DE9F05F0546002092469B46D0
:1001F00088460646814640241BE02846414647463D
:10020000224600F042F853465A46C01A914110D394
:1002100011461846224600F029F82D1A67EB01080E
:100220004F4622460120002100F020F817EB00097C
:100230004E41201EA4F10104DFDC484631462A4627
:100240004346BDE8F09F0000064C074D06E0E0681D
:1002500040F0010394E8070098471034AC42F6D30D
:10026000FFF7A8FF880E0008A80E0008202A04DB6C
:10027000203A00FA02F1002070479140C2F12003B9
:1002800020FA03F3194390407047202A04DB203AF8
:1002900021FA02F00021704721FA02F3D040C2F1A6
:1002A00020029140084319467047FEE7704700005E
:1002B00070B586B00121084600F024F90121102014
:1002C00000F03CF900248DF8164001208DF817004D
:1002D00002258DF815508DF81450400204901C4EE4
:1002E00004A9304600F038F88DF8145069020491E2
:1002F00004A9304600F030F807220A21304600F009
:1003000069F807220921304600F064F84FF4E13023
:100310000090ADF80440ADF80640ADF80840ADF8E7
:100320000C400C20ADF80A000A4C6946204600F04B
:1003300089FA00F080F8012240F22551204600F0B1
:1003400066FA0121204600F02FFA06B070BD0000C9
:1003500000000240001001402DE9F0410022012779
:100360004FF0030C07FA02F50B682B40AB422CD17F
:10037000066853000CFA03F4A64306600E79D0F821
:1003800000809E4046EA080606600E79012E01D0E4
:10039000022E12D18668A64386604E79D0F8088076
:1003A0009E4046EA080686604668AE434660456859
:1003B0008E799640B6B235434560C568A543C560A1
:1003C000CC799C40C3681C43C460521C102AC9D31A
:1003D000BDE8F08110B54B07DB0E9A40C90800EB71
:1003E0008100016A0F249C40A1430162016A11430C
:1003F000016210BD0246002012690A4200D00120AD
:1004000070474183704701837047FEE770B504462B
:100410000D4629462046FFF7EDFF012801D00020B8
:1004200070BD29462046FFF7E5FF0128F9D00120DD
:1004300070BDFEE7704708B54FF4A06000F056F8B5
:1004400025208DF8000001208DF801008DF80200B4
:100450008DF80300684600F015F808BD08B54FF4A4
:10046000A06000F043F826208DF8000001208DF8F0
:1004700001008DF802008DF80300684600F002F8D4
:1004800008BD000030B50F23C27801250178002A8D
:100490001FD0154A126802F4E062C2F5E062C2F3AE
:1004A0000722C2F10404D3404278A24084781C4061
:1004B0001443220101F1E02181F80024007800F0CA
:1004C0001F018D404009800000F1E020C0F800517C
:1004D00030BD01F01F0085404809800000F1E02098
:1004E000C0F8805130BD00000CED00E00249084327
:1004F00002490860704700000000FA050CED00E0BA
:1005000070470000054A002903D0116801431160BB
:100510007047116881431160704700003038024015
:10052000054A002903D01168014311607047116822
:10053000814311607047000040380240054A00299D
:1005400003D0116801431160704711688143116045
:10055000704700004438024070B5244B196801F020
:100560000C01234C00291ED0224E04291DD008293D
:100570001DD00460196801F0F00109091E4A545C9D
:100580000168E14041601C6804F4E054A40A145D71
:1005900021FA04F484601B6803F460435B0BD25CB3
:1005A000D140C16070BD0460E4E70660E2E70F4A35
:1005B000121F1168C1F38055116801F03F0135B178
:1005C000B6FBF1F11468C4F38814614305E0B4FB91
:1005D000F1F11468C4F3881461431268C2F3014254
:1005E000521C5200B1FBF2F10160C3E7083802402F
:1005F0000024F40040787D010000002070470000D6
:100600001CB50021019100912E4A106840F4803001
:1006100010604FF4A043106800F40030009001987F
:10062000401C0190009810B901989842F3D11068CD
:10063000800302D50120009000E00091009801287D
:100640003FD120484030016841F0805101601E498F
:10065000086840F4404008601A48083003680360A6
:10066000036843F400430360036843F4A05303604A
:10067000041F164B2360136843F0807313601368E4
:100680009B01FCD50A6842F480320A604A68D203B2
:10069000FCD50A6842F400320A604A689203FCD52D
:1006A0000B4A40F205711160016821F003010160FD
:1006B000016841F0020101600168C1F38101022972
:1006C000FAD11CBD0038024000700040195A4007A2
:1006D000003C02407047000010B51248016841F428
:1006E000700101601048016841F0010101600E4A8B
:1006F00000210832116002680C4B1A400260031D91
:100700000B4A1A60026822F48022026006480C300C
:100710000160FFF775FF03494FF000608039086002
:1007200010BD000088ED00E000380240FFFFF6FE3B
:100730001030002410B5094C40F22551204600F03D
:1007400046F8002808D0204600F0DAF8C1B220466A
:10075000BDE8104000F0D8B810BD00000010014006
:1007600070B50B4D40F225542146284600F02FF875
:1007700000280CD0284600F0C3F8064A507001202B
:10078000107021462846BDE8704000F005B870BDE5
:10079000004400401000002040F66A120A0A0121BD
:1007A0009140C94301807047002904D0818941F4F8
:1007B000005181817047818921F400518181704706
:1007C0000246002012880A4200D00120704770B50E
:1007D000002440F66A12C1F3421301F01F050126FE
:1007E00006FA05F2012B0CD0022B0DD0838A1340A0
:1007F000090A8E40008830400BB100B10124204628
:1008000070BD83891340F3E7038A1340F0E710B506
:1008100040F66A13C1F3421301F01F040121A14005
:10082000012B07D0022B07D014303AB102680A43DB
:10083000026010BD0C30F8E71030F6E702688A431A
:10084000026010BD7FB504460D46208A20F4405159
:10085000E88808432082A08941F20C618843A98876
:100860002A8911436A8902431143A181A08A20F495
:100870004071A8890843A0826846FFF76DFE1E48B4
:10088000844202D01D48844201D1039800E00298BE
:10089000A189090408D500EBC00101EB001029680B
:1008A0004900B0FBF1F007E000EBC00101EB0010E4
:1008B00029688900B0FBF1F06422B0FBF2F1090174
:1008C0000B096FF018056B4300EB8300A3891D042F
:1008D0004FF0320307D503EBC000B0FBF2F000F09D
:1008E0000700084306E003EB0010B0FBF2F000F055
:1008F0000F00084320817FBD00100140001401401B
:100900008088C0F308007047C1F3080181807047F8
:10091000FEE710B504462046FFF7F6FF802120468B
:10092000FFF74EFF0028F9D010BD70B506460D4602
:1009300000243046295DFFF7ECFF641C285D002889
:10094000F7D140213046FFF73BFF0028F9D070BDBA
:100950000FB4054B10B503A9044A029800F0C4F87F
:1009600010BC5DF814FB0000A90D00081400002065
:100970002DE9F04180460D4640F6B834204600F09F
:1009800091F8104F4FF4006631463846FFF73BFDB3
:10099000204600F087F829464046FFF7B5FF802142
:1009A0004046FFF70DFF0028F9D0204600F07AF806
:1009B00031463846FFF725FD2046BDE8F04100F0FE
:1009C00071B80000000C0240F0B587B0012108208A
:1009D000FFF798FD01214804FFF7A2FD00248DF8E0
:1009E0001A4001278DF81B7002258DF819508DF8DB
:1009F000185020200590294E05A93046FFF7ACFC81
:100A00008DF818504020059005A93046FFF7A4FC4A
:100A10008DF81A408DF81B408DF819508DF818701C
:100A2000AD02059505A93046FFF796FC0722062181
:100A30003046FFF7CFFC072205213046FFF7CAFCFE
:100A40004FF4E1300190ADF80840ADF80A40ADF840
:100A50000C40ADF810400C20ADF80E00104C01A970
:100A60002046FFF7EFFEFFF7F9FC012240F2255187
:100A70002046FFF7CCFE01212046FFF795FE40F609
:100A8000B834204600F00EF829463046FFF7B9FC8E
:100A9000204600F007F807B0F0BD0000000C02404F
:100AA0000044004001B502E00098401E009000980C
:100AB0000028F9D108BD02E008C8121F08C1002AA9
:100AC000FAD170477047002001E001C1121F002ACF
:100AD000FBD1704701B502E00098401E00900098DD
:100AE0000028F9D108BD00002DE9FF4F8DB09B46CD
:100AF0000F460446002606E025280BD05A460F99DB
:100B00009047641C761C20780028F5D111B030463F
:100B1000BDE8F08F0025A8460122984900E0054372
:100B200014F8013F203B02FA03F00842F7D1207885
:100B30002E2817D114F8010F45F004052A280ED0ED
:100B40006FF02F022078A0F1300109290AD808EBB4
:100B5000880102EB410100EB0108641CF2E757F841
:100B6000048B641C20786C280DD004DC4C2812D037
:100B70006A2811D104E074280DD07A280CD10AE03B
:100B800045F4001507E0617845F48015814202D1F3
:100B9000641C05F58015641C2278692A45D008DCA0
:100BA000002AB3D0582A69D0632A10D0642A08D109
:100BB0003BE0702A67D0732A13D0752A5CD0782A5C
:100BC0005CD010465A460F999047761CD3E017F830
:100BD000040B8DF8000000208DF80100E94601208B
:100BE00003E057F8049B4FF0FF3069074FF0000512
:100BF00001D40AE06D1C45450DDA8542FADB19F88F
:100C000005100029F6D106E06D1C8542FCDB19F8C1
:100C100005100029F8D12E4404E019F8010B5A46BA
:100C20000F9990476D1EF8D2A5E00A200021CDE96A
:100C30000801C5F3025002280DD001CFC117031ED1
:100C400071F100030DDA4FF0000CD0EB0C006CEBEF
:100C500001012D2308E0FF1D27F00707F7E8020137
:100C6000EDE72B0504D52B238DF8283001233BE03D
:100C7000EB0739D02023F7E70A2000E010200021FD
:100C8000CDE9080107E01020002145F00405CDE979
:100C900008014FF00808C5F3025002280FD001CF19
:100CA00000214FF0000A2B071FD5702A0DD0DDE977
:100CB00008C38CF0100C5CEA030C0CD015E0FF1D8F
:100CC00027F00707F7E80201EBE740228DF828201C
:100CD0004FF0010A0BE050EA010306D030238DF8F3
:100CE00028308DF8292002239A46582A04D024A2BD
:100CF0000DF120090B9209E026A2F9E7DDE90823AE
:100D0000FFF770FA0B9B9B5C09F8013D50EA01026A
:100D1000F4D1ADEB090020300890680701D44FF002
:100D200001080899884502DDA8EB010000E00020D9
:100D30008046002506E00AA85A46405D0F99904774
:100D40006D1C761C5545F6DB04E030205A460F99A1
:100D50009047761CB8F10001A8F10108F5DC05E028
:100D600019F8010B5A460F999047761C0899481EAE
:100D700008900029F4DC641CC5E600000928010085
:100D80003031323334353637383961626364656601
:100D900000000000303132333435363738394142C3
:100DA000434445460000000070B50446064DE1B2DC
:100DB0002846FFF7A9FD80212846FFF701FD0028FE
:100DC000F9D0204670BD000000100140FFF770FA16
:100DD000FFF7FAFD15A11C48FFF7A7FD13A0FFF7C9
:100DE000B7FD1A4FDFF868801A4D1B4C00266FF0D4
:100DF0007F4901213846FFF709FB012806D101216F
:100E00004046FFF7B5FD15A0FFF7A2FD28780128A1
:100E1000EFD14846FFF75EFE217816A0FFF798FD58
:100E200021784046FFF7A4FD2E70E2E7D5E2CAC75D
:100E3000D2BBB8F6343835BDD3CAD5BBD8CFD4CAA7
:100E4000B5D1E90A00000000001001400000024096
:100E50000044004010000020110000200D0AD2D1F3
:100E6000CAB9D3C3343835B7A2CBCDCAFDBEDDA3D2
:100E7000A10D0A000D0ABDD3CAD5B5BDCAFDBEDDA0
:100E8000B0FCA3BA25780000A80E000800000020DE
:100E900018000000B60A0008C00E00081800002064
:100EA00000040000C60A000800000000010203045C
:100EB000010203040607080900000000000000000A
:04000005080001AD41
:00000001FF
