:020000040800F2
:1000000018040020C101000855030008510300082E
:1000100053030008090200089907000800000000C7
:10002000000000000000000000000000D9040008EB
:100030000B02000800000000F9030008B1050008E9
:10004000DB010008DB010008DB010008DB01000820
:10005000DB010008DB010008DB010008DB01000810
:10006000DB010008DB010008DB010008DB01000800
:10007000DB010008DB010008DB010008DB010008F0
:10008000DB010008DB010008DB010008DB010008E0
:10009000DB010008DB010008DB010008DB010008D0
:1000A000DB010008DB010008DB010008DB010008C0
:1000B000DB010008DB010008DB010008DB010008B0
:1000C000DB010008DB010008DB010008DB010008A0
:1000D000DB01000805060008DB010008DB01000861
:1000E000DB010008DB010008DB010008DB01000880
:1000F000DB010008DB010008DB010008DB01000870
:10010000DB010008DB010008DB010008DB0100085F
:10011000DB010008DB010008DB010008DB0100084F
:10012000DB010008DB010008DB010008DB0100083F
:10013000DB010008DB010008DB010008DB0100082F
:10014000DB010008DB010008DB010008DB0100081F
:10015000DB010008DB010008DB010008DB0100080F
:10016000DB010008DB010008DB010008DB010008FF
:10017000DB010008DB010008DB010008DB010008EF
:10018000DB010008DB010008DB010008DB010008DF
:10019000DB010008DB010008DB010008DB010008CF
:1001A000DB010008DB010008DB010008DFF80CD0F0
:1001B00000F018F800480047110800081804002053
:1001C0000648804706480047FEE7FEE7FEE7FEE7F1
:1001D000FEE7FEE7FEE7FEE7FEE7FEE7B5050008FF
:1001E000AD010008064C074D06E0E06840F0010351
:1001F00094E8070098471034AC42F6D3FFF7DAFFD3
:100200003C0800085C080008FEE7704770B586B03F
:100210000121084600F0F2F80121102000F0FCF85E
:1002200000248DF8164001208DF8170002258DF866
:1002300015508DF81450400204901C4E04A930460D
:1002400000F038F88DF814506902049104A9304682
:1002500000F030F807220A21304600F069F8072242
:100260000921304600F064F84FF4E1300090ADF819
:100270000440ADF80640ADF80840ADF80C400C2045
:10028000ADF80A000A4C6946204600F01FFA00F05B
:1002900062F8012240F22551204600F0FCF90121CC
:1002A000204600F0C5F906B070BD00000000024015
:1002B000001001402DE9F041002201274FF0030C0E
:1002C00007FA02F50B682B40AB422CD106685300AD
:1002D0000CFA03F4A64306600E79D0F800809E4025
:1002E00046EA080606600E79012E01D0022E12D1D0
:1002F0008668A64386604E79D0F808809E4046EA1C
:10030000080686604668AE43466045688E7996402A
:10031000B6B235434560C568A543C560CC799C40FD
:10032000C3681C43C460521C102AC9D3BDE8F081C5
:1003300010B54B07DB0E9A40C90800EB8100016A3B
:100340000F249C40A1430162016A1143016210BD68
:10035000FEE7FEE7704708B54FF4A06000F042F8F2
:1003600025208DF8000001208DF801008DF8020095
:100370008DF80300684600F001F808BD30B50F2382
:10038000C27801250178002A1FD0154A126802F4AC
:10039000E062C2F5E062C2F30722C2F10404D34076
:1003A0004278A24084781C401443220101F1E021EC
:1003B00081F80024007800F01F018D404009800082
:1003C00000F1E020C0F8005130BD01F01F00854071
:1003D0004809800000F1E020C0F8805130BD0000E5
:1003E0000CED00E002490843024908607047000034
:1003F0000000FA050CED00E070470000054A0029F6
:1004000003D0116801431160704711688143116086
:100410007047000030380240054A002903D01168B7
:1004200001431160704711688143116070470000FB
:100430004438024070B5244B196801F00C01234C7C
:1004400000291ED0224E04291DD008291DD0046089
:10045000196801F0F00109091E4A545C0168E14085
:1004600041601C6804F4E054A40A145D21FA04F409
:1004700084601B6803F460435B0BD25CD140C160B5
:1004800070BD0460E4E70660E2E70F4A121F1168DE
:10049000C1F38055116801F03F0135B1B6FBF1F1B0
:1004A0001468C4F38814614305E0B4FBF1F11468E7
:1004B000C4F3881461431268C2F30142521C520013
:1004C000B1FBF2F10160C3E7083802400024F400F8
:1004D00040787D0100000020704700001CB500211D
:1004E000019100912E4A106840F4803010604FF462
:1004F000A043106800F4003000900198401C019067
:10050000009810B901989842F3D11068800302D581
:100510000120009000E00091009801283FD1204880
:100520004030016841F0805101601E49086840F484
:10053000404008601A48083003680360036843F4C9
:1005400000430360036843F4A0530360041F164B89
:100550002360136843F08073136013689B01FCD51C
:100560000A6842F480320A604A68D203FCD50A68FD
:1005700042F400320A604A689203FCD50B4A40F20A
:1005800005711160016821F003010160016841F00B
:10059000020101600168C1F381010229FAD11CBD89
:1005A0000038024000700040195A4007003C0240E9
:1005B0007047000010B50F48016841F0010101606B
:1005C0000C4A00210832116002680B4B1A4002608D
:1005D000031D0A4A1A60026822F48022026005485C
:1005E0000C300160FFF77AFF05494FF000600860AA
:1005F00010BD000000380240FFFFF6FE103000245E
:1006000008ED00E010B5094C40F22551204600F0FD
:1006100022F8002808D0204600F0B6F8C1B22046E3
:10062000BDE8104000F0B4B810BD0000001001405B
:10063000002904D0818941F400518181704781896A
:1006400021F40051818170470246002012880A423D
:1006500000D00120704770B5002440F66A12C1F343
:10066000421301F01F05012606FA05F2012B0CD0FA
:10067000022B0DD0838A1340090A8E400088304037
:100680000BB100B10124204670BD83891340F3E70C
:10069000038A1340F0E710B540F66A13C1F3421322
:1006A00001F01F040121A140012B07D0022B07D02C
:1006B00014303AB102680A43026010BD0C30F8E70A
:1006C0001030F6E702688A43026010BD7FB5044629
:1006D0000D46208A20F44051E88808432082A089F2
:1006E00041F20C618843A9882A8911436A8902432F
:1006F0001143A181A08A20F44071A8890843A082F7
:100700006846FFF797FE1E48844202D01D48844287
:1007100001D1039800E00298A189090408D500EBF3
:10072000C00101EB001029684900B0FBF1F007E0BF
:1007300000EBC00101EB001029688900B0FBF1F06B
:100740006422B0FBF2F109010B096FF018056B434D
:1007500000EB8300A3891D044FF0320307D503EBA0
:10076000C000B0FBF2F000F00700084306E003EB26
:100770000010B0FBF2F000F00F00084320817FBDB5
:1007800000100140001401408088C0F30800704749
:10079000C1F3080181807047FEE70000014A024969
:1007A00000F013B8ED0700081000002002E008C8B0
:1007B000121F08C1002AFAD170477047002001E0DB
:1007C00001C1121F002AFBD170472DE9F0411646E6
:1007D0000F460446002503E03946B047641C6D1CF3
:1007E00020780028F8D12846BDE8F08170B504468D
:1007F000064DE1B22846FFF7CBFF80212846FFF7E0
:1008000023FF0028F9D0204670BD000000100140F1
:10081000FFF7FCFC01A0FFF7C1FFFEE70D0A20B4C3
:10082000AEBFDACDA8D0C57072696E7466BAAFCAB1
:10083000FDB2E2CAD4200D0A000000005C080008E6
:100840000000002014000000AC0700087008000839
:100850001400002004040000BC0700080000000091
:100860000102030401020304060708090000000056
:04000005080001AD41
:00000001FF
