:020000040800F2
:1000000018040020C10100082B040008C9030008DF
:100010002904000809020008850700080000000004
:100020000000000000000000000000006D05000856
:100030000B020008000000008D04000845060008BF
:10004000DB010008DB010008DB010008DB01000820
:10005000DB010008DB010008B9020008DB01000831
:10006000DB010008DB010008DB010008DB01000800
:10007000DB010008DB010008DB010008DB010008F0
:10008000DB010008DB010008DB010008DB010008E0
:10009000DB010008DB010008DB010008DB010008D0
:1000A000DB010008DB010008DB010008DB010008C0
:1000B000DB010008DB010008DB010008DB010008B0
:1000C000DB010008DB010008DB010008DB010008A0
:1000D000DB010008DB010008DB010008DB01000890
:1000E000F1020008DB010008DB010008DB01000869
:1000F000DB010008DB010008DB010008DB01000870
:10010000DB010008DB010008DB010008DB0100085F
:10011000DB010008DB010008DB010008DB0100084F
:10012000DB010008DB010008DB010008DB0100083F
:10013000DB010008DB010008DB010008DB0100082F
:10014000DB010008DB010008DB010008DB0100081F
:10015000DB010008DB010008DB010008DB0100080F
:10016000DB010008DB010008DB010008DB010008FF
:10017000DB010008DB010008DB010008DB010008EF
:10018000DB010008DB010008DB010008DB010008DF
:10019000DB010008DB010008DB010008DB010008CF
:1001A000DB010008DB010008DB010008DFF80CD0F0
:1001B00000F018F800480047FD0700081804002068
:1001C0000648804706480047FEE7FEE7FEE7FEE7F1
:1001D000FEE7FEE7FEE7FEE7FEE7FEE7490600086A
:1001E000AD010008064C074D06E0E06840F0010351
:1001F00094E8070098471034AC42F6D3FFF7DAFFD3
:1002000090080008B0080008FEE7704770B586B097
:100210000121084600F03CF90121102000F046F9C8
:100220001E4E07220A21304600F0BEF8072209219F
:10023000304600F0B9F800248DF8164001208DF802
:10024000170002258DF81450410204918DF81550C5
:1002500004A9304600F06AF88DF814506802049042
:1002600004A9304600F062F84FF4E1300090ADF898
:100270000440ADF80640ADF80840ADF80C400C2045
:10028000ADF80A00064C6946204600F019FA012133
:10029000204600F001FA06B070BD000000000240E8
:1002A0000010014001B502E00098401E0090009847
:1002B0000028F9D108BD000010B5012000F02CF88D
:1002C000002811D009484FF480610180C114821EBA
:1002D0001180811401806FF07F40FFF7E3FFBDE8DC
:1002E0001040012000F012B810BD00001A1C02409E
:1002F00010B54FF40054204600F00EF8002804D04A
:100300002046BDE8104000F001B810BD014908606A
:1003100070470000143C014001460020024A126868
:100320000A4200D001207047143C01402DE9F04101
:10033000002201274FF0030C07FA02F50B682B404F
:10034000AB422CD1066853000CFA03F4A6430660B6
:100350000E79D0F800809E4046EA080606600E79C5
:10036000012E01D0022E12D18668A64386604E79F6
:10037000D0F808809E4046EA080686604668AE438C
:10038000466045688E799640B6B235434560C5688B
:10039000A543C560CC799C40C3681C43C460521C13
:1003A000102AC9D3BDE8F08110B54B07DB0E9A4087
:1003B000C90800EB8100016A0F249C40A14301623F
:1003C000016A1143016210BDFEE700002DE9FC4106
:1003D0000121802000F05CF84FF48064009401203B
:1003E0008DF8040000218DF806108DF807008DF8B7
:1003F00005100C4F69463846FFF798FF66000096D7
:1004000069463846FFF792FFA500009569463846D1
:10041000FFF78CFF03481830048006800580BDE894
:10042000FC810000001C0240FEE770470649B0F561
:10043000402F04D00A6842EA80000860704748688C
:1004400040F4402048607047007000400548016853
:1004500041F0020101600448016841F004010160BB
:1004600030BF70470070004010ED00E001460020F2
:10047000024A52680A4200D00120704700700040D2
:100480000149086070470000A0000E42704700005C
:10049000054A002903D011680143116070471168B3
:1004A000814311607047000030380240054A00293E
:1004B00003D01168014311607047116881431160D6
:1004C000704700004438024070B5244B196801F0B1
:1004D0000C01234C00291ED0224E04291DD00829CE
:1004E0001DD00460196801F0F00109091E4A545C2E
:1004F0000168E14041601C6804F4E054A40A145D02
:1005000021FA04F484601B6803F460435B0BD25C43
:10051000D140C16070BD0460E4E70660E2E70F4AC5
:10052000121F1168C1F38055116801F03F0135B108
:10053000B6FBF1F11468C4F38814614305E0B4FB21
:10054000F1F11468C4F3881461431268C2F30142E4
:10055000521C5200B1FBF2F10160C3E708380240BF
:100560000024F40040787D01000000207047000066
:100570001CB50021019100912E4A106840F4803092
:1005800010604FF4A043106800F400300090019810
:10059000401C0190009810B901989842F3D110685E
:1005A000800302D50120009000E00091009801280E
:1005B0003FD120484030016841F0805101601E4920
:1005C000086840F4404008601A4808300368036037
:1005D000036843F400430360036843F4A0530360DB
:1005E000041F164B2360136843F080731360136875
:1005F0009B01FCD50A6842F480320A604A68D20343
:10060000FCD50A6842F400320A604A689203FCD5BD
:100610000B4A40F205711160016821F0030101608D
:10062000016841F0020101600168C1F38101022902
:10063000FAD11CBD0038024000700040195A400732
:10064000003C02407047000010B50F48016841F0BF
:10065000010101600C4A00210832116002680B4B55
:100660001A400260031D0A4A1A60026822F48022BE
:10067000026005480C300160FFF77AFF05494FF032
:100680000060086010BD000000380240FFFFF6FE69
:100690001030002408ED00E0002904D0818941F4E5
:1006A000005181817047818921F400518181704717
:1006B0000246002012880A4200D001207047000044
:1006C0007FB504460D46208A20F44051E88808434F
:1006D0002082A08941F20C618843A9882A891143AC
:1006E0006A8902431143A181A08A20F44071A8893C
:1006F0000843A0826846FFF7E7FE1E48844202D006
:100700001D48844201D1039800E00298A1890904A0
:1007100008D500EBC00101EB001029684900B0FBCF
:10072000F1F007E000EBC00101EB0010296889003F
:10073000B0FBF1F06422B0FBF2F109010B096FF09C
:1007400018056B4300EB8300A3891D044FF03203AF
:1007500007D503EBC000B0FBF2F000F00700084340
:1007600006E003EB0010B0FBF2F000F00F000843CE
:1007700020817FBD0010014000140140C1F3080139
:1007800081807047FEE70000014A024900F013B87B
:10079000D90700081000002002E008C8121F08C195
:1007A000002AFAD170477047002001E001C1121FF2
:1007B000002AFBD170472DE9F04116460F4604464A
:1007C000002503E03946B047641C6D1C20780028E2
:1007D000F8D12846BDE8F08170B50446064DE1B277
:1007E0002846FFF7CBFF80212846FFF761FF00284E
:1007F000F9D0204670BD000000100140FFF7E6FD73
:10080000FFF704FD0120FFF731FE012826D017A0D5
:10081000FFF7BAFF4FF48065184F6E00BC1E4FF40F
:1008200080586FF07F493D802680A4F800804846BC
:10083000FFF738FD25803E80A4F800804846FFF78A
:1008400031FD0120FFF71CFEFFF700FE258026800A
:10085000A7F800804846FFF725FDE4E708A0FFF76A
:1008600093FF0120FFF7E2FDD4E70000B8B4CEBB50
:10087000B0B4BCFCB8B4CEBB000000001A1C0240EF
:100880007761757020D2FDBDC5B8B4CEBB00000045
:10089000B0080008000000201400000098070008BD
:1008A000C40800081400002004040000A807000881
:1008B0000000000001020304010203040607080906
:0408C0000000000034
:04000005080001AD41
:00000001FF
