:020000040800F2
:1000000008990120C1010008130B0008A509000888
:10001000110B0008530200088D23000800000000A7
:10002000000000000000000000000000C1200008E7
:10003000CD06000800000000B90B00089921000857
:10004000DB010008DB010008DB010008DB01000820
:10005000DB010008DB010008DB010008DB01000810
:10006000DB010008DB010008DB010008DB01000800
:10007000DB010008DB010008DB010008DB010008F0
:10008000DB010008DB010008DB010008DB010008E0
:10009000DB010008DB010008DB010008DB010008D0
:1000A000DB010008DB010008DB010008DB010008C0
:1000B000DB010008DB010008DB010008DB010008B0
:1000C000DB010008DB010008DB010008DB010008A0
:1000D000DB010008F9210008DB010008DB01000852
:1000E000DB010008DB010008DB010008DB01000880
:1000F000DB010008DB010008DB010008DB01000870
:10010000DB010008C10E0008DB010008DB0100086C
:10011000DB010008DB010008DB010008DB0100084F
:10012000DB010008DB010008DB010008B90400085E
:10013000DB010008DB010008DB010008DB0100082F
:10014000DB010008DB010008DB010008DB0100081F
:10015000DB010008DB010008DB010008DB0100080F
:10016000DB010008DB010008DB010008DB010008FF
:10017000DB010008DB010008DB010008DB010008EF
:10018000DB010008DB010008DB010008DB010008DF
:10019000DB010008DB010008DB010008DB010008CF
:1001A000DB010008DB010008DB010008DFF80CD0F0
:1001B00000F02EF800480047A52500080899012006
:1001C0000648804706480047FEE7FEE7FEE7FEE7F1
:1001D000FEE7FEE7FEE7FEE7FEE7FEE79D210008FB
:1001E000AD01000830B50B46014600202022012455
:1001F00009E021FA02F59D4205D303FA02F5491BF5
:1002000004FA02F52844151EA2F10102F1DC30BD0A
:10021000064C074D06E0E06840F0010394E8070053
:1002200098471034AC42F6D3FFF7C4FFCC25000842
:10023000EC25000810B507E003780C78A34201D044
:10024000002010BD401C491C521E531CF4D101203B
:1002500010BDFEE770B500254FF4803400E0641E49
:1002600024B1802000F006FE0028F8D02CB140F226
:10027000FF5000F0BDFD284670BD032070BD00009A
:1002800070B5054600243B49086800E0086810F096
:10029000450FFBD0410705D50324042000F0A8FD3D
:1002A000204670BDC00705D00124012000F0A0FD4C
:1002B000204670BD00F0D8FDA84201D0102070BDCE
:1002C00040F2FF5000F094FD002000F0EFFD2A49BD
:1002D000084201D1204670BD002801DA1C2070BD03
:1002E000410001D5092070BD810001D50A2070BDF3
:1002F000C10001D50B2070BD010101D50C2070BDDE
:10030000410101D50D2070BDC10101D50E2070BD88
:10031000010201D50F2070BD410201D5102070BD32
:10032000810201D5112070BDC10201D5122070BD1E
:10033000010301D5132070BD410301D5142070BD08
:10034000810301D5152070BDC10301D5162070BDF4
:10035000010401D5172070BD410401D5182070BDDE
:10036000810401D5192070BD000701D51A2070BD88
:10037000204670BD342C014008E0FFFD10B500247C
:100380000E4A116800E0116811F0450FFBD04807D4
:1003900005D50324042000F02BFD204610BDC8071E
:1003A00005D00124012000F023FD204610BD40F2BD
:1003B000FF5000F01DFD204610BD0000342C014010
:1003C00010B500240A4A116800E0116811F0450FC9
:1003D000FBD0480705D50324042000F009FD204682
:1003E00010BD40F2FF5000F003FD204610BD00009C
:1003F000342C014070B506460C4600251C4A106896
:1004000000E0106810F0450FFBD0410705D503242C
:10041000042000F0EDFC204670BDC00705D001248B
:10042000012000F0E5FC204670BD00F01DFDB0424B
:1004300001D0102070BD40F2FF5000F0D9FC002028
:1004400000F034FD10F4604F03D0810405D5132073
:1004500070BD000C2080284670BD410401D51020DD
:1004600070BD000401D50F2070BD284670BD00008E
:10047000342C014010B500204FF480310D4B1A6828
:1004800001E0491E1A6812F0450F01D10029F8D188
:1004900009B1510705D50324042000F0A9FC20462A
:1004A00010BD5106FCD50024402000F0A1FC2046E0
:1004B00010BD0000342C014001F0BCBA074A904244
:1004C00001D2074801E005481038064A8B0001EACE
:1004D000020101D5C160704781607047106402401D
:1004E000006002407D0F7D0F002904D0016841F0BB
:1004F000010101607047016821F00101016070474E
:100500002DE9F043016821F0010101600021016043
:1005100041608160C1600161212141613E493E4AE3
:1005200010394FF03D08904203D1C1F80880BDE872
:10053000F083394A4FF474651832904201D18D60CE
:10054000F5E7354A4FF474163032904201D18E608F
:10055000EDE7314A4FF074674832904201D18F6025
:10056000E5E72D4B2D4A6033984201D1CA60DEE7A2
:10057000294C2B4B7834A04201D1CB60D7E7DFF870
:1005800098C0284C0CF1900C604501D1CC60CEE7AE
:10059000DFF884904FF03D5C09F1A809484502D18D
:1005A000C1F80CC0C3E72049DFF87C900839484502
:1005B00002D1C1F80080BAE7DFF86C8008F11808B2
:1005C000404501D10D60B2E7174D3035A84201D149
:1005D0000E60ACE7144D4835A84201D10F60A6E784
:1005E000114D11496035091FA84201D10A609EE7EB
:1005F0000D4A7832904201D10B6098E70A4A903256
:10060000904201D10C6092E7074AA83290428ED105
:10061000C1F800C08BE70000106002403D000020E0
:10062000400F002000003D2010640240002904D04B
:10063000016841F0200101607047016821F020014C
:10064000016070470B0609D522B1436943F080036E
:10065000436103E0436923F080034361802905D0AF
:1006600001F01E011AB102680A4302607047026875
:100670008A4302607047000030B50368124A134095
:10068000CC680A682243D1E905452C432243CC6952
:1006900022430C6A22434C6A22438C6A22434C6BED
:1006A00022438C6B22431A430260426922F0070303
:1006B000D1E90B2422431A4342610A6942604A6825
:1006C00082608968C16030BD3F801CF070470000C7
:1006D00070B586B00121084600F070FA01211020A3
:1006E00000F07AFA00248DF8164001208DF81700EA
:1006F00002258DF815508DF81450400204901C4EC0
:1007000004A9304600F0FEF88DF8145069020491F7
:1007100004A9304600F0F6F807220A21304600F01E
:100720002FF907220921304600F02AF94FF4E13071
:100730000090ADF80440ADF80640ADF80840ADF8C3
:100740000C400C20ADF80A000A4C6946204601F026
:10075000B7FD00F0DFF9012240F22551204601F0FB
:1007600094FD0121204601F05DFD06B070BD000042
:10077000000002400010014010B5002303E09C1867
:10078000C4545B1C9BB28B42F9D310BD2DE9FC47CE
:100790000E460024002700970197574D4FF0080A96
:1007A000C5F800A0102068604FF04009C5F8089017
:1007B000EF604FF48068C5F81080284600F0C8FB51
:1007C0001020FFF75DFD002832D14C48008900045D
:1007D000286037206860C5F80890EF60C5F8108081
:1007E000284600F0B5FB3720FFF74AFD00281FD14F
:1007F000411E05F114000160C0F804A030218160A1
:100800000221C16007610121416100F009FB2F60F5
:1008100033206860C5F80890EF60C5F8108028465E
:1008200000F096FB3320FFF72BFD0546280001D092
:10083000BDE8FC874FF4001A6F46DFF8C48040F231
:100840002A6908E0504600F015FB20B100F07AFB61
:1008500047F82400641CD8F8000010EA090FF1D012
:10086000082000F007FB20B1082000F0C1FA0420A6
:10087000DEE7022000F0FEFA20B1022000F0B8FA14
:100880000220D5E7202000F0F5FA20B1202000F06A
:10089000AFFA0620CCE74FF40074204600F0EAFAE5
:1008A00020B1204600F0A4FA0720C1E740F2FF5033
:1008B00000F09EFA00980099000601F47F4140EA9A
:1008C0000120009901F47F0140EA1120009940EADB
:1008D0001160706001980199000601F47F4140EABF
:1008E0000120019901F47F0140EA1120019940EAB9
:1008F0001160306028469BE7D800002010000020DF
:10090000342C01402DE9F041002201274FF0030C67
:1009100007FA02F50B682B40AB422CD10668530056
:100920000CFA03F4A64306600E79D0F800809E40CE
:1009300046EA080606600E79012E01D0022E12D179
:100940008668A64386604E79D0F808809E4046EAC5
:10095000080686604668AE43466045688E799640D4
:10096000B6B235434560C568A543C560CC799C40A7
:10097000C3681C43C460521C102AC9D3BDE8F0816F
:1009800010B54B07DB0E9A40C90800EB8100016AE5
:100990000F249C40A1430162016A1143016210BD12
:1009A00041837047FEE700007CB504460025002225
:1009B00001920092524853490089000408600D20BA
:1009C000486040208860CA6000010861084600F065
:1009D000BFFA4D490868009001E00A680092009A49
:1009E00012F0450FF9D00098400705D503240420E4
:1009F00000F0FEF920467CBD0098C00705D0012418
:100A0000012000F0F5F920467CBD00F02DFA0090A1
:100A100000980D2801D010207CBD40F2FF5000F05E
:100A2000E7F9002000F042FA01900198C0F343205A
:100A3000207036490198084201D128467CBD0198B2
:100A4000002801DA1C207CBD0198400001D5092056
:100A50007CBD0198800001D50A207CBD0198C000B2
:100A600001D50B207CBD0198000101D50C207CBD77
:100A70000198400101D50D207CBD0198C00101D530
:100A80000E207CBD0198000201D50F207CBD01988D
:100A9000400201D510207CBD0198800201D51120B3
:100AA0007CBD0198C00201D512207CBD01980003D5
:100AB00001D513207CBD0198400301D514207CBDD5
:100AC0000198800301D515207CBD0198C00301D594
:100AD00016207CBD0198000401D517207CBD01982B
:100AE000400401D518207CBD0198800401D519204F
:100AF0007CBD0198000701D51A207CBD28467CBD2D
:100B000010000020D8000020342C014008E0FFFD38
:100B1000FEE7704708B54FF4A06000F043F82520C9
:100B20008DF8000001208DF801008DF802008DF88D
:100B30000300684600F002F808BD000030B50F233E
:100B4000C27801250178002A1FD0154A126802F4E4
:100B5000E062C2F5E062C2F30722C2F10404D340AE
:100B60004278A24084781C401443220101F1E02124
:100B700081F80024007800F01F018D4040098000BA
:100B800000F1E020C0F8005130BD01F01F008540A9
:100B90004809800000F1E020C0F8805130BD00001D
:100BA0000CED00E00249084302490860704700006C
:100BB0000000FA050CED00E070470000054A00292E
:100BC00003D01168014311607047116881431160BF
:100BD0007047000030380240054A002903D01168F0
:100BE0000143116070471168814311607047000034
:100BF00044380240054A002903D0116801431160BE
:100C0000704711688143116070470000243802402A
:100C100070B5244B196801F00C01234C00291ED03B
:100C2000224E04291DD008291DD00460196801F046
:100C3000F00109091E4A545C0168E14041601C68EA
:100C400004F4E054A40A145D21FA04F484601B68DF
:100C500003F460435B0BD25CD140C16070BD0460A3
:100C6000E4E70660E2E70F4A121F1168C1F38055FE
:100C7000116801F03F0135B1B6FBF1F11468C4F31E
:100C80008814614305E0B4FBF1F11468C4F38814DF
:100C900061431268C2F30142521C5200B1FBF2F1EF
:100CA0000160C3E7083802400024F40040787D0169
:100CB000000000202DE9F04101F06AFB00F026F968
:100CC00000F0E2FB114CE07001260225032711E041
:100CD000606820B1012806D002280BD107E000F09F
:100CE00029FA666006E001F00DF8656002E000F0A8
:100CF00073FD6760E078002806D16068032803D0A0
:100D000000F040F90128E3D0BDE8F0812800002080
:100D10002DE9FC470646002400940194002000F0D1
:100D2000C5F8800102D50E20BDE8FC872E4D69462E
:100D3000288980B2FFF72AFD0028F5D137202B4FF4
:100D40004FF0060A4FF040094FF48068012E22D080
:100D50000199C90345D52989090439607860C7F824
:100D60000890FC60C7F81080384600F0F1F8372092
:100D7000FFF786FA0028D7D13C60C7F804A0C7F86F
:100D80000890FC60C7F81080384600F0E1F80620B3
:100D9000FFF776FAC8E70199490320D529890904A4
:100DA00039607860C7F80890FC60C7F810800F4879
:100DB00000F0CEF83720FFF763FA0028B4D1022004
:100DC0003860C7F804A0C7F80890FC60C7F8108026
:100DD000064800F0BDF80620FFF752FAA4E72520E8
:100DE000A2E72520A0E7000010000020D800002086
:100DF0000149086070470000382C01400149086033
:100E000070470000382C014001490860704700001D
:100E1000A080254201490860704700008C8525426A
:100E200010B50A4A01681160121D41681160141D55
:100E3000216821F0F701D0E902231A43D0E90430F8
:100E400003431A430A43226010BD0000242C0140D2
:100E500010B50121CC022046FFF7CCFE2046BDE8AC
:100E600010400021FFF7C6BE01480068C0B27047BD
:100E7000102C014001460020024A12680A4200D0AC
:100E800001207047342C014001460020024A1268BC
:100E90000A4200D001207047342C0140024800680B
:100EA00000F0030070470000002C014008B5034922
:100EB000084400900098006808BD0000142C014010
:100EC00000F0CCBD054A002903D011680143116030
:100ED0007047116881431160704700003C2C01404D
:100EE00030B5094B196847F6FF629143027D84686B
:100EF000C568224344682C432243046800692243A6
:100F000002430A431A6030BD042C014038B54FF447
:100F1000C060FFF747FE31208DF8000000208DF8FB
:100F200001008DF8020001248DF803406846FFF7A8
:100F300005FE3B208DF800008DF801406846FFF764
:100F4000FDFD38BD0148006870470000802C01405D
:100F500010B5084A01681160141D21686FF30A0179
:100F6000D0E901231A43D0E9033003431A430A436B
:100F7000226010BD082C0140014908607047000044
:100F8000002C014008B5012000909DF8000008BD2C
:100F90002DE9F041014600241C484068032805D093
:100FA00038B1012805D0022803D02DE02720BDE864
:100FB000F081B1F5805F0CD04FF400670026144D2E
:100FC000B94212D10120FFF7A3FE0446200002D04F
:100FD0001AE02720EBE72E752E606E60AE60EF60A2
:100FE0002E610B48FFF77CFF0EE00020FFF790FE1C
:100FF0000446200008D12E752E606E60AE60EE6053
:101000002E610348FFF76CFF2046D0E71000002058
:10101000C00000202DE9FC4704460D4616461F4639
:101020004FF00008C146CDF80490CDF800903D483F
:101030004068000D800602D42520BDE8FC873A48B0
:1010400000683A49C0B2801CB1FBF0F0019000206A
:10105000FFF72CFF800101D50E20EEE734484068F1
:10106000022805D1640A44EAC554760A46EAC756FE
:101070002C4D4FF4806AA035402718B1012801D0CB
:10108000022821D12C6020206860AF60C5F80C9048
:10109000C5F810A02348A030FFF75AFF2020FFF723
:1010A000EFF80028C9D12E6021206860AF60C5F834
:1010B0000C90C5F810A01B48A030FFF749FF212075
:1010C000FFF7DEF80028B8D1C5F800902620686048
:1010D000AF60C5F80C90C5F810A01248A030FFF71B
:1010E00037FF2620FFF7CCF80028A6D101E008F151
:1010F000010801988045FAD36846FFF755FC4FF088
:10110000FF3403E06846FFF74FFC641E002C94D0C8
:10111000002892D19DF800100729F3D00629F1D0BC
:101120008BE7000038000020042C0140C0D40100EF
:10113000100000207CB51A4C4FF44845E078002898
:1011400006D100232A4618461946FFF763FFE070D0
:10115000E07888B964204FF40071CDE900100022D6
:101160001346104800F026FDE07000F04FFEE070DE
:1011700000F07DF90028FBD1E07820B92946094824
:1011800001F0F0F920702078012804D0BDE87C40FF
:1011900005A001F01DB9BDE87C400AA001F018B916
:1011A0002800002004CD00200D0A204472617365E0
:1011B000537461747573204E4F54205041535345FE
:1011C000440D0A000D0A2044726173655374617402
:1011D0007573205041535345440D0A002DE9F043E7
:1011E00097494F6880F856700989A0F85410DFF8C5
:1011F00054C2DCF800100A0E93090370C2F3830393
:10120000437002F0030282700A0CC2700A0A027173
:101210004171DCF80420110E0901C180C2F30741BD
:10122000C38843EA1113C38001F00F010172C2F3B6
:101230000721CB094372C1F380138372C1F34013BA
:10124000C372C1F300130373002343736446012682
:10125000D4F80880002F4FEA1864C8F30745C8F394
:10126000072904D0012F02D0022F3AD051E089077C
:10127000090D0161D1B2026942EA8101016101698E
:1012800041EA94110161C4F3C201017504F0070140
:10129000417569098175C5F38201C175A907490FB7
:1012A00001764946027E42EAD11202760269521C58
:1012B000047EA41C06FA04F9A2FB094703FB097784
:1012C0004FEAE97502FB0575027A06FA02F707652F
:1012D000A4FB072905FB079504FB0354C0E912246E
:1012E00017E09106890A0161016941EA042101615F
:1012F00001692943016149460269521C43F1000416
:10130000E40444EA5234D204C0E912244FF40072D7
:1013100002651C30C1F3801200F8032C8906490EC7
:1013200000F8021C08F0FF0110F8022C42EAD1126A
:1013300000F8022C01F07F0100F8011CDCF80C2001
:10134000110ECC090470C1F341144470C1F382043E
:1013500084708907090FC170C2F30741C47844EA59
:101360009114C470C1F340140471437101F0010180
:101370008171C2F30721CC09C471C1F380140472D6
:10138000C1F340144472C1F300148472C1F38104A8
:10139000C47201F003010173D1B24908417386732D
:1013A000284A103211680C0E04740C0C240244827A
:1013B000C1F30724458A25434582090641615168E6
:1013C0000C0E456945EA04444461C1F3074445698C
:1013D00045EA04244461C1F3072445692543456176
:1013E000017691680C0E44760C0C2406C461C1F39E
:1013F0000724C56945EA0444C461C9B2C46944EA22
:101400000121C161D1680A0EC4691443C461C1F3EA
:10141000074290F8204044EA121480F82040120756
:10142000120D4284C1F30722448C14434484C9B290
:10143000490880F8241080F825601846BDE8F0833C
:10144000100000203800002008B500200090FFF7B1
:1014500099FD012801D0FF2008BD684600F02AFC54
:1014600008B1FF2008BD0098C0F3432008BD10B5A7
:10147000FFF7EAFF042803D0FF2803D0012010BDA6
:10148000002010BD022010BD38B50024009400F0EB
:1014900051F9FFF7DDFC00F00BFA00909DF8000019
:1014A00010B19DF8000038BD00F02EF800909DF8B6
:1014B000000010B19DF8000038BD124804750460AA
:1014C00044608460C4600461FFF70AFD0D48583829
:1014D000FFF784FE00909DF8000040B90948002104
:1014E0005838B0F85400000400F0CEFB00909DF88E
:1014F000000020B94FF40060FFF74AFD00909DF80E
:10150000000038BDC00000202DE9F84F0024012064
:101510000090FFF7C3FCE0B1DFF8FC8000263F4DF0
:10152000D8F804004FF0C0094FF4806704282AD08F
:101530002E6002206860C5F80890EE602F61284692
:10154000FFF706FDFEF71AFF0446200003D0BDE8B2
:10155000F88F2520FBE70020FFF7A8FCDFF8BCA0F0
:10156000AAF1900ACAF800000420FFF79FFCCAF80D
:1015700004000820FFF79AFCCAF808000C20FFF7C7
:1015800095FCCAF80C00D8F8040028B1012803D053
:10159000062801D0022811D12E6003206860402067
:1015A000A860EE602F611D48FFF7D2FC694603205A
:1015B000FEF720FF0446200000D0C8E7D8F804005A
:1015C000042826D0BDF80000C8F8080000042860F0
:1015D00009206860C5F80890EE602F610F48FFF79A
:1015E000B7FCFEF7CBFE0446200000D0AFE700209A
:1015F000FFF75CFC094DA03D28600420FFF756FC76
:1016000068600820FFF752FCA8600C20FFF74EFC32
:10161000E86020469BE7000010000020D800002072
:1016200030B58FB004461E4D4FF0FA512846FEF7F4
:1016300045FF00212846FEF757FF2846FEF760FFCA
:101640004FF0006000901748019002940020039032
:101650000121049105908902069189000791890072
:10166000089109904FF440300A9004200B90032019
:101670000C9048020D9080100E9069462846FEF7A7
:10168000FBFF012210212846FEF7DCFF202128461F
:10169000FEF7CCFF01212846FEF726FF0FB030BD34
:1016A00058640240802C014030B58FB004461F4D75
:1016B0004FF0FA512846FEF701FF00212846FEF7B9
:1016C00013FF2846FEF71CFF4FF0006000901848FB
:1016D0000190029440200390012004900020059086
:1016E00029150691890007918900089109904FF406
:1016F00040300A9004200B9003200C9048020D907B
:1017000080100E9069462846FEF7B6FF0122102190
:101710002846FEF797FF20212846FEF787FF012184
:101720002846FEF7E1FE0FB030BD000058640240CD
:10173000802C01407CB501210C20FFF73FFA244D9D
:101740000C2208212846FFF71BF90C220921284604
:10175000FFF716F90C220A212846FFF711F90C228F
:101760000B212846FFF70CF90C2211462846FFF7FB
:1017700007F9184E0C2202213046FFF701F94FF409
:101780007060009002218DF805108DF8041000247F
:101790008DF8064001218DF8071069462846FFF7AD
:1017A000B1F80421009169463046FFF7ABF8A81460
:1017B00000908DF8074069462846FFF7A3F80121FD
:1017C000C802FFF709FA01218805FFF7F7F97CBD88
:1017D00000080240000C02402DE9FC414FF448454E
:1017E000002229461E48FEF7C7FF1E4C64264FF410
:1017F0000077E07870B9CDE90076002213461848EA
:1018000000F0CEFBE07000F035FBE070FFF72FFE3C
:101810000028FBD1E07870B9CDE9007600221346AC
:10182000114800F0C7F9E07000F0F0FAE070FFF73F
:101830001EFE0028FBD1E07828B92A460A4908484C
:10184000FEF7F8FCA070A078012804D0BDE8FC41A8
:1018500006A000F0BDBDBDE8FC410DA000F0B8BD84
:10186000040500202800002004CD00200D0A20538C
:10187000445F4D756C7469426C6F636B546573742F
:10188000204E4F54205041535345440D0A00000050
:101890000D0A2053445F4D756C7469426C6F636B25
:1018A00054657374205041535345440D0A000000A1
:1018B0002DE9F84F00270097BB460024A2460025DB
:1018C000594876210175076047608760C7600761E6
:1018D000FFF706FB0320FFF74FFB0120FFF794FA09
:1018E000514E183637607760B760F7604FF4806903
:1018F000C6F810903046FFF72BFBFEF7ABFC0090CC
:101900009DF8000018B19DF80000BDE8F88F4FF475
:10191000D5703060082070604FF04008C6F808802D
:10192000F760C6F8109040481830FFF711FBFEF73B
:10193000A1FD00909DF8000018B33760372070605B
:10194000C6F80880F760C6F8109037481830FFF7DF
:10195000FFFA3720FEF794FC009037603720706064
:10196000C6F80880F760C6F810902F481830FFF7C7
:10197000EFFA3720FEF784FC00909DF8000090B34A
:101980004FE02A48012141608D07E6E737603720A4
:101990007060C6F80880F760C6F8109022481830CA
:1019A000FFF7D6FA3720FEF76BFC00909DF8000099
:1019B00010B19DF80000A8E71D4828433060292099
:1019C0007060C6F80880F760C6F8109016481830A6
:1019D000FFF7BEFAFEF7F4FC00909DF8000018B186
:1019E0009DF8000091E706E00020FFF75FFA8346CC
:1019F0004FEADB7A641CBAF1000F03D14FF6FF7097
:101A00008442C3D34FF6FF70844204D31B2000905E
:101A10009DF8000079E71BF0804F02D003480221B7
:101A200041609DF8000070E7C00000201000002019
:101A3000000010800748006810F0C05F08D0064919
:101A40000120486103484FF0C2515830FEF736BDBF
:101A500070470000006402401000002070B54FF491
:101A600080752846FFF710FA214C38B1002020700D
:101A70002846FFF7C3F90120206132E00220FFF77A
:101A800003FA28B10220FFF7B9F90220207028E0FC
:101A90000820FFF7F9F928B10820FFF7AFF9042073
:101AA00020701EE02020FFF7EFF928B12020FFF77B
:101AB000A5F90620207014E01020FFF7E5F928B101
:101AC0001020FFF79BF9052020700AE04FF4007505
:101AD0002846FFF7D9F920B12846FFF78FF90720EC
:101AE000207000214CF23A30FFF7ECF9207870BDFD
:101AF000100000202DE9F0478146089E14461D463F
:101B0000DFF8A480002788F80070C8F81070C8F8C3
:101B10000C7026480760012140F22A30FFF7D2F905
:101B20000120FFF777F931464846FFF779FDD8F8ED
:101B30000400022803D10602640A44EAC5541C4D7D
:101B40002E60102068604FF04008C5F80880EF60F4
:101B50004FF48069C5F810902846FFF7F9F9102076
:101B6000FEF78EFB00281DD1411E05F11400016017
:101B70004660902181600221C160076101214161BD
:101B8000FFF74EF92C6011206860C5F80880EF60FF
:101B9000C5F810902846FFF7DBF9BDE8F0471120A3
:101BA000FEF76EBBBDE8F087100000202C2C014032
:101BB000D80000202DE9F05F8346DDE90A6714466E
:101BC0001D46DFF8B8A04FF000088AF80080CAF878
:101BD00010804FF00109CAF80C902948C0F8008025
:101BE000012140F22A30FFF76DF907FB06F1584654
:101BF000FFF716FD0120FFF70DF9DAF804000228BF
:101C000003D10602640A44EAC5541E4D2E6010201A
:101C100068604FF0400AC5F808A0C5F80C804FF482
:101C2000806BC5F810B02846FFF792F91020FEF738
:101C300027FB002820D1411E05F1140001607743E5
:101C40004760902181600221C160C0F81080C0F817
:101C50001490FFF7E5F82C6012206860C5F808A022
:101C6000C5F80C80C5F810B02846FFF771F9BDE83B
:101C7000F05F1220FEF704BBBDE8F09F10000020CB
:101C80002C2C0140D800002010B5094A1060072014
:101C90005060402090600020D0604FF48060106160
:101CA0001046FFF755F9BDE810400720FEF7E8BAE7
:101CB000D800002070B50546002D16D00F480089C9
:101CC00001040F4801600D21416040218160002125
:101CD000C1604FF480610161FFF73AF90D20FEF712
:101CE000CFFA04461CB1204670BD262070BD0020EE
:101CF000FFF7DCF82860204670BD000010000020CF
:101D0000D800002038B54FF4007543F20F22294661
:101D10001C48FEF731FD1C4CE07868B900221346E0
:101D20001848009500F0DAF8E07000F0A3F8E070D1
:101D3000FFF79DFB0028FBD1E07868B9002213462D
:101D400012480095FFF7D6FEE07000F05FF8E070F3
:101D5000FFF78DFB0028FBD1E07828B92A460B4914
:101D60000848FEF767FA60706078012805D0E178CE
:101D7000BDE8384006A000F02BBBBDE8384011A0FC
:101D800000F026BB040100202800002004030020EE
:101D90000D0A2053445F53696E676C65426C6F6334
:101DA0006B54657374204E4F542050415353454437
:101DB0002020537461747573203D202564200D0A22
:101DC000000000000D0A2053445F53696E676C6584
:101DD000426C6F636B546573742050415353454498
:101DE0000D0A000010B50848002101600C22426075
:101DF00040228260C16011010161FFF7A9F8BDE8CE
:101E000010400C20FEF73CBAD80000202DE9F0412C
:101E100000256C1E2146154E00E0491E706928B948
:101E2000306918B9307808B90029F6D100277761F0
:101E30000F4800E0641E0168890401D5002CF9D127
:101E4000F068012803D1FFF7CDFF0546F7602C436A
:101E500000D1042540F2FF50FEF7CAFF307810B1E0
:101E60003078BDE8F0812846FBE700001000002034
:101E7000342C01402DE9F04100256C1E2146154E01
:101E800000E0491E706928B9306918B9307808B97E
:101E90000029F6D1002777610F4800E0641E016831
:101EA000C90401D5002CF9D1F068012803D1FFF74E
:101EB00099FF0546F7602C4300D1042540F2FF50FE
:101EC000FEF796FF307810B13078BDE8F0812846F3
:101ED000FBE7000010000020342C01402DE9F04702
:101EE0008146089E14461D46DFF8A880002788F822
:101EF0000070C8F81070C8F80C70274807600121FE
:101F000040F22A30FEF7DEFF31464846FFF7CCFBB1
:101F10000120FEF77FFFD8F80400022803D1060253
:101F2000640A44EAC5541D4D2E60102068604FF0CD
:101F30004008C5F80880EF604FF48069C5F810903C
:101F40002846FFF705F81020FEF79AF900281ED161
:101F50002C6018206860C5F80880EF60C5F8109004
:101F60002846FEF7F5FF1820FEF78AF900280ED163
:101F700005F11402401E1060566090209060D760FA
:101F80001761012050611046FEF74AFF3846BDE850
:101F9000F0870000100000202C2C0140D800002009
:101FA0002DE9F05F8246DDE90A6714461D46DFF839
:101FB00004914FF0000889F80080C9F810800120D2
:101FC000C9F80C003C48C0F80080012140F21A30EA
:101FD000FEF778FF07FB06F15046FFF765FB01208F
:101FE000FEF718FFD9F80400022803D10602640A9C
:101FF00044EAC554314D2E60102068604FF0400B0C
:10200000C5F808B0C5F80C804FF4806AC5F810A078
:102010002846FEF79DFF1020FEF732F9002847D131
:10202000B9F808000004286037206860C5F808B0D7
:10203000C5F80C80C5F810A02846FEF789FF3720A8
:10204000FEF71EF9002833D12F6017206860C5F80D
:1020500008B0C5F80C80C5F810A02846FEF778FF38
:102060001720FEF70DF9002822D12C601920686096
:10207000C5F808B0C5F80C80C5F810A02846FEF7D2
:1020800067FF1920FEF7FCF8002811D105F11402B2
:10209000401E10607743576090209060C2F80C801B
:1020A000C2F81080012050611046FEF7B9FE40468C
:1020B000BDE8F09F100000202C2C0140D80000202B
:1020C000704700001CB50021019100912E4A106854
:1020D00040F4803010604FF4A043106800F40030EA
:1020E00000900198401C0190009810B90198984206
:1020F000F3D11068800302D50120009000E0009128
:10210000009801283FD120484030016841F08051BB
:1021100001601E49086840F4404008601A480830D1
:1021200003680360036843F400430360036843F4F7
:10213000A0530360041F164B2360136843F08073A1
:10214000136013689B01FCD50A6842F480320A6070
:102150004A68D203FCD50A6842F400320A604A6831
:102160009203FCD50B4A40F205711160016821F021
:1021700003010160016841F0020101600168C1F3DF
:1021800081010229FAD11CBD0038024000700040D4
:10219000195A4007003C02407047000010B5124831
:1021A000016841F4700101601048016841F00101CB
:1021B00001600E4A00210832116002680C4B1A407F
:1021C0000260031D0B4A1A60026822F4802202603A
:1021D00006480C300160FFF775FF03494FF00060BF
:1021E0008039086010BD000088ED00E00038024032
:1021F000FFFFF6FE1030002410B5094C40F22551C7
:10220000204600F022F8002808D0204600F0B6F85A
:10221000C1B22046BDE8104000F0B4B810BD0000C7
:1022200000100140002904D0818941F400518181CE
:102230007047818921F40051818170470246002056
:1022400012880A4200D00120704770B5002440F681
:102250006A12C1F3421301F01F05012606FA05F2C6
:10226000012B0CD0022B0DD0838A1340090A8E401B
:10227000008830400BB100B10124204670BD838935
:102280001340F3E7038A1340F0E710B540F66A13F2
:10229000C1F3421301F01F040121A140012B07D01B
:1022A000022B07D014303AB102680A43026010BD15
:1022B0000C30F8E71030F6E702688A43026010BD80
:1022C0007FB504460D46208A20F44051E888084333
:1022D0002082A08941F20C618843A9882A89114390
:1022E0006A8902431143A181A08A20F44071A88920
:1022F0000843A0826846FEF78BFC1E48844202D049
:102300001D48844201D1039800E00298A189090484
:1023100008D500EBC00101EB001029684900B0FBB3
:10232000F1F007E000EBC00101EB00102968890023
:10233000B0FBF1F06422B0FBF2F109010B096FF080
:1023400018056B4300EB8300A3891D044FF0320393
:1023500007D503EBC000B0FBF2F000F00700084324
:1023600006E003EB0010B0FBF2F000F00F000843B2
:1023700020817FBD00100140001401408088C0F31F
:1023800008007047C1F3080181807047FEE7000034
:102390007CB501214020FEF711FC4FF4007400943D
:1023A00000208DF8060002208DF807008DF805004A
:1023B00001208DF80400054D69462846FEF7A2FA73
:1023C00021462846FEF7ECFA7CBD000000180240CA
:1023D0000FB4054B10B503A9044A029800F018F891
:1023E00010BC5DF814FB00008125000830000020BF
:1023F00002E008C8121F08C1002AFAD170477047CE
:10240000002001E001C1121F002AFBD1704700002B
:102410002DE9FF4F89B09B460446002506E025289C
:102420000BD05A460B999047641C6D1C20780028ED
:10243000F5D10DB02846BDE8F08F0027B84601223F
:10244000474900E0074314F8013F203B02FA03F03C
:102450000842F7D120782E2819D114F8010F47F03F
:1024600004072A280ED06FF02F022078A0F1300147
:1024700009290CD808EB880102EB410100EB0108A7
:10248000641CF2E70A98641C50F8048B0A902078C8
:102490000028CED0642808D0692806D075281ED020
:1024A0005A460B9990476D1C58E00A994FF00A095B
:1024B00001C90A91002802DA40422D2102E03905C3
:1024C00004D52B218DF82010012103E0F90704D059
:1024D0002021F7E78A4608AE0DE00021FAE70A99C5
:1024E0004FF00A0901C90A91F7E74946FDF77AFE5C
:1024F000303106F8011D0028F7D1ADEB060000F1E0
:102500002009780701D44FF00108C84502DDA8EB87
:10251000090000E000208046002706E008A85A468F
:10252000C05D0B9990476D1C7F1C5745F6DB04E09E
:1025300030205A460B9990476D1CB8F10001A8F164
:102540000108F5DC05E016F8010B5A460B99904797
:102550006D1CB9F10001A9F10109F4DC641C65E707
:102560000928010006E00278FF2A02D00AB1002003
:102570007047401C491E4A1CF5D1012070470000DD
:1025800070B50446064DE1B22846FFF7FBFE8021F8
:102590002846FFF753FE0028F9D0204670BD000002
:1025A00000100140FEF794F802A0FFF711FFFEF7BC
:1025B00081FBFEE7D5E2CAC7D2BBB8F65344BFA839
:1025C000B2E2CAD4CAB5D1E90A000000EC2500087D
:1025D0000000002034000000F0230008202600083E
:1025E00034000020D49801000024000800000000FE
:1025F00001020304010203040607080900000000A9
:1026000000000000000000000000000000000000CA
:1026100000000000000000000000000000000000BA
:04000005080001AD41
:00000001FF
