:020000040800F2
:1000000080040020C1010008C5050008990400080B
:100010001105000827020008110700080000000071
:10002000000000000000000000000000E5050008DE
:100030000504000800000000C7050008BD06000810
:10004000DB010008DB010008DB010008DB01000820
:10005000DB010008DB010008DB010008DB01000810
:10006000DB010008DB010008DB010008DB01000800
:10007000DB010008DB010008DB010008DB010008F0
:10008000DB010008DB010008DB010008DB010008E0
:10009000DB010008DB010008DB010008DB010008D0
:1000A000DB010008DB010008DB010008DB010008C0
:1000B000DB010008DB010008DB010008DB010008B0
:1000C000DB010008DB010008DB010008DB010008A0
:1000D000DB010008DB010008DB010008DB01000890
:1000E000DB010008DB010008DB010008DB01000880
:1000F000DB010008DB010008DB010008DB01000870
:10010000DB010008DB010008DB010008DB0100085F
:10011000DB010008DB010008DB010008DB0100084F
:10012000DB010008DB010008DB010008DB0100083F
:10013000DB010008DB010008DB010008DB0100082F
:10014000DB010008DB010008DB010008DB0100081F
:10015000DB010008DB010008DB010008DB0100080F
:10016000DB010008DB010008DB010008DB010008FF
:10017000DB010008DB010008DB010008DB010008EF
:10018000DB010008DB010008DB010008DB010008DF
:10019000DB010008DB010008DB010008DB010008CF
:1001A000DB010008DB010008DB010008DFF80CD0F0
:1001B00000F018F8004800473107000880040020CC
:1001C0000648804706480047FEE7FEE7FEE7FEE7F1
:1001D000FEE7FEE7FEE7FEE7FEE7FEE7C1060008F2
:1001E000AD010008064C074D06E0E06840F0010351
:1001F00094E8070098471034AC42F6D3FFF7DAFFD3
:10020000200800083008000810B507E003680C68F3
:10021000A34201D0002010BD001D091D521E92B244
:10022000F4D2012010BDFEE7002904D0016841F09E
:10023000010101607047016821F001010160704710
:100240002DE9F043016821F0010101600021016006
:1002500041608160C1600161212141613E493E4AA6
:1002600010394FF03D08904203D1C1F80880BDE835
:10027000F083394A4FF474651832904201D18D6091
:10028000F5E7354A4FF474163032904201D18E6052
:10029000EDE7314A4FF074674832904201D18F60E8
:1002A000E5E72D4B2D4A6033984201D1CA60DEE765
:1002B000294C2B4B7834A04201D1CB60D7E7DFF833
:1002C00098C0284C0CF1900C604501D1CC60CEE771
:1002D000DFF884904FF03D5C09F1A809484502D150
:1002E000C1F80CC0C3E72049DFF87C9008394845C5
:1002F00002D1C1F80080BAE7DFF86C8008F1180875
:10030000404501D10D60B2E7174D3035A84201D10B
:100310000E60ACE7144D4835A84201D10F60A6E746
:10032000114D11496035091FA84201D10A609EE7AD
:100330000D4A7832904201D10B6098E70A4A903218
:10034000904201D10C6092E7074AA83290428ED1C8
:10035000C1F800C08BE70000106002403D000020A3
:10036000400F002000003D201064024001460020A4
:100370000968C90700D0012070470000024600202C
:10038000084B9A4201D2084A01E0064A103A8B0013
:1003900001D5526800E01268044B1A400A4200D0AE
:1003A0000120704710640240006002407D0F7D0F05
:1003B00030B50368124A1340CC680A682243D1E979
:1003C00005452C432243CC6922430C6A22434C6AE4
:1003D00022438C6A22434C6B22438C6B22431A4388
:1003E0000260426922F00703D1E90B2422431A4339
:1003F00042610A6942604A6882608968C16030BDB2
:100400003F801CF0704701B502E00098401E00904C
:1004100000980028F9D108BD2DE9F04100220127FC
:100420004FF0030C07FA02F50B682B40AB422CD1BE
:10043000066853000CFA03F4A64306600E79D0F860
:1004400000809E4046EA080606600E79012E01D023
:10045000022E12D18668A64386604E79D0F80880B5
:100460009E4046EA080686604668AE434660456898
:100470008E799640B6B235434560C568A543C560E0
:10048000CC799C40C3681C43C460521C102AC9D359
:10049000BDE8F08141837047FEE700002DE9FC4193
:1004A0000121882000F090F84FF48065009501212B
:1004B0008DF8041000208DF806008DF807108DF8D7
:1004C0000500114F69463846FFF7A6FF6C000094FF
:1004D00069463846FFF7A0FF660000966946384631
:1004E000FFF79AFF0094094F69463846FFF794FFDB
:1004F000054918310D800C800E8021463846FFF7E3
:10050000C9FFBDE8FC810000001C0240000C024055
:10051000FEE70000F0B58FB00121880500F054F827
:10052000244F3846FFF78CFE3846FFF71FFF0028A0
:10053000FAD1009020490191204902918021039134
:1005400020210491090105914E000696CD000795E2
:10055000490108910990C9000A910B9003210C915F
:100560000D900E9069463846FFF722FF012138466C
:10057000FFF75AFE42F210743846FFF7F7FE0128E3
:1005800002D0641EA4B2F7D2002C11D10C4F6FF030
:100590007F44FA14B91E3E800A800D802046FFF782
:1005A00032FF0E800A800D802046FFF72CFFF2E715
:1005B0000FB0F0BD10640240A0070008000000204A
:1005C0001A1C024070477047054A002903D0116881
:1005D000014311607047116881431160704700004A
:1005E00030380240704700001CB500210191009195
:1005F0002E4A106840F4803010604FF4A043106819
:1006000000F4003000900198401C0190009810B94F
:1006100001989842F3D11068800302D50120009020
:1006200000E00091009801283FD120484030016847
:1006300041F0805101601E49086840F44040086064
:100640001A48083003680360036843F400430360FA
:10065000036843F4A0530360041F164B2360136820
:1006600043F08073136013689B01FCD50A6842F461
:1006700080320A604A68D203FCD50A6842F400322C
:100680000A604A689203FCD50B4A40F2057111607A
:10069000016821F003010160016841F0020101607D
:1006A0000168C1F381010229FAD11CBD0038024062
:1006B00000700040195A4007003C0240704700009B
:1006C00010B50F48016841F0010101600C4A00219A
:1006D0000832116002680B4B1A400260031D0A4A7F
:1006E0001A60026822F48022026005480C30016022
:1006F000FFF77AFF05494FF00060086010BD000069
:1007000000380240FFFFF6FE1030002408ED00E044
:10071000FEE702E008C8121F08C1002AFAD170479C
:100720007047002001E001C1121F002AFBD1704771
:10073000FFF7B4FE154D4FF480662E80EF14AC1E0B
:1007400027804FF48058A5F800806FF07F40FFF7B6
:100750005AFEFFF7DFFEDFF83890DFF838A0494691
:100760005046FFF70BFE0028F9D020220A490B481B
:10077000FFF74AFD20B126802780A5F80080FEE71C
:100780002E802780A4F80080F9E700001A1C0240A0
:10079000200000101064024000000020A0070008A4
:1007A00004030201080706050C0B0A09100F0E0DC1
:1007B00014131211181716151C1B1A19201F1E1DB1
:1007C00024232221282726252C2B2A29302F2E2DA1
:1007D00034333231383736353C3B3A39403F3E3D91
:1007E00044434241484746454C4B4A49504F4E4D81
:1007F00054535251585756555C5B5A59605F5E5D71
:1008000064636261686766656C6B6A69706F6E6D60
:1008100074737271787776757C7B7A79807F7E7D50
:1008200030080008000000208004000022070008B3
:04000005080001AD41
:00000001FF
