:020000040800F2
:1000000000040020C1010008C9030008890300089A
:10001000C503000809020008C1060008000000002E
:100020000000000000000000000000003105000892
:100030000D02000800000000CB0300085506000870
:10004000DB010008DB010008DB010008DB01000820
:10005000DB010008DB010008DB010008DB01000810
:10006000DB010008DB010008DB010008DB01000800
:10007000DB010008DB010008DB010008DB010008F0
:10008000DB010008DB010008DB010008DB010008E0
:10009000DB010008DB010008DB010008DB010008D0
:1000A000DB010008DB010008DB010008DB010008C0
:1000B000DB010008DB010008DB010008DB010008B0
:1000C000DB010008DB010008DB010008DB010008A0
:1000D000DB010008DB010008DB010008DB01000890
:1000E000DB010008DB010008DB010008DB01000880
:1000F000DB010008DB010008DB010008DB01000870
:10010000DB010008DB010008DB010008DB0100085F
:10011000DB010008DB010008DB010008DB0100084F
:10012000DB010008DB010008DB010008DB0100083F
:10013000DB010008DB010008DB010008DB0100082F
:10014000DB010008DB010008DB010008DB0100081F
:10015000DB010008DB010008DB010008DB0100080F
:10016000DB010008DB010008DB010008DB010008FF
:10017000DB010008DB010008DB010008DB010008EF
:10018000DB010008DB010008DB010008DB010008DF
:10019000DB010008DB010008DB010008DB010008CF
:1001A000DB010008DB010008DB010008DFF80CD0F0
:1001B00000F018F800480047E50600080004002099
:1001C0000648804706480047FEE7FEE7FEE7FEE7F1
:1001D000FEE7FEE7FEE7FEE7FEE7FEE7590600085A
:1001E000AD010008064C074D06E0E06840F0010351
:1001F00094E8070098471034AC42F6D3FFF7DAFFD3
:100200002C0700083C07000800BFFEE7704701B557
:1002100002E00098401E009000980028F9D108BD27
:10022000F0B50A4600210023002400BF3DE001256F
:1002300005FA01F3156805EA03049C4234D1056808
:100240004F000326BE40B543056015794E00B5400A
:100250000668354305601579012D02D01579022D08
:1002600016D185684F000326BE40B5438560557999
:100270004E00B540866835438560456801268E404E
:10028000B5434560456896798E40B6B235434560C2
:10029000C5684F000326BE40B543C560D5794E0002
:1002A000B540C6683543C560491C1029BFD3F0BDB1
:1002B00041837047018370472DE9FC4104460D4698
:1002C00016461F4600200190012000F0C3F800F000
:1002D00013F90190019801284DD12848006840F099
:1002E0008050264908602648006840F44040244970
:1002F0000860002000F0A2F84FF4805000F0CCF825
:100300004FF4A05000F0BCF833462A4621464FF483
:100310008000009700F0D2F8012000F0C9F800BF7B
:10032000392000F063F80028FAD01548006840F43E
:1003300080301349086000BF1148406800F48030E5
:100340000028F9D00E48006840F400300C490860DD
:1003500000BF0B48406800F400300028F9D040F29C
:10036000057008490860022000F0BAF800BF00F0EC
:100370005DF80828FBD1BDE8FC8100004038024050
:1003800000700040003C024000BFFEE71CB50121A8
:10039000802000F01BF84FF48060009001208DF861
:1003A000040000208DF8060001208DF807000220CF
:1003B0008DF8050069460248FFF732FF1CBD0000BA
:1003C000001C024000BFFEE77047704729B1064A93
:1003D00012680243044B1A6004E0034A1268824325
:1003E000014B1A60704700003038024010B50146DA
:1003F0000022002300204A11012A02D10A4C23685E
:1004000008E0022A03D1084C7034236802E0064C4D
:100410007434236801F01F02012494401C400CB185
:10042000012000E0002010BD0038024002480068B2
:1004300000F00C0070470000083802400146002020
:10044000034A106820F0F000084310607047000075
:10045000083802400021024A1170114608707047A6
:100460000238024002460020044B186820F0EC607D
:1004700042EA01031843014B1860704708380240F4
:1004800001460020034A106820F4E0500843106041
:10049000704700000838024001460020034A1068F7
:1004A00020F4604040EAC100106070470838024004
:1004B00001490866704700000000474270B5049C7F
:1004C00041EA82150126C6EB530645EA0645054377
:1004D00045EA0465014E356070BD000004380240F5
:1004E00001460020034A106820F003000843106012
:1004F000704700000838024038B500200090002402
:10050000002500BF3120FFF771FF05460098401C11
:1005100000900098B0F5A04F01D0002DF2D031200E
:10052000FFF764FF08B1012400E00024204638BD35
:10053000704700000CB50020019000904148006811
:1005400040F480303F49086000BF3E48006800F436
:10055000003000900198401C0190009818B9019853
:10056000B0F5A04FF1D13748006800F4003010B169
:100570000120009001E0002000900098012860D147
:1005800030484030006840F080502E4940310860CB
:100590002D48006840F440402B4908602948083045
:1005A00000682849083108600846006840F40040A7
:1005B00008600846006840F4A05008602348091FFE
:1005C0000860081F006840F08070091F086000BFC5
:1005D0001C48006800F000700028F9D01A48006834
:1005E00040F480301849086000BF1748406800F4A4
:1005F00080300028F9D01448006840F400301249D7
:10060000086000BF1048406800F400300028F9D0AE
:1006100040F205700E4908600A480830006820F072
:1006200003000849083108600846006840F00200ED
:10063000086000BF03480830006800F00C0008287C
:10064000F8D10CBD0038024000700040195A400734
:10065000003C02407047000010B51548006840F4A7
:100660007000134908601348006840F00100114908
:10067000086000200F49083108600E4800680E49E4
:1006800008400C4908600D48091D0860081F0068F3
:1006900020F48020091F0860002006490C31086002
:1006A000FFF748FF4FF0006001498039086010BD36
:1006B00088ED00E000380240FFFFF6FE1030002415
:1006C00000BFFEE702E008C8121F08C1002AFAD1E5
:1006D00070477047002001E001C1121F002AFBD1C2
:1006E00070470000092302224FF4D8711920FFF748
:1006F000E3FDFFF74BFE00214FF4C000FFF7B2FE11
:100700000FE04FF480610748FFF7D2FD0648FFF77E
:100710007EFD4FF480610348FFF7CCFD0248FFF7F0
:1007200076FDEEE7001C0240FFFF0F003C070008CB
:0C0730000000002000040000D4060008B7
:04000005080001AD41
:00000001FF
