:020000040800F2
:1000000000040020C1010008F3030008AD0200084D
:10001000F10300080902000889050008000000003B
:100020000000000000000000000000005D04000867
:100030000B02000800000000F50300083505000869
:10004000DB010008DB010008DB010008DB01000820
:10005000DB010008DB010008DB010008DB01000810
:10006000DB010008DB010008DB010008DB01000800
:10007000DB010008DB010008DB010008DB010008F0
:10008000DB010008DB010008DB010008DB010008E0
:10009000DB010008DB010008DB010008DB010008D0
:1000A000DB010008DB010008DB010008DB010008C0
:1000B000DB010008DB010008DB010008DB010008B0
:1000C000DB010008DB010008DB010008DB010008A0
:1000D000DB010008DB010008DB010008DB01000890
:1000E000DB010008DB010008DB010008DB01000880
:1000F000DB010008DB010008DB010008DB01000870
:10010000DB010008DB010008DB010008DB0100085F
:10011000DB010008DB010008DB010008DB0100084F
:10012000DB010008DB010008DB010008DB0100083F
:10013000DB010008DB010008DB010008DB0100082F
:10014000DB010008DB010008DB010008DB0100081F
:10015000DB010008DB010008DB010008DB0100080F
:10016000DB010008DB010008DB010008DB010008FF
:10017000DB010008DB010008DB010008DB010008EF
:10018000DB010008DB010008DB010008DB010008DF
:10019000DB010008DB010008DB010008DB010008CF
:1001A000DB010008DB010008DB010008DFF80CD0F0
:1001B00000F018F800480047A905000800040020D6
:1001C0000648804706480047FEE7FEE7FEE7FEE7F1
:1001D000FEE7FEE7FEE7FEE7FEE7FEE7390500087B
:1001E000AD010008064C074D06E0E06840F0010351
:1001F00094E8070098471034AC42F6D3FFF7DAFFD3
:100200001806000828060008FEE7704701B502E05E
:100210000098401E009000980028F9D108BD2DE9F3
:10022000F041002201274FF0030C07FA02F50B689A
:100230002B40AB422CD1066853000CFA03F4A643C2
:1002400006600E79D0F800809E4046EA08060660F7
:100250000E79012E01D0022E12D18668A643866047
:100260004E79D0F808809E4046EA080686604668C7
:10027000AE43466045688E799640B6B235434560D8
:10028000C568A543C560CC799C40C3681C43C46065
:10029000521C102AC9D3BDE8F08102460020126921
:1002A0000A4200D00120704741837047FEE770B5D5
:1002B00005460C4645F2555000F02AF8284600F055
:1002C0001BF8204600F01EF800F00EF8BDE8704064
:1002D000AFF3008002494CF6CC4008607047000044
:1002E00000300040AFF3008002494AF6AA200860BF
:1002F000704700000030004001494860704700002E
:100300000030004001498860704700000030004024
:100310000149086070470000003000401CB5012111
:10032000052000F069F80120009000208DF80400FD
:100330008DF80700064C69462046FFF770FF4FF422
:100340000051009169462046FFF769FF1CBD00007F
:100350000008024070B504460D4629462046FFF7C6
:100360009CFF012801D0002070BD29462046FFF7E0
:1003700094FF0128F9D0012070BD00002DE9FC4157
:100380000121882000F038F84FF4806500950121A4
:100390008DF8041000208DF806008DF807108DF8F8
:1003A0000500114F69463846FFF739FF6C0000948D
:1003B00069463846FFF733FF6600009669463846BF
:1003C000FFF72DFF0094094F69463846FFF727FFD6
:1003D000054918310D800C800E8021463846FFF704
:1003E00063FFBDE8FC810000001C0240000C0240DD
:1003F000FEE7704770470000054A002903D01168E6
:10040000014311607047116881431160704700001B
:10041000303802400248016841F080710160704745
:100420007438024002460020510901290BD00229EC
:100430000DD00949096802F01F02012393400B42C5
:1004400000D001207047044974390968F3E7024974
:10045000091F0968EFE70000743802407047000088
:100460001CB50021019100912E4A106840F48030A3
:1004700010604FF4A043106800F400300090019821
:10048000401C0190009810B901989842F3D110686F
:10049000800302D50120009000E00091009801281F
:1004A0003FD120484030016841F0805101601E4931
:1004B000086840F4404008601A4808300368036048
:1004C000036843F400430360036843F4A0530360EC
:1004D000041F164B2360136843F080731360136886
:1004E0009B01FCD50A6842F480320A604A68D20354
:1004F000FCD50A6842F400320A604A689203FCD5CF
:100500000B4A40F205711160016821F0030101609E
:10051000016841F0020101600168C1F38101022913
:10052000FAD11CBD0038024000700040195A400743
:10053000003C02407047000010B50F48016841F0D0
:10054000010101600C4A00210832116002680B4B66
:100550001A400260031D0A4A1A60026822F48022CF
:10056000026005480C300160FFF77AFF05494FF043
:100570000060086010BD000000380240FFFFF6FE7A
:100580001030002408ED00E0FEE702E008C8121F6A
:1005900008C1002AFAD170477047002001E001C16C
:1005A000121F002AFBD17047FFF7E8FE1748FFF73C
:1005B0002DFE7D20FFF736FF154D4FF48067EC14BC
:1005C000AE1E4FF4805830B12F803480A6F80080E2
:1005D000FFF720FF03E037803480A5F80080FFF7A5
:1005E0009DFE40F271210420FFF761FEDFF82490A8
:1005F00001214846FFF7AEFE0128F9D1FFF772FE50
:1006000037802C80A6F80080F2E70000FFFF8F0003
:100610001A1C0240000002402806000800000020CA
:08062000000400009A05000827
:04000005080001AD41
:00000001FF
