:020000040800F2
:1000000018040020C1010008EB0300087103000878
:10001000E903000835020008C508000800000000D8
:10002000000000000000000000000000CD040008F7
:100030003702000800000000ED0300087D070008FB
:10004000DB010008DB010008DB010008DB01000820
:10005000DB010008DB010008DB010008DB01000810
:10006000DB010008DB010008DB010008DB01000800
:10007000DB010008DB010008DB010008DB010008F0
:10008000DB010008DB010008DB010008DB010008E0
:10009000DB010008DB010008DB010008DB010008D0
:1000A000DB010008DB010008DB010008DB010008C0
:1000B000DB010008DB010008DB010008DB010008B0
:1000C000DB010008DB010008DB010008DB010008A0
:1000D000DB010008DB010008DB010008DB01000890
:1000E000DB010008DB010008DB010008DB01000880
:1000F000DB010008DB010008DB010008DB01000870
:10010000DB010008DB010008DB010008DB0100085F
:10011000DB010008DB010008DB010008DB0100084F
:10012000DB010008DB010008DB010008DB0100083F
:10013000DB010008DB010008DB010008DB0100082F
:10014000DB010008DB010008DB010008DB0100081F
:10015000DB010008DB010008DB010008DB0100080F
:10016000DB010008DB010008DB010008DB010008FF
:10017000DB010008DB010008DB010008DB010008EF
:10018000DB010008DB010008DB010008DB010008DF
:10019000DB010008DB010008DB010008DB010008CF
:1001A000DB010008DB010008DB010008DFF80CD0F0
:1001B00000F02EF800480047090B00081804002042
:1001C0000648804706480047FEE7FEE7FEE7FEE7F1
:1001D000FEE7FEE7FEE7FEE7FEE7FEE78107000831
:1001E000AD01000830B50B46014600202022012455
:1001F00009E021FA02F59D4205D303FA02F5491BF5
:1002000004FA02F52844151EA2F10102F1DC30BD0A
:10021000064C074D06E0E06840F0010394E8070053
:1002200098471034AC42F6D3FFF7C4FFC40B000864
:10023000E40B0008FEE7704770B586B00121084660
:1002400000F0D6F80121102000F0E0F800248DF82D
:10025000164001208DF8170002258DF815508DF8F5
:10026000145040020490184E04A9304600F030F8B3
:100270008DF814506902049104A9304600F028F862
:1002800007220A21304600F061F807220921304692
:1002900000F05CF84FF4E1300090ADF80440ADF8A8
:1002A0000640ADF80840ADF80C400C20ADF80A004F
:1002B000064C6946204600F09FFA0121204600F0D6
:1002C00087FA06B070BD0000000002400010014037
:1002D0002DE9F041002201274FF0030C07FA02F547
:1002E0000B682B40AB422CD1066853000CFA03F488
:1002F000A64306600E79D0F800809E4046EA0806C4
:1003000006600E79012E01D0022E12D18668A64316
:1003100086604E79D0F808809E4046EA08068660DE
:100320004668AE43466045688E799640B6B235431E
:100330004560C568A543C560CC799C40C3681C4333
:10034000C460521C102AC9D3BDE8F08110B54B0718
:10035000DB0E9A40C90800EB8100016A0F249C4023
:10036000A1430162016A1143016210BD41837047DC
:10037000FEE700002DE9FC410121882000F038F85B
:100380004FF48065009501218DF8041000208DF850
:1003900006008DF807108DF80500114F69463846A4
:1003A000FFF796FF6C00009469463846FFF790FF10
:1003B0006600009669463846FFF78AFF0094094FA9
:1003C00069463846FFF784FF054918310D800C80D7
:1003D0000E8021463846FFF7C9FFBDE8FC810000CA
:1003E000001C0240000C0240FEE77047704700000E
:1003F000054A002903D01168014311607047116854
:10040000814311607047000030380240054A0029DE
:1004100003D0116801431160704711688143116076
:10042000704700004438024070B5244B196801F051
:100430000C01234C00291ED0224E04291DD008296E
:100440001DD00460196801F0F00109091E4A545CCE
:100450000168E14041601C6804F4E054A40A145DA2
:1004600021FA04F484601B6803F460435B0BD25CE4
:10047000D140C16070BD0460E4E70660E2E70F4A66
:10048000121F1168C1F38055116801F03F0135B1A9
:10049000B6FBF1F11468C4F38814614305E0B4FBC2
:1004A000F1F11468C4F3881461431268C2F3014285
:1004B000521C5200B1FBF2F10160C3E70838024060
:1004C0000024F40040787D01000000207047000007
:1004D0001CB50021019100912E4A106840F4803033
:1004E00010604FF4A043106800F4003000900198B1
:1004F000401C0190009810B901989842F3D11068FF
:10050000800302D50120009000E0009100980128AE
:100510003FD120484030016841F0805101601E49C0
:10052000086840F4404008601A48083003680360D7
:10053000036843F400430360036843F4A05303607B
:10054000041F164B2360136843F080731360136815
:100550009B01FCD50A6842F480320A604A68D203E3
:10056000FCD50A6842F400320A604A689203FCD55E
:100570000B4A40F205711160016821F0030101602E
:10058000016841F0020101600168C1F381010229A3
:10059000FAD11CBD0038024000700040195A4007D3
:1005A000003C024010B514A000F08EF94FF4E13188
:1005B0001DA000F089F925A000F086F930A000F018
:1005C00083F936A000F080F93BA000F07DF941A04E
:1005D00000F07AF946A000F077F94CA000F074F929
:1005E00051A000F071F957A000F06EF9BDE810407D
:1005F0005BA000F069B900000D0A202020D5E2CAF6
:10060000C7D2BBB8F6CDA8B9FDB4AEBFDACDA8D07D
:10061000C5D6B8C1EEBFD8D6C6524742B2CAB5C6D3
:10062000CAB5D1E9200A0000CAB9D3C32020555366
:10063000415254312020B2CECAFDCEAAA3BA2564BD
:1006400020382D4E2D31200A00000000BFAAB7A28D
:10065000B0E5BDD3B5BDD6B8C1EEBAF3BFD8D6C6E6
:10066000524742B2CAB5C6D1D5C9ABA3ACD6B8C100
:10067000EEB6D4D3A6C8E7CFC2A3BA0A00000000E2
:10068000202020D6B8C1EE2020202D2D2D2D2D2D5F
:1006900020B2CAB5C6D1D5C9AB200A00202020207F
:1006A0002031202020202D2D2D2D2D2D20202020EB
:1006B000BAEC200A00000000202020202032202058
:1006C00020202D2D2D2D2D2D20202020C2CC200AA4
:1006D00000000000202020202033202020202D2D6D
:1006E0002D2D2D2D20202020C0B6200A0000000036
:1006F000202020202034202020202D2D2D2D2D2D98
:1007000020202020BBC6200A00000000202020203E
:100710002035202020202D2D2D2D2D2D2020202076
:10072000D7CF200A000000002020202020362020E3
:1007300020202D2D2D2D2D2D20202020C7E0200A1A
:1007400000000000202020202037202020202D2DF8
:100750002D2D2D2D20202020B0D7200A00000000B4
:10076000202020202038202020202D2D2D2D2D2D23
:1007700020202020C3F0200A000000007047000065
:1007800010B50F48016841F0010101600C4A0021D9
:100790000832116002680B4B1A400260031D0A4ABE
:1007A0001A60026822F48022026005480C30016061
:1007B000FFF78EFE05494FF00060086010BD000095
:1007C00000380240FFFFF6FE1030002408ED00E084
:1007D000002904D0818941F40051818170478189C9
:1007E00021F40051818170470246002012880A429C
:1007F00000D00120704700007FB504460D46208AD6
:1008000020F44051E88808432082A08941F20C611D
:100810008843A9882A8911436A8902431143A18127
:10082000A08A20F44071A8890843A0826846FFF797
:10083000FBFD1E48844202D01D48844201D103982A
:1008400000E00298A189090408D500EBC00101EB82
:10085000001029684900B0FBF1F007E000EBC0018F
:1008600001EB001029688900B0FBF1F06422B0FBB5
:10087000F2F109010B096FF018056B4300EB8300DF
:10088000A3891D044FF0320307D503EBC000B0FB72
:10089000F2F000F00700084306E003EB0010B0FBA5
:1008A000F2F000F00F00084320817FBD00100140EE
:1008B000001401408088C0F308007047C1F30801AC
:1008C00081807047FEE700000FB4054B10B503A907
:1008D000044A029800F018F810BC5DF814FB000000
:1008E000E10A00081400002002E008C8121F08C135
:1008F000002AFAD170477047002001E001C1121FA1
:10090000002AFBD1704700002DE9FF4F8BB09A46BB
:100910000F460546002606E025280BD052460D99C5
:1009200090476D1C761C28780028F5D10FB0304612
:10093000BDE8F08F0024A0460122604900E0044396
:1009400015F8013F203B02FA03F00842F7D128785E
:100950002E2817D115F8010F44F004042A280ED0D0
:100960006FF02F022878A0F1300109290AD808EB8E
:10097000880102EB410100EB01086D1CF2E757F81A
:10098000048B6D1C287869283ED006DC0028CDD069
:1009900063280BD0642804D136E0732810D0752862
:1009A0004BD052460D999047761C85E017F8040B02
:1009B0008DF8000000208DF80100E946012003E0D9
:1009C00057F8049B4FF0FF3061074FF0000401D44B
:1009D0000AE0641C44450DDA8442FADB19F804107D
:1009E0000029F6D106E0641C8442FCDB19F80410EF
:1009F0000029F8D1264404E019F8010B52460D995C
:100A00009047641EF8D257E001CF4FF00A0B002840
:100A100002DA40422D2102E0210504D52B218DF878
:100A20002410012103E0E10705D02021F7E70DF1B3
:100A3000200908910CE00021F9E701CF4FF00A0BE3
:100A4000F9E75946FFF7CEFB01F1300209F8012D15
:100A50000028F6D1ADEB090000F1200B600701D4AE
:100A60004FF00108D84502DDA8EB0B0000E00020A4
:100A70008046002406E009A85246005D0D99904783
:100A8000641C761C08988442F5DB04E03020524652
:100A90000D999047761CB8F10001A8F10108F5DC2A
:100AA00005E019F8010B52460D999047761CBBF1F1
:100AB0000001ABF1010BF4DC6D1C34E709280100E7
:100AC00010B5064C20212046FFF78EFE0028F9D0F5
:100AD0002046BDE81040FFF7EDBE000000100140C9
:100AE00070B50446064DE1B22846FFF7E7FE8021C7
:100AF0002846FFF779FE0028F9D0204670BD000097
:100B000000100140FFF7DCBFFFF734FCFFF794FB58
:100B1000FFF748FDDFF894804FF480646500A8F18A
:100B20000207A6002248FFF7EDFF00F0FF09494643
:100B300020A0FFF7C9FEA9F13109B9F1080F31D2A0
:100B4000DFE809F004090E13191F252CA8F800404E
:100B50003D803E80E6E73C80A8F800503E80E1E71B
:100B60003C803D80A8F80060DCE7A8F80040A8F8C9
:100B700000503E80D6E7A8F800403D80A8F800600D
:100B8000D0E73C80A8F80050A8F80060CAE7A8F8B1
:100B90000040A8F80050A8F80060C3E73C803D8002
:100BA0003E80BFE7FFF7FEFCBCE700001A1C0240D6
:100BB00010000020BDD3CAD5B5BDD7D6B7FBA3BAA8
:100BC00025630A00E40B0008000000201800000064
:100BD000E8080008FC0B00081800002000040000D2
:100BE000F8080008000000000102030401020304E9
:0C0BF000060708090000000000000000DB
:04000005080001AD41
:00000001FF
