:020000042000DA
:1000000000040120C1010020C30300204B03002095
:10001000C1030020090200201D050020000000008F
:10002000000000000000000000000000E5030020C8
:100030000B02002000000000C5030020BD040020CA
:10004000DB010020DB010020DB010020DB010020C0
:10005000DB010020DB010020DB010020DB010020B0
:10006000DB010020DB010020DB010020DB010020A0
:10007000DB010020DB010020DB010020DB01002090
:10008000DB010020DB010020DB010020DB01002080
:10009000DB010020DB010020DB010020DB01002070
:1000A000DB010020DB010020DB010020DB01002060
:1000B000DB010020DB010020DB010020DB01002050
:1000C000DB010020DB010020DB010020DB01002040
:1000D000DB010020DB010020DB010020DB01002030
:1000E000DB010020DB010020DB010020DB01002020
:1000F000DB010020DB010020DB010020DB01002010
:10010000DB010020DB010020DB010020DB010020FF
:10011000DB010020DB010020DB010020DB010020EF
:10012000DB010020DB010020DB010020DB010020DF
:10013000DB010020DB010020DB010020DB010020CF
:10014000DB010020DB010020DB010020DB010020BF
:10015000DB010020DB010020DB010020DB010020AF
:10016000DB010020DB010020DB010020DB0100209F
:10017000DB010020DB010020DB010020DB0100208F
:10018000DB010020DB010020DB010020DB0100207F
:10019000DB010020DB010020DB010020DB0100206F
:1001A000DB010020DB010020DB010020DFF80CD0A8
:1001B00000F018F8004800473D0500200004012029
:1001C0000648804706480047FEE7FEE7FEE7FEE7F1
:1001D000FEE7FEE7FEE7FEE7FEE7FEE7C1040020DC
:1001E000AD010020064C074D06E0E06840F0010339
:1001F00094E8070098471034AC42F6D3FFF7DAFFD3
:100200008805002098050020FEE7704709200D4969
:100210000A68D20301D5012070470A68D20601D5C9
:10022000062070470A68D20501D5022070470A6887
:1002300012F0E00F01D00720704709688907FBD54D
:10024000082070470C3C02400348017841F002014D
:10025000017000F029B80000143C02400248016817
:1002600041F0010101607047143C024010B50446A2
:1002700000F01AF8092801D10148047010BD0000EF
:10028000153C024005480068C00705D003480449F2
:100290000C3801600349016070470000143C0240C3
:1002A0003B2A19087F6E5D4C08B509200090FFF7C6
:1002B000ADFF009002E0FFF7A9FF00909DF800005D
:1002C0000128F8D09DF8000008BD2DE9F04100227A
:1002D00001274FF0030C07FA02F50B682B40AB42E5
:1002E0002CD1066853000CFA03F4A64306600E797D
:1002F000D0F800809E4046EA080606600E79012E7E
:1003000001D0022E12D18668A64386604E79D0F8BD
:1003100008809E4046EA080686604668AE4346600E
:1003200045688E799640B6B235434560C568A543A9
:10033000C560CC799C40C3681C43C460521C102A21
:10034000C9D3BDE8F08141837047FEE72DE9FC4148
:100350000121882000F038F84FF4806500950121D4
:100360008DF8041000208DF806008DF807108DF828
:100370000500114F69463846FFF7A7FF6C0000944F
:1003800069463846FFF7A1FF660000966946384681
:10039000FFF79BFF0094094F69463846FFF795FF2A
:1003A000054918310D800C800E8021463846FFF734
:1003B000CAFFBDE8FC810000001C0240000C0240A6
:1003C000FEE7704770470000054A002903D0116816
:1003D000014311607047116881431160704700004C
:1003E00030380240704700001CB500210191009197
:1003F0002E4A106840F4803010604FF4A04310681B
:1004000000F4003000900198401C0190009810B951
:1004100001989842F3D11068800302D50120009022
:1004200000E00091009801283FD120484030016849
:1004300041F0805101601E49086840F44040086066
:100440001A48083003680360036843F400430360FC
:10045000036843F4A0530360041F164B2360136822
:1004600043F08073136013689B01FCD50A6842F463
:1004700080320A604A68D203FCD50A6842F400322E
:100480000A604A689203FCD50B4A40F2057111607C
:10049000016821F003010160016841F0020101607F
:1004A0000168C1F381010229FAD11CBD0038024064
:1004B00000700040195A4007003C0240704700009D
:1004C00010B51248016841F47001016010480168DC
:1004D00041F0010101600E4A0021083211600268FA
:1004E0000C4B1A400260031D0B4A1A60026822F48A
:1004F0008022026006480C300160FFF775FF034957
:100500004FF000508039086010BD000088ED00E019
:1005100000380240FFFFF6FE10300024FEE702E044
:1005200008C8121F08C1002AFAD17047704700207E
:1005300001E001C1121F002AFBD17047FFF706FF3F
:10054000FFF7A0FE5520FFF791FEFFF77DFEFFF7B6
:1005500085FE0C4C4FF4806727804FF40068A4F8A8
:100560000080A61CA5143580FFF78CFEAA20FFF79B
:100570007DFEFFF769FEFFF771FE2780A6F8008079
:100580002580FEE7181C024098050020000001208D
:08059000000400002E0500200C
:04000005200001AD29
:00000001FF
