:020000040800F2
:1000000000040020C10100085B030008E1020008B1
:10001000590300085D0200086706000800000000A0
:1000200000000000000000000000000015040008AF
:100030005F02000800000000D9030008ED0400087A
:10004000DB010008DB010008DB010008DB01000820
:10005000DB010008DB010008DB010008DB01000810
:10006000DB010008DB010008DB010008DB01000800
:10007000DB010008DB010008DB010008DB010008F0
:10008000DB010008DB010008DB010008DB010008E0
:10009000DB010008DB010008DB010008DB010008D0
:1000A000DB010008DB010008DB010008DB010008C0
:1000B000DB010008DB010008DB010008DB010008B0
:1000C000DB010008DB010008DB010008DB010008A0
:1000D000DB010008DB010008DB010008DB01000890
:1000E000DB010008DB010008DB010008DB01000880
:1000F000DB010008DB010008DB010008DB01000870
:10010000DB010008DB010008DB010008DB0100085F
:10011000DB010008DB01000841050008DB010008E5
:10012000DB010008DB010008DB010008DB0100083F
:10013000DB010008DB010008DB010008DB0100082F
:10014000DB010008DB010008DB010008DB0100081F
:10015000DB010008DB010008DB010008DB0100080F
:10016000DB010008DB010008DB010008DB010008FF
:10017000DB010008DB010008DB010008DB010008EF
:10018000DB010008DB010008DB010008DB010008DF
:10019000DB010008DB010008DB010008DB010008CF
:1001A000DB010008DB010008DB010008DFF80CD0F0
:1001B00000F018F8004800478706000800040020F7
:1001C0000648804706480047FEE7FEE7FEE7FEE7F1
:1001D000FEE7FEE7FEE7FEE7FEE7FEE7F1040008C4
:1001E000AD010008064C074D06E0E06840F0010351
:1001F00094E8070098471034AC42F6D3FFF7DAFFD3
:1002000090060008A006000810B500F017FABDE837
:10021000104000F001B800003EB50121102000F0B0
:10022000EBF841F28730019042F22730ADF8000040
:10023000094C6946204600F0C3F90121204600F030
:1002400097F901221146204600F0B0F9012120461D
:1002500000F094F93EBD000000100040FEE770473A
:100260002DE9F041002201274FF0030C07FA02F5B7
:100270000B682B40AB422CD1066853000CFA03F4F8
:10028000A64306600E79D0F800809E4046EA080634
:1002900006600E79012E01D0022E12D18668A64387
:1002A00086604E79D0F808809E4046EA080686604F
:1002B0004668AE43466045688E799640B6B235438F
:1002C0004560C568A543C560CC799C40C3681C43A4
:1002D000C460521C102AC9D3BDE8F0814183704725
:1002E000FEE700002DE9FC410121882000F076F8AE
:1002F0004FF48065009501218DF8041000208DF8E1
:1003000006008DF807108DF80500114F6946384634
:10031000FFF7A6FF6C00009469463846FFF7A0FF80
:100320006600009669463846FFF79AFF0094094F29
:1003300069463846FFF794FF054918310D800C8057
:100340000E8021463846FFF7C9FFBDE8FC8100005A
:10035000001C0240000C0240FEE7704730B50F233E
:10036000C27801250178002A1FD0154A126802F4CC
:10037000E062C2F5E062C2F30722C2F10404D34096
:100380004278A24084781C401443220101F1E0210C
:1003900081F80024007800F01F018D4040098000A2
:1003A00000F1E020C0F8005130BD01F01F00854091
:1003B0004809800000F1E020C0F8805130BD000005
:1003C0000CED00E002490843024908607047000054
:1003D0000000FA050CED00E070470000054A002916
:1003E00003D01168014311607047116881431160A7
:1003F0007047000030380240054A002903D01168D8
:10040000014311607047116881431160704700001B
:1004100040380240704700001CB500210191009156
:100420002E4A106840F4803010604FF4A0431068EA
:1004300000F4003000900198401C0190009810B921
:1004400001989842F3D11068800302D501200090F2
:1004500000E00091009801283FD120484030016819
:1004600041F0805101601E49086840F44040086036
:100470001A48083003680360036843F400430360CC
:10048000036843F4A0530360041F164B23601368F2
:1004900043F08073136013689B01FCD50A6842F433
:1004A00080320A604A68D203FCD50A6842F40032FE
:1004B0000A604A689203FCD50B4A40F2057111604C
:1004C000016821F003010160016841F0020101604F
:1004D0000168C1F381010229FAD11CBD0038024034
:1004E00000700040195A4007003C0240704700006D
:1004F00010B50F48016841F0010101600C4A00216C
:100500000832116002680B4B1A400260031D0A4A50
:100510001A60026822F48022026005480C300160F3
:10052000FFF77AFF05494FF00060086010BD00003A
:1005300000380240FFFFF6FE1030002408ED00E016
:1005400010B5094C0121204600F024F800280AD0FB
:100550000648016881F4806101602046BDE81040D2
:10056000012100F008B810BD00100040141C02402A
:10057000C94301827047C94301827047002904D0F2
:10058000018841F0010101807047018821F00101DB
:100590000180704702460020138A0B4092890A406E
:1005A000002B02D0002A00D001207047002A03D07F
:1005B00082890A438281704782898A438281704797
:1005C00030B50288164C174DA0420DD0A8420BD072
:1005D000B0F1804F08D0144B984205D0134B98428D
:1005E00002D0134B984203D122F070034A881A4379
:1005F000104B984206D0104B984203D022F440731F
:100600000A891A4302804A68C2620A880285A042A7
:1006100001D0A84201D1897A01860121818230BDB1
:1006200000000140000401400004004000080040B8
:10063000000C0040001000400014004008B54FF4CA
:10064000E060FFF7BFFE36208DF8000000208DF837
:10065000010003208DF8020001208DF80300684698
:10066000FFF77CFE08BDFEE702E008C8121F08C1C4
:10067000002AFAD170477047002001E001C1121F23
:10068000002AFBD17047FFF72DFEFFF7BDFDFEE707
:10069000A006000800000020000400007806000802
:04000005080001AD41
:00000001FF
