:020000040800F2
:1000000018040020C1010008570500085305000826
:1000100055050008AB020008310E00080000000082
:10002000000000000000000000000000670B000856
:10003000AD02000800000000FD0500083D0C0008AE
:10004000DB010008DB010008DB010008DB01000820
:10005000DB010008DB010008DB010008DB01000810
:10006000DB010008DB010008DB010008DB01000800
:10007000DB010008DB010008DB010008DB010008F0
:10008000DB010008DB010008DB010008DB010008E0
:10009000DB010008DB010008DB010008DB010008D0
:1000A000DB010008DB010008DB010008DB010008C0
:1000B000DB010008DB010008DB010008DB010008B0
:1000C000DB010008DB010008DB010008DB010008A0
:1000D000DB0100089D0C0008DB010008DB010008C3
:1000E000DB010008DB010008DB010008DB01000880
:1000F000DB010008DB010008DB010008DB01000870
:10010000DB010008DB010008DB010008DB0100085F
:10011000DB010008DB010008DB010008DB0100084F
:10012000DB010008DB010008DB010008DB0100083F
:10013000DB010008DB010008DB010008DB0100082F
:10014000DB010008DB010008DB010008DB0100081F
:10015000DB010008DB010008DB010008DB0100080F
:10016000DB010008DB010008DB010008DB010008FF
:10017000DB010008DB010008DB010008DB010008EF
:10018000DB010008DB010008DB010008DB010008DF
:10019000DB010008DB010008DB010008DB010008CF
:1001A000DB010008DB010008DB010008DFF80CD0F0
:1001B00000F04AF800480047951100081804002094
:1001C0000648804706480047FEE7FEE7FEE7FEE7F1
:1001D000FEE7FEE7FEE7FEE7FEE7FEE7410C00086C
:1001E000AD0100082DE9F05F0546002092469B46D0
:1001F00088460646814640241BE02846414647463D
:10020000224600F042F853465A46C01A914110D394
:1002100011461846224600F029F82D1A67EB01080E
:100220004F4622460120002100F020F817EB00097C
:100230004E41201EA4F10104DFDC484631462A4627
:100240004346BDE8F09F0000064C074D06E0E0681D
:1002500040F0010394E8070098471034AC42F6D30D
:10026000FFF7A8FF2812000848120008202A04DB24
:10027000203A00FA02F1002070479140C2F12003B9
:1002800020FA03F3194390407047202A04DB203AF8
:1002900021FA02F00021704721FA02F3D040C2F1A6
:1002A00020029140084319467047FEE7704700005E
:1002B00070B586B00121084600F0A2F90121102096
:1002C00000F0ACF900248DF8164001208DF81700DD
:1002D00002258DF815508DF81450400204901C4EE4
:1002E00004A9304600F0E7F88DF814506902049133
:1002F00004A9304600F0DFF807220A21304600F05A
:1003000018F907220921304600F013F94FF4E130C3
:100310000090ADF80440ADF80640ADF80840ADF8E7
:100320000C400C20ADF80A000A4C6946204600F04B
:1003300019FD00F011F9012240F22551204600F08C
:10034000F6FC0121204600F0BFFC06B070BD0000A5
:10035000000002400010014000224FF0204310280E
:100360000AD0B0F5807F09D0B0F5805F09D0D3F80E
:100370005801814309D107E0586EFAE7D3F88400A9
:10038000F7E7D3F8A400F4E7012210467047000015
:10039000D0E9001211438268C068521E520142EA3D
:1003A000402001430148016070470000500100A057
:1003B00070B50468A100A1F1C041D1F84011CE0B85
:1003C000F603D0E901121143D0E903231A43114384
:1003D0004269C36911438269056A11431943426A3C
:1003E0002943114331434FF02046002C3CD0D6F82E
:1003F00040416FF30E042B4322431343C6F84031B0
:1004000002689200A2F1C042C2F84011016871B3C3
:100410008900A1F1C041D1F8481101F07043816A0F
:100420000A684C68521E641E42EA04148A68521E0E
:1004300044EA02240A8A521E44EA02421A43D6F8C7
:10044000483103F07043CC68898A641E2403491E36
:1004500044EA01511943C6F8481100688000A0F130
:10046000C040C0F8482170BDC6F84011CEE7FFE794
:10047000D6F8481101F07041806A02684368521E44
:100480005B1E42EA03138268521E43EA0223C268DB
:10049000521E43EA0233028A521E43EA0243828A10
:1004A000007E521E43EA0252401E42EA00600843A8
:1004B000C6F8480170BD2DE9F041002201274FF038
:1004C000030C07FA02F50B682B40AB422CD10668EF
:1004D00053000CFA03F4A64306600E79D0F80080AE
:1004E0009E4046EA080606600E79012E01D0022ED3
:1004F00012D18668A64386604E79D0F808809E4067
:1005000046EA080686604668AE43466045688E79CE
:100510009640B6B235434560C568A543C560CC7901
:100520009C40C3681C43C460521C102AC9D3BDE858
:10053000F08110B54B07DB0E9A40C90800EB810033
:10054000016A0F249C40A1430162016A11430162C8
:1005500010BDFEE7FEE7704708B54FF4A06000F05D
:1005600043F825208DF8000001208DF801008DF85A
:1005700002008DF80300684600F002F808BD000094
:1005800030B50F23C27801250178002A1FD0154A03
:10059000126802F4E062C2F5E062C2F30722C2F11F
:1005A0000404D3404278A24084781C4014432201C2
:1005B00001F1E02181F80024007800F01F018D4056
:1005C0004009800000F1E020C0F8005130BD01F08A
:1005D0001F0085404809800000F1E020C0F88051EC
:1005E00030BD00000CED00E00249084302490860FC
:1005F000704700000000FA050CED00E070470000B5
:10060000054A002903D01168014311607047116841
:10061000814311607047000030380240054A0029CC
:1006200003D0116801431160704711688143116064
:10063000704700004438024070B5244B196801F03F
:100640000C01234C00291ED0224E04291DD008295C
:100650001DD00460196801F0F00109091E4A545CBC
:100660000168E14041601C6804F4E054A40A145D90
:1006700021FA04F484601B6803F460435B0BD25CD2
:10068000D140C16070BD0460E4E70660E2E70F4A54
:10069000121F1168C1F38055116801F03F0135B197
:1006A000B6FBF1F11468C4F38814614305E0B4FBB0
:1006B000F1F11468C4F3881461431268C2F3014273
:1006C000521C5200B1FBF2F10160C3E7083802404E
:1006D0000024F40040787D010000002000E0401E6E
:1006E0000028FCD1704700002DE9FC5F0121FC20AF
:1006F000FFF786FF02208DF804008DF8050000202A
:100700008DF806008DF80700012000906946D14859
:10071000FFF7D1FE0C220021CE48FFF70AFF02208E
:1007200000906946CB48FFF7C6FE0C220121C9485C
:10073000FFF7FFFE042000906946C648FFF7BBFEA6
:100740000C220221C348FFF7F4FE082000906946FE
:10075000C048FFF7B0FE0C220321BE48FFF7E9FEB8
:10076000102600966946BB48FFF7A5FE0C2204211F
:10077000B848FFF7DEFE202700976946B548FFF727
:100780009AFE0C220521B348FFF7D3FE4FF48058A0
:10079000CDF800806946AF48FFF78DFE0C22114668
:1007A000AC48FFF7C6FE4FF40059CDF800906946FB
:1007B000A848FFF780FE0C220D21A648FFF7B9FEDE
:1007C000B50200956946A348FFF775FE0C220E217D
:1007D000A048FFF7AEFE6C00009469469D48FFF705
:1007E0006AFE0C220F219B48FFF7A3FE0120009018
:1007F00069469948FFF75FFE0C2200219648FFF7F3
:1008000098FE0220009069469348FFF754FE0C22A0
:1008100001219148FFF78DFE009669468E48FFF74B
:100820004AFE0C2204218C48FFF783FE009769469C
:100830008948FFF740FE0C2205218748FFF779FE23
:10084000009569468548FFF736FE0C220E21834845
:10085000FFF76FFE009469468048FFF72CFE0C22DC
:100860000F217E48FFF765FE0120009069467B4816
:10087000FFF721FE0C2200217848FFF75AFE0220E4
:10088000009069467548FFF716FE0C220121734857
:10089000FFF74FFE8020009069467148FFF70BFE7E
:1008A0000C2207216E48FFF744FEE61100966946C8
:1008B0006B48FFF700FE0C2208216948FFF739FE5C
:1008C0004FF4007ACDF800A069466548FFF7F3FDC4
:1008D0000C2209216248FFF72CFE4FF4806BCDF803
:1008E00000B069465E48FFF7E6FD0C220A215C482D
:1008F000FFF71FFE2711009769465948FFF7DBFDF8
:100900000C220B215648FFF714FECDF800806946F3
:100910005348FFF7D0FD0C2211465148FFF709FE5E
:10092000CDF8009069464E48FFF7C5FD0C220D2119
:100930004B48FFF7FEFD009569464948FFF7BBFDB0
:100940000C220E214648FFF7F4FD00946946444806
:10095000FFF7B1FD0C220F214148FFF7EAFD009699
:1009600069463E48FFF7A7FD0C2208213B48FFF7E8
:10097000E0FDCDF800A069463848FFF79CFD0C2249
:1009800009213648FFF7D5FDCDF800B06946334858
:10099000FFF791FD0C220A213048FFF7CAFD4020E5
:1009A0000090304D69462846FFF785FD0C22062150
:1009B0002846FFF7BEFD01200090DFF8AC806946B5
:1009C0004046FFF778FD0C2200214046FFF7B1FDBD
:1009D000009769461F48FFF76EFD0C220B211D484A
:1009E000FFF7A7FD009469461B48FFF764FD0C2242
:1009F0000F211948FFF79DFD009669461648FFF73D
:100A00005AFD0C2208211448FFF793FD8021009124
:100A100069462846FFF74FFD0C2207212846FFF7BD
:100A200088FD0220009069460D48FFF744FD0C2226
:100A300001210B48FFF77DFD012000906946084821
:100A4000FFF739FD0C2200210548FFF772FDBDE8D4
:100A5000FC9F00000014024000180240000C0240FD
:100A600000100240001C02400008024010B5FFF7D1
:100A70003BFE00F053F8BDE8104000F001B8000064
:100A80002DE9FF41012000900825019500240294E2
:100A900003946846FFF77CFC20210120FFF75CFCF3
:100AA0000128F9D01C4F3846FFF718FE02260096A1
:100AB0000195029403946846FFF76AFC2021012007
:100AC000FFF74AFC0128F9D03846FFF707FE03205C
:100AD00000900195029603946846FFF759FC202187
:100AE0000120FFF739FC0128F9D03846FFF7F6FD61
:100AF0000420009001950294232003906846FFF79C
:100B000047FC20210120FFF727FC0128F9D03846B7
:100B1000FFF7E4FDBDE8FF81FFFF0F0000B593B0D4
:100B20000720029002200190079006210491069070
:100B300004210391059080020F900120089000028B
:100B40000D90002009900A9110210B9140210C91E9
:100B50008901109111900E9001A8129008A8FFF73A
:100B600027FC13B000BD70471CB500210191009116
:100B70002E4A106840F4803010604FF4A043106893
:100B800000F4003000900198401C0190009810B9CA
:100B900001989842F3D11068800302D5012000909B
:100BA00000E00091009801283FD1204840300168C2
:100BB00041F0805101601E49086840F440400860DF
:100BC0001A48083003680360036843F40043036075
:100BD000036843F4A0530360041F164B236013689B
:100BE00043F08073136013689B01FCD50A6842F4DC
:100BF00080320A604A68D203FCD50A6842F40032A7
:100C00000A604A689203FCD50B4A40F205711160F4
:100C1000016821F003010160016841F002010160F7
:100C20000168C1F381010229FAD11CBD00380240DC
:100C300000700040195A4007003C02407047000015
:100C400010B51248016841F4700101601048016854
:100C500041F0010101600E4A002108321160026872
:100C60000C4B1A400260031D0B4A1A60026822F402
:100C70008022026006480C300160FFF775FF0349CF
:100C80004FF000608039086010BD000088ED00E082
:100C900000380240FFFFF6FE1030002410B5094C6A
:100CA00040F22551204600F022F8002808D02046C6
:100CB00000F0B6F8C1B22046BDE8104000F0B4B86C
:100CC00010BD000000100140002904D0818941F4CA
:100CD000005181817047818921F4005181817047E1
:100CE0000246002012880A4200D00120704770B5E9
:100CF000002440F66A12C1F3421301F01F050126D9
:100D000006FA05F2012B0CD0022B0DD0838A13407A
:100D1000090A8E40008830400BB100B10124204602
:100D200070BD83891340F3E7038A1340F0E710B5E1
:100D300040F66A13C1F3421301F01F040121A140E0
:100D4000012B07D0022B07D014303AB102680A43B6
:100D5000026010BD0C30F8E71030F6E702688A43F5
:100D6000026010BD7FB504460D46208A20F4405134
:100D7000E88808432082A08941F20C618843A98851
:100D80002A8911436A8902431143A181A08A20F470
:100D90004071A8890843A0826846FFF74DFC1E48B1
:100DA000844202D01D48844201D1039800E0029899
:100DB000A189090408D500EBC00101EB00102968E6
:100DC0004900B0FBF1F007E000EBC00101EB0010BF
:100DD00029688900B0FBF1F06422B0FBF2F109014F
:100DE0000B096FF018056B4300EB8300A3891D040A
:100DF0004FF0320307D503EBC000B0FBF2F000F078
:100E00000700084306E003EB0010B0FBF2F000F02F
:100E10000F00084320817FBD0010014000140140F5
:100E20008088C0F308007047C1F3080181807047D3
:100E3000FEE710B504462046FFF7F6FF8021204666
:100E4000FFF74EFF0028F9D010BD70B506460D46DD
:100E500000243046295DFFF7ECFF641C285D002864
:100E6000F7D140213046FFF73BFF0028F9D070BD95
:100E70000FB4054B10B503A9044A029800F018F806
:100E800010BC5DF814FB0000711100081000002078
:100E900002E008C8121F08C1002AFAD17047704743
:100EA000002001E001C1121F002AFBD170470000A1
:100EB0002DE9FF4F8DB09B460F460446002606E005
:100EC00025280BD05A460F999047641C761C207831
:100ED0000028F5D111B03046BDE8F08F0025A846B6
:100EE0000122984900E0054314F8013F203B02FA33
:100EF00003F00842F7D120782E2817D114F8010FFB
:100F000045F004052A280ED06FF02F022078A0F1BA
:100F1000300109290AD808EB880102EB410100EBF6
:100F20000108641CF2E757F8048B641C20786C28D5
:100F30000DD004DC4C2812D06A2811D104E07428AA
:100F40000DD07A280CD10AE045F4001507E061784D
:100F500045F48015814202D1641C05F58015641C9E
:100F60002278692A45D008DC002AB3D0582A69D0F3
:100F7000632A10D0642A08D13BE0702A67D0732A14
:100F800013D0752A5CD0782A5CD010465A460F9947
:100F90009047761CD3E017F8040B8DF80000002072
:100FA0008DF80100E946012003E057F8049B4FF05B
:100FB000FF3069074FF0000501D40AE06D1C45457C
:100FC0000DDA8542FADB19F805100029F6D106E0A2
:100FD0006D1C8542FCDB19F805100029F8D12E4460
:100FE00004E019F8010B5A460F9990476D1EF8D28C
:100FF000A5E00A200021CDE90801C5F3025002282E
:101000000DD001CFC117031E71F100030DDA4FF0AF
:10101000000CD0EB0C006CEB01012D2308E0FF1D50
:1010200027F00707F7E80201EDE72B0504D52B238E
:101030008DF8283001233BE0EB0739D02023F7E778
:101040000A2000E010200021CDE9080107E010206F
:10105000002145F00405CDE908014FF00808C5F36B
:10106000025002280FD001CF00214FF0000A2B07B9
:101070001FD5702A0DD0DDE908C38CF0100C5CEA96
:10108000030C0CD015E0FF1D27F00707F7E802015D
:10109000EBE740228DF828204FF0010A0BE050EAE0
:1010A000010306D030238DF828308DF82920022343
:1010B0009A46582A04D024A20DF120090B9209E087
:1010C00026A2F9E7DDE90823FFF78CF80B9B9B5C70
:1010D00009F8013D50EA0102F4D1ADEB09002030DE
:1010E0000890680701D44FF001080899884502DD8F
:1010F000A8EB010000E000208046002506E00AA8D9
:101100005A46405D0F9990476D1C761C5545F6DB9D
:1011100004E030205A460F999047761CB8F1000140
:10112000A8F10108F5DC05E019F8010B5A460F9902
:101130009047761C0899481E08900029F4DC641C2E
:10114000C5E6000009280100303132333435363726
:101150003839616263646566000000003031323303
:1011600034353637383941424344454600000000A3
:1011700070B50446064DE1B22846FFF755FE8021C2
:101180002846FFF7ADFD0028F9D0204670BD0000CD
:1011900000100140FFF78CF8FFF768FC0BA1114825
:1011A000FFF753FE09A0FFF763FE4FF050404FF2E8
:1011B000F55101800CA0FFF75BFE1148AA210180C8
:1011C000024610A0FFF754FEFEE70000D5E2CAC7B2
:1011D000D2BBB8F6534452414DB2E2CAD4CAB5D1DB
:1011E000E90A0000001001400D0A20B6C1B3F6B5AF
:1011F000C4CAFDBEDDCEAAA3BA307825780D0A0098
:10120000640000D00D0A207074657374A3BA30783E
:1012100025780D0A207074657374B5C4B5D8D6B737
:10122000A3BA30782578000048120008000000209A
:1012300014000000900E00085C120008140000204A
:1012400004040000A00E00080000000001020304D6
:0C1250000102030406070809000000006A
:04000005080001AD41
:00000001FF
