:020000040800F2
:1000000018240020C1010008D5040008D10400080C
:10001000D3040008AB020008DD0A0008000000005D
:1000200000000000000000000000000011080008AF
:10003000AD0200080000000079050008E90800088A
:10004000DB010008DB010008DB010008DB01000820
:10005000DB010008DB010008DB010008DB01000810
:10006000DB010008DB010008DB010008DB01000800
:10007000DB010008DB010008DB010008DB010008F0
:10008000DB010008DB010008DB010008DB010008E0
:10009000DB010008DB010008DB010008DB010008D0
:1000A000DB010008DB010008DB010008DB010008C0
:1000B000DB010008DB010008DB010008DB010008B0
:1000C000DB010008DB010008DB010008DB010008A0
:1000D000DB01000849090008DB010008DB0100081A
:1000E000DB010008DB010008DB010008DB01000880
:1000F000DB010008DB010008DB010008DB01000870
:10010000DB010008DB010008DB010008DB0100085F
:10011000DB010008DB010008DB010008DB0100084F
:10012000DB010008DB010008DB010008DB0100083F
:10013000DB010008DB010008DB010008DB0100082F
:10014000DB010008DB010008DB010008DB0100081F
:10015000DB010008DB010008DB010008DB0100080F
:10016000DB010008DB010008DB010008DB010008FF
:10017000DB010008DB010008DB010008DB010008EF
:10018000DB010008DB010008DB010008DB010008DF
:10019000DB010008DB010008DB010008DB010008CF
:1001A000DB010008DB010008DB010008DFF80CD0F0
:1001B00000F04AF800480047310F000818240020DA
:1001C0000648804706480047FEE7FEE7FEE7FEE7F1
:1001D000FEE7FEE7FEE7FEE7FEE7FEE7ED080008C4
:1001E000AD0100082DE9F05F0546002092469B46D0
:1001F00088460646814640241BE02846414647463D
:10020000224600F042F853465A46C01A914110D394
:1002100011461846224600F029F82D1A67EB01080E
:100220004F4622460120002100F020F817EB00097C
:100230004E41201EA4F10104DFDC484631462A4627
:100240004346BDE8F09F0000064C074D06E0E0681D
:1002500040F0010394E8070098471034AC42F6D30D
:10026000FFF7A8FF4C1000086C100008202A04DBE0
:10027000203A00FA02F1002070479140C2F12003B9
:1002800020FA03F3194390407047202A04DB203AF8
:1002900021FA02F00021704721FA02F3D040C2F1A6
:1002A00020029140084319467047FEE7704700005E
:1002B00070B586B00121084600F060F901211020D8
:1002C00000F06AF900248DF8164001208DF817001F
:1002D00002258DF815508DF81450400204901C4EE4
:1002E00004A9304600F0A2F88DF814506902049178
:1002F00004A9304600F09AF807220A21304600F09F
:10030000D3F807220921304600F0CEF84FF4E1304F
:100310000090ADF80440ADF80640ADF80840ADF8E7
:100320000C400C20ADF80A000A4C6946204600F04B
:100330006FFB00F0D0F8012240F22551204600F07A
:100340004CFB0121204600F015FB06B070BD0000FB
:1003500000000240001001402DE9F04188B0012169
:10036000202000F00BF9DFF8BC8005220721404671
:1003700000F09AF805220821404600F095F8052281
:100380000921404600F090F80121080500F004F929
:1003900000248DF81E408DF81F4002258DF81D5059
:1003A0008DF81C508020069006A9404600F03EF8CB
:1003B000E801069006A9404600F038F82E0206969D
:1003C00006A9404600F032F801278DF81C70402045
:1003D000069006A9404600F029F8ADF81040ADF8A7
:1003E0000C70ADF80A50ADF81440ADF80840ADF807
:1003F0000440ADF81240ADF80E604FF48270ADF8D5
:100400000600094C01A9204600F0C5F9012120464B
:1004100000F0AAF94021404600F058F808B0BDE8C5
:10042000F081000000140240005001402DE9F0412D
:10043000002201274FF0030C07FA02F50B682B404E
:10044000AB422CD1066853000CFA03F4A6430660B5
:100450000E79D0F800809E4046EA080606600E79C4
:10046000012E01D0022E12D18668A64386604E79F5
:10047000D0F808809E4046EA080686604668AE438B
:10048000466045688E799640B6B235434560C5688A
:10049000A543C560CC799C40C3681C43C460521C12
:1004A000102AC9D3BDE8F08110B54B07DB0E9A4086
:1004B000C90800EB8100016A0F249C40A14301623E
:1004C000016A1143016210BD418370470183704787
:1004D000FEE7FEE7704708B54FF4A06000F042F871
:1004E00025208DF8000001208DF801008DF8020014
:1004F0008DF80300684600F001F808BD30B50F2301
:10050000C27801250178002A1FD0154A126802F42A
:10051000E062C2F5E062C2F30722C2F10404D340F4
:100520004278A24084781C401443220101F1E0216A
:1005300081F80024007800F01F018D404009800000
:1005400000F1E020C0F8005130BD01F01F008540EF
:100550004809800000F1E020C0F8805130BD000063
:100560000CED00E0024908430249086070470000B2
:100570000000FA050CED00E070470000054A002974
:1005800003D0116801431160704711688143116005
:100590007047000030380240054A002903D0116836
:1005A000014311607047116881431160704700007A
:1005B0004438024070B5244B196801F00C01234CFB
:1005C00000291ED0224E04291DD008291DD0046008
:1005D000196801F0F00109091E4A545C0168E14004
:1005E00041601C6804F4E054A40A145D21FA04F488
:1005F00084601B6803F460435B0BD25CD140C16034
:1006000070BD0460E4E70660E2E70F4A121F11685C
:10061000C1F38055116801F03F0135B1B6FBF1F12E
:100620001468C4F38814614305E0B4FBF1F1146865
:10063000C4F3881461431268C2F30142521C520091
:10064000B1FBF2F10160C3E7083802400024F40076
:1006500040787D01000000202DE9F0410E4F40213F
:100660003846FFF731FF9F2000F018F8FF2000F018
:1006700015F80446FF2000F011F80546FF2000F0B1
:100680000DF8064640213846FFF720FF200440EAD7
:1006900005203043BDE8F081001402402DE9F0410F
:1006A0000746194C4FF480552560184E04E0206829
:1006B000401E2060401C0BD00221304600F060F844
:1006C0000028F4D03946304600F063F8256009E090
:1006D000BDE8F041002000F07BB82068401E20609B
:1006E000401C0BD00121304600F04AF80028F4D01D
:1006F000304600F04CF8C0B2BDE8F081BDE8F041F2
:10070000012000F065B800001000002000500140FA
:100710002DE9F04104460F46154600F0FFF9114E51
:1007200040213046FFF7D0FE0320FFF7B7FFC7F3A5
:100730000740FFF7B3FFC7F30720FFF7AFFFF8B29B
:10074000FFF7ACFF04E0FF20FFF7A8FF04F8010B60
:100750006D1E681CF7D13046BDE8F0414021FFF71F
:10076000B5BE000000140240002904D0018841F009
:10077000400101807047018821F0400101807047ED
:100780000246002012890A4200D001207047808969
:1007900070478181704730B5028802F441530A885E
:1007A0004C88CD8822438C882C4322430C892243D9
:1007B0004C8922438C892243CC8922431A430280EC
:1007C000828B22F400628283098A018230BD00009C
:1007D00010B5014602A000F0F7F9FF2010BD00009F
:1007E0003C3C2D464C4153482D4552524F522D3ED4
:1007F0003E2053504920B5C8B4FDB3ACCAB1216501
:1008000072726F72436F6465203D2025640A000098
:10081000704700001CB50021019100912E4A10681C
:1008200040F4803010604FF4A043106800F40030B2
:1008300000900198401C0190009810B901989842CE
:10084000F3D11068800302D50120009000E00091F0
:10085000009801283FD120484030016841F0805184
:1008600001601E49086840F4404008601A4808309A
:1008700003680360036843F400430360036843F4C0
:10088000A0530360041F164B2360136843F080736A
:10089000136013689B01FCD50A6842F480320A6039
:1008A0004A68D203FCD50A6842F400320A604A68FA
:1008B0009203FCD50B4A40F205711160016821F0EA
:1008C00003010160016841F0020101600168C1F3A8
:1008D00081010229FAD11CBD00380240007000409D
:1008E000195A4007003C02407047000010B51248FA
:1008F000016841F4700101601048016841F0010194
:1009000001600E4A00210832116002680C4B1A4047
:100910000260031D0B4A1A60026822F48022026002
:1009200006480C300160FFF775FF03494FF0006087
:100930008039086010BD000088ED00E000380240FA
:10094000FFFFF6FE1030002410B5094C40F225518F
:10095000204600F022F8002808D0204600F0B6F823
:10096000C1B22046BDE8104000F0B4B810BD000090
:1009700000100140002904D0818941F40051818197
:100980007047818921F4005181817047024600201F
:1009900012880A4200D00120704770B5002440F64A
:1009A0006A12C1F3421301F01F05012606FA05F28F
:1009B000012B0CD0022B0DD0838A1340090A8E40E4
:1009C000008830400BB100B10124204670BD8389FE
:1009D0001340F3E7038A1340F0E710B540F66A13BB
:1009E000C1F3421301F01F040121A140012B07D0E4
:1009F000022B07D014303AB102680A43026010BDDE
:100A00000C30F8E71030F6E702688A43026010BD48
:100A10007FB504460D46208A20F44051E8880843FB
:100A20002082A08941F20C618843A9882A89114358
:100A30006A8902431143A181A08A20F44071A889E8
:100A40000843A0826846FFF7B5FD1E48844202D0E5
:100A50001D48844201D1039800E00298A18909044D
:100A600008D500EBC00101EB001029684900B0FB7C
:100A7000F1F007E000EBC00101EB001029688900EC
:100A8000B0FBF1F06422B0FBF2F109010B096FF049
:100A900018056B4300EB8300A3891D044FF032035C
:100AA00007D503EBC000B0FBF2F000F007000843ED
:100AB00006E003EB0010B0FBF2F000F00F0008437B
:100AC00020817FBD00100140001401408088C0F3E8
:100AD00008007047C1F3080181807047FEE710B538
:100AE00004462046FFF7F6FF80212046FFF74EFF21
:100AF0000028F9D010BD70B506460D4600243046DA
:100B0000295DFFF7ECFF641C285D0028F7D1402128
:100B10003046FFF73BFF0028F9D070BD70B50124C7
:100B2000094D0EE040212846FFF7CEFC0520FFF7D7
:100B3000B5FDFF20FFF7B2FD044640212846FFF730
:100B4000C5FCE007EED170BD0014024010B5074CA3
:100B500040212046FFF7B8FC0620FFF79FFD204606
:100B6000BDE810404021FFF7B1BC00000014024076
:100B70002DE9F04104460F461546FFF7E7FFFFF762
:100B8000CDFF104E40213046FFF79EFC0220FFF7BC
:100B900085FDC7F30740FFF781FDC7F30720FFF787
:100BA0007DFDF8B2FFF77AFD03E02078FFF776FDD0
:100BB000641C6D1E681CF8D13046BDE8F041402130
:100BC000FFF784BC001402400FB4054B10B503A915
:100BD000044A029800F018F810BC5DF814FB0000FD
:100BE0000D0F00081400002002E008C8121F08C101
:100BF000002AFAD170477047002001E001C1121F9E
:100C0000002AFBD1704700002DE9FF4F8DB09B46B5
:100C10000F460446002606E025280BD05A460F99B9
:100C20009047641C761C20780028F5D111B030461E
:100C3000BDE8F08F0025A8460122984900E0054351
:100C400014F8013F203B02FA03F00842F7D1207864
:100C50002E2817D114F8010F45F004052A280ED0CC
:100C60006FF02F022078A0F1300109290AD808EB93
:100C7000880102EB410100EB0108641CF2E757F820
:100C8000048B641C20786C280DD004DC4C2812D016
:100C90006A2811D104E074280DD07A280CD10AE01A
:100CA00045F4001507E0617845F48015814202D1D2
:100CB000641C05F58015641C2278692A45D008DC7F
:100CC000002AB3D0582A69D0632A10D0642A08D1E8
:100CD0003BE0702A67D0732A13D0752A5CD0782A3B
:100CE0005CD010465A460F999047761CD3E017F80F
:100CF000040B8DF8000000208DF80100E94601206A
:100D000003E057F8049B4FF0FF3069074FF00005F0
:100D100001D40AE06D1C45450DDA8542FADB19F86D
:100D200005100029F6D106E06D1C8542FCDB19F8A0
:100D300005100029F8D12E4404E019F8010B5A4699
:100D40000F9990476D1EF8D2A5E00A200021CDE949
:100D50000801C5F3025002280DD001CFC117031EB0
:100D600071F100030DDA4FF0000CD0EB0C006CEBCE
:100D700001012D2308E0FF1D27F00707F7E8020116
:100D8000EDE72B0504D52B238DF8283001233BE01C
:100D9000EB0739D02023F7E70A2000E010200021DC
:100DA000CDE9080107E01020002145F00405CDE958
:100DB00008014FF00808C5F3025002280FD001CFF8
:100DC00000214FF0000A2B071FD5702A0DD0DDE956
:100DD00008C38CF0100C5CEA030C0CD015E0FF1D6E
:100DE00027F00707F7E80201EBE740228DF82820FB
:100DF0004FF0010A0BE050EA010306D030238DF8D2
:100E000028308DF8292002239A46582A04D024A29B
:100E10000DF120090B9209E026A2F9E7DDE908238C
:100E2000FFF7E0F90B9B9B5C09F8013D50EA0102DA
:100E3000F4D1ADEB090020300890680701D44FF0E1
:100E400001080899884502DDA8EB010000E00020B8
:100E50008046002506E00AA85A46405D0F99904753
:100E60006D1C761C5545F6DB04E030205A460F9980
:100E70009047761CB8F10001A8F10108F5DC05E007
:100E800019F8010B5A460F999047761C0899481E8D
:100E900008900029F4DC641CC5E600000928010064
:100EA00030313233343536373839616263646566E0
:100EB00000000000303132333435363738394142A2
:100EC000434445460000000070B50446FFF73EFE6F
:100ED000FFF724FE0C4D40212846FFF7F5FA2020AD
:100EE000FFF7DCFBC4F30740FFF7D8FBC4F3072090
:100EF000FFF7D4FBE0B2FFF7D1FB2846BDE8704016
:100F00004021FFF7E3BA00000014024070B5044628
:100F1000064DE1B22846FFF7DDFD80212846FFF7A8
:100F200035FD0028F9D0204670BD000000100140BA
:100F30000024FFF7BDF9FFF70FFA20A12448FFF7BF
:100F4000DAFD1EA0FFF740FEFFF786FB014621A059
:100F5000FFF73AFE0020FFF7B7FF4FF48056324606
:100F600000212048FFF7D4FB1FA0FFF72DFE1D4DE9
:100F700028A0295DFFF728FE641CB442F8D30020A6
:100F800026490854401CFF28FBD94FF480742246A0
:100F900000212248FFF7ECFD224600211148FFF70F
:100FA000B7FB1FA0FFF710FE00241AA0295DFFF772
:100FB0000BFE641CFF2CF8D9FEE70000D5E2CAC77F
:100FC000D2BBB8F6464C415348CAB5D1E90A000035
:100FD000001001406465766963655F6964203D3097
:100FE00078257800180000200D0A2A2A2A2A2A2AA1
:100FF0002A2A2A2A2A2A2AB6C1B3F6B2C1B3FDBACE
:10100000F3B5C4CAFDBEDD2A2A2A2A2A2A2A2A2A98
:101010002A0D0A00307825782000000018100020E2
:101020000D0A2A2A2A2A2A2A2A2A2A2A2A2A2AB6D1
:10103000C1B3F6D0B4C8EBBAF3B5C4CAFDBEDD2A5D
:101040002A2A2A2A2A2A2A2A2A0D0A006C1000088B
:101050000000002018000000E80B000884100008C1
:101060001800002000240000F80B00080000000019
:1010700001020304010203040607080900A000009E
:04108000000000006C
:04000005080001AD41
:00000001FF
