:020000040800F2
:1000000060040020C1010008D30D00084F0700085C
:10001000D10D000835020008B118000800000000EA
:100020000000000000000000000000006916000849
:100030002504000800000000D50D00085117000835
:10004000DB010008DB010008DB010008DB01000820
:10005000DB010008DB010008DB010008DB01000810
:10006000DB010008DB010008DB010008DB01000800
:10007000DB010008DB010008DB010008DB010008F0
:10008000DB010008DB010008DB010008DB010008E0
:10009000DB010008DB010008DB010008DB010008D0
:1000A000DB010008DB010008DB010008DB010008C0
:1000B000DB010008DB010008DB010008DB010008B0
:1000C000DB010008DB010008DB010008DB010008A0
:1000D000DB010008DB010008DB010008DB01000890
:1000E000DB010008DB010008DB010008DB01000880
:1000F000DB010008DB010008DB010008DB01000870
:10010000DB010008DB010008DB010008DB0100085F
:10011000DB010008DB010008DB010008DB0100084F
:10012000DB010008DB010008DB010008DB0100083F
:10013000DB010008DB010008DB010008DB0100082F
:10014000DB010008DB010008DB010008DB0100081F
:10015000DB010008DB010008DB010008DB0100080F
:10016000DB010008DB010008DB010008DB010008FF
:10017000DB010008DB010008DB010008DB010008EF
:10018000DB010008DB010008DB010008DB010008DF
:10019000DB010008DB010008DB010008DB010008CF
:1001A000DB010008DB010008DB010008DFF80CD0F0
:1001B00000F02EF800480047451B000860040020AE
:1001C0000648804706480047FEE7FEE7FEE7FEE7F1
:1001D000FEE7FEE7FEE7FEE7FEE7FEE7551700084D
:1001E000AD01000830B50B46014600202022012455
:1001F00009E021FA02F59D4205D303FA02F5491BF5
:1002000004FA02F52844151EA2F10102F1DC30BD0A
:10021000064C074D06E0E06840F0010394E8070053
:1002200098471034AC42F6D3FFF7C4FFB41B000864
:10023000D41B0008FEE7000008490023084A0020FC
:100240000A60091D401C80B2B0F5487FF8D3581CE5
:1002500083B2B3F5F07FF2D37047000000B80BD043
:10026000FF00007F00B58BB04FF4403000900020BD
:100270000190FF2104910390029005910A48069095
:1002800040F21F30079001200990C820089068466E
:1002900000F050F800F0BEF8022000F041F800280D
:1002A000FAD00BB000BD000078B70CD04FF0504131
:1002B00000234FF4784200200A80891C401C80B241
:1002C000B0F5487FF8D3581C83B2B3F5F07FF2D372
:1002D0007047000000B58BB04FF440300090022012
:1002E00001901F2004903F20039000200290FF20E7
:1002F00005900A4806904FF42F70079064200990EB
:100300000890684600F016F800F084F8022000F02B
:1003100007F80028FAD00BB000BD0000BCE404D000
:1003200001460020024A52680A4200D0012070476C
:1003300000B0024010B40023DFF8D0C0DCF8001099
:10034000334A1140CCF80010DCF800100268114369
:10035000CCF80010DCF8341021F00701CCF8341090
:10036000DCF8341042681143CCF83410416800299D
:1003700034D0012939D002293CD003293FD0C168AB
:1003800009010269120243691B0384681A4321436D
:100390001143DCF838201143CCF838108169CCF8CF
:1003A0003C10DCF840106FF30D01CCF84010DCF885
:1003B0004010C2691143CCF84010818C0904DCF86C
:1003C000442002F04042CCF84420DCF84420006A8B
:1003D00010430843CCF8440010BC7047C1680902C0
:1003E000028A1204037D1B06CFE7C1680902028A54
:1003F0001204CAE7C16849010269D202C5E7C168AF
:100400004901026992024369DB03BEE700B0024082
:10041000FCE0FCFF0248016841F001010160704707
:1004200000B002407047000070B586B00121084658
:1004300000F0D2FC0121102000F0EAFC1E4E072241
:100440000A21304600F057F907220921304600F012
:1004500052F900248DF8164001218DF8171002255D
:100460008DF81450490204918DF8155004A93046B6
:1004700000F0F6F88DF814506802049004A9304694
:1004800000F0EEF84FF4E1300090ADF80440ADF824
:100490000640ADF80840ADF80C400C20ADF80A005D
:1004A000064C6946204601F099F90121204601F0E9
:1004B00081F906B070BD000000000240001001404C
:1004C00000234FF0204210280BD0B0F5807F0AD0D7
:1004D000B0F5805F0AD0D2F8580131EA000009D1A6
:1004E00007E0506EF9E7D2F88400F6E7D2F8A400EE
:1004F000F3E7012318467047426801681143826898
:10050000C068521E520142EA402008430149086077
:1005100070470000500100A030B403689900A1F1B9
:10052000C041D1F840116FF30E01D0F808C0426805
:10053000046942EA0C02D0F80CC04CEA040C42EA0E
:100540000C02D0F814C042EA0C02D0F818C042EAFB
:100550000C0CC2694CEA0204D0F820C044EA0C0535
:10056000446A254329434FF02045002B48D0D5F855
:1005700040316FF30E0342EA0C0223431A43C5F8DD
:10058000402102689200A2F1C042C2F84011016805
:10059000A9B38900A1F1C041D1F8481101F070421E
:1005A000816A0B68D1F804C05B1EACF1010C43EA10
:1005B0000C13D1F808C0ACF1010C43EA0C23B1F8DC
:1005C00010C0ACF1010C43EA0C431A43D5F8483192
:1005D00003F07043D1F80CC0898AACF1010C4FEAEA
:1005E0000C3C491E4CEA01511943C5F848110068FA
:1005F0008000A0F1C040C0F8482130BC704702E044
:10060000C5F84011C3E7D5F8481101F07041806A80
:1006100002684368521E5B1E42EA031283685B1E37
:1006200042EA0322C3685B1E42EA0332038A5B1E6E
:1006300042EA0342838A007E5B1E42EA0352401E66
:1006400042EA00600843C5F8480130BC704700002A
:1006500002490A6842EA400008607047540100A05D
:100660002DE9F00100220126032706FA02FC0B689F
:1006700003EA0C03634538D10568530007FA03F415
:10068000A54305600D79D0F800809D4045EA080536
:1006900005600D79012D01D0022D17D18568A54384
:1006A00085604D79D0F808809D4045EA0805856051
:1006B000456825EA0C0CC0F804C0D0F804C08D7958
:1006C0009540ADB24CEA050CC0F804C0D0F80CC09F
:1006D0002CEA040CC0F80CC091F807C00CFA03F324
:1006E000D0F80CC043EA0C03C360521C102ABCD3E0
:1006F000BDE8F00170474B07DB0E9A40C90800EBDC
:100700008100016A4FF00F0C0CFA03F39943016268
:10071000016A11430162704741837047018370474A
:100720000A0ACBB2A2F1A101C1EB011202EB411105
:1007300003EB4101A13901EBC1018901CA1701EBAA
:100740005271C91001F5AA01482200F05DBEFEE712
:100750002DE9F04F83B0012140F2FF1000F03CFB87
:100760004FF00408CDF8008002208DF805008DF8C8
:10077000040000208DF806008DF807006946AB489C
:10078000FFF76EFF0E220221A848FFF7B4FF0825ED
:1007900000956946A548FFF763FF0E220321A34891
:1007A000FFF7A9FF4FF4807ACDF800A069469F4873
:1007B000FFF756FF0E2208219C48FFF79CFF0124FB
:1007C000009469469A48FFF74BFF09220021984898
:1007D000FFF791FF4FF4006BCDF800B069469548E4
:1007E000FFF73EFF0E220B219248FFF784FF200304
:1007F000009069468F48FFF733FF0E220C218D4889
:10080000FFF779FF0220009069468948FFF728FF2B
:10081000092201218648FFF76EFF4FF04009CDF80D
:10082000009069468448FFF71BFF0E22062182488C
:10083000FFF761FF2020009069468048FFF710FF16
:100840000E2205217D48FFF756FFCDF8009069463E
:100850007A48FFF705FF0E2206217848FFF74BFF85
:100860006003009069467148FFF7FAFE0E220D21E1
:100870006E48FFF740FFA602009669466E48FFF7F4
:10088000EFFE09220A216C48FFF735FFE0030090D4
:1008900069466648FFF7E4FE0E220F216348FFF722
:1008A0002AFF009469466648FFF7DAFE0E2200210F
:1008B0006348FFF720FF8027009769466148FFF7EC
:1008C000CFFE0E2207215F48FFF715FFCDF800800D
:1008D00069465B48FFF7C4FE0E2202215848FFF725
:1008E0000AFF4FF01008CDF8008069465348FFF723
:1008F000B7FE0E2204215148FFF7FDFE20030090B1
:1009000069464D48FFF7ACFE0E220C214A48FFF71E
:10091000F2FECDF80090DFF8309169464846FFF7C7
:100920009FFE0E2206214846FFF7E5FECDF800B0F7
:1009300069464148FFF794FE0E220B213E48FFF71F
:10094000DAFECDF8008069463D48FFF789FE0E22A9
:1009500004213B48FFF7CFFE009569463548FFF775
:100960007FFE0E2203213348FFF7C5FECDF800A01D
:1009700069462F48FFF774FE0E2208212C48FFF726
:10098000BAFE6502009569462948FFF769FE0E2206
:1009900009212748FFF7AFFE009769462648FFF771
:1009A0005FFE0E2207212448FFF7A5FE0096694648
:1009B0002348FFF755FE0E220A212148FFF79BFE30
:1009C000009569461E48FFF74BFE0E2209211C4880
:1009D000FFF791FE00961D4D69462846FFF740FE41
:1009E0000E220A212846FFF786FECDF8008002205D
:1009F0008DF805008DF8044000208DF806008DF874
:100A0000074069464846FFF72BFE0097694648466F
:100A1000FFF726FE10214846FFF780FE802148465A
:100A2000FFF77CFE03B0BDE8F08F0000001C024021
:100A30000004024000000240001802400010024082
:100A40000020024000080240000C02400014024056
:100A500010B5FFF77DFE00F05BF8BDE8104000F038
:100A600001B8000070B590B03020009040F24F30D7
:100A70000190192002904FF4FC7003900220049022
:100A8000FF200590002408940794069409944FF4DD
:100A900080600A9005200B904FF050400C9040F27F
:100AA00043600D904FF4F0750F95C01E0E90154EDB
:100AB0006946304600F036F904944FF4C0610A915B
:100AC00007210B9110490C9140F683400D900F9532
:100AD000C01E0E900D4C6946204600F023F90121FE
:100AE000304600F013F90121204600F00FF90120F3
:100AF00000F068F9012000F091F8012000F07EF884
:100B000010B070BD8468014000B80BD0046901408A
:100B100000B58FB002221421C82000F00FFA4FF464
:100B2000803000F0FBF9012000F002FA3D2000F0D7
:100B3000D7F90028FAD00121880600F069F90121CF
:100B4000C80500F049F90020009001900290039040
:100B50000121049105912F2106911821079140F25E
:100B60004F3108914FF4FC71099140F221410A91F3
:100B700040F20E210B910C900E900D90684600F003
:100B80005DF80FB000BD0000F0B583B001218820F2
:100B900000F022F94FF48064009401208DF80400E5
:100BA00000218DF806108DF807008DF80510104F04
:100BB00069463846FFF754FD660000966946384698
:100BC000FFF74EFDA500009569463846FFF748FD42
:100BD0000096084F69463846FFF742FD06490C80EB
:100BE0000E800D80C9143846FFF796FD03B0F0BDA6
:100BF000001C0240000C0240181C0240064900285C
:100C000004D0086840F0010008607047086820F0D0
:100C1000010008607047000018680140064900287C
:100C200004D0086840F4803008607047086820F4F9
:100C300080300860704700001868014010B42F4AE7
:100C400013682F490B401360038A1B04D2F800C0BD
:100C500044694CEA040C4CEA03031360121D136848
:100C60000B401360038B1B04D2F800C0C4694CEA2C
:100C7000040C4CEA03031360121D13680B4013604D
:100C8000038C1B04D2F800C0446A4CEA040C4CEA02
:100C900003031360121D136819401160018D0904CC
:100CA0001368D0F82CC043EA0C0319431160111DDE
:100CB0000A68144B1A400A6043680268D0F80CC0F6
:100CC0001A43836843EA0C031A430B681A430A6009
:100CD000416B0A02018E0B040B49D1F800C00CF0E5
:100CE0007F4CC1F800C0D1F800C0806B1A434CEAB9
:100CF00000001043086010BC704700000868014005
:100D000000F800F08F88FE0F2C680140002904D005
:100D1000016841F0010101607047016821F00101A3
:100D20000160704730B48A881204436803F470434A
:100D300043600B681A4342608A891204836803F493
:100D4000704383608B681A438260026922F0070255
:100D500002610A690261CA6912020B8C1B0491F8D4
:100D600024C04FEA0C6C8469002484618D6943EAD5
:100D70000C032A431A438261426922F0FF02426156
:100D80004A694261C26922F0070222F4E062C2614C
:100D9000CB6A8A6A1A43C261826A84620A6B82627F
:100DA0000A8F1204C36A03F0E023C3624B6B1A4339
:100DB000C262026B6FF30A020263C96B016330BC4B
:100DC0007047000001490860704700002468014036
:100DD000FEE7704770470000054A002903D01168FC
:100DE000084310607047116821EA000010607047E6
:100DF00030380240054A002903D0116808431060CA
:100E00007047116821EA00001060704738380240CE
:100E1000054A002903D01168084310607047116823
:100E200021EA0000106070474438024030B4DFF817
:100E30009CC0DCF8001001F00C01254D002923D0E6
:100E4000244C042922D0082922D00560DCF80010A7
:100E500001F0F0010909204B595C026822FA01F106
:100E60004160DCF8002002F4E052920A9A5C21FA18
:100E700002F28260DCF8002002F46042520B9A5CBD
:100E8000D140C16030BC70470560DFE70460DDE73A
:100E9000124A1168C1F38053116801F03F0133B168
:100EA000B4FBF1F11368C3F38813594305E0B5FBB4
:100EB000F1F11368C3F3881359431268C2F3014276
:100EC000521C5200B1FBF2F10160BFE7083802404A
:100ED0000024F40040787D01000000200438024026
:100EE0000022410901290DD002290ED008490968C4
:100EF00000F01F00012303FA00F0084200D0012295
:100F00001046704703490968F2E703490968EFE7AB
:100F1000743802400038024070380240034A1168B9
:100F200021F4403108431060704700008C380240C3
:100F3000014908677047000000004742800140EA0D
:100F40000160024940EA0270086070478838024038
:100F50002DE9F04F83B00121FC20FFF73DFF022077
:100F60008DF804008DF8050000208DF806008DF83E
:100F70000700012000906946D148FFF771FB0C2261
:100F80000021CF48FFF7B7FB022000906946CC480C
:100F9000FFF766FB0C220121C948FFF7ACFB0420D8
:100FA00000906946C648FFF75BFB0C220221C4484B
:100FB000FFF7A1FB082000906946C148FFF750FBEE
:100FC0000C220321BE48FFF796FB102500956946C9
:100FD000BB48FFF745FB0C220421B948FFF78BFB08
:100FE000202600966946B648FFF73AFB0C220521F9
:100FF000B348FFF780FB4FF48058CDF80080694676
:10100000AF48FFF72DFB0C221146AD48FFF773FBED
:101010004FF40059CDF800906946A948FFF720FB2E
:101020000C220D21A648FFF766FBAF020097694628
:10103000A348FFF715FB0C220E21A148FFF75BFB2D
:10104000EC02009469469E48FFF70AFB0C220F2130
:101050009B48FFF750FB0120009069469948FFF735
:10106000FFFA0C2200219748FFF745FB0220009071
:1010700069469448FFF7F4FA0C2201219148FFF7E2
:101080003AFB009569468F48FFF7EAFA0C220421E3
:101090008C48FFF730FB009669468A48FFF7E0FA74
:1010A0000C2205218748FFF726FB009769468648F2
:1010B000FFF7D6FA0C220E218348FFF71CFB0094A1
:1010C00069468148FFF7CCFA0C220F217E48FFF7D2
:1010D00012FB0120009069467B48FFF7C1FA0C2201
:1010E00000217948FFF707FB022000906946764807
:1010F000FFF7B6FA0C2201217348FFF7FCFA8020B3
:10110000009069467148FFF7ABFA0C2207216F483F
:10111000FFF7F1FAE611009669466C48FFF7A0FA6E
:101120000C2208216948FFF7E6FA4FF4007ACDF85F
:1011300000A069466548FFF793FA0C22092163482D
:10114000FFF7D9FA4FF4806BCDF800B069465F48DD
:10115000FFF786FA0C220A215C48FFF7CCFA25112A
:10116000009569465948FFF77BFA0C220B21574836
:10117000FFF7C1FACDF8008069465448FFF770FACE
:101180000C2211465148FFF7B6FACDF80090694697
:101190004E48FFF765FA0C220D214C48FFF7ABFAD9
:1011A000009769464948FFF75BFA0C220E21474831
:1011B000FFF7A1FA009469464448FFF751FA0C2260
:1011C0000F214248FFF797FA009669463E48FFF71D
:1011D00047FA0C2208213C48FFF78DFACDF800A011
:1011E00069463948FFF73CFA0C2209213648FFF7D7
:1011F00082FACDF800B069463348FFF731FA0C2285
:101200000A213148FFF777FA40200090304F6946B5
:101210003846FFF725FA0C2206213846FFF76BFA0D
:1012200001200090DFF8AC8069464046FFF718FACD
:101230000C2200214046FFF75EFA009569462048DF
:10124000FFF70EFA0C220B211D48FFF754FA009409
:1012500069461C48FFF704FA0C220F211948FFF7D2
:101260004AFA009669461748FFF7FAF90C22082156
:101270001448FFF740FA8021009169463846FFF78D
:10128000EFF90C2207213846FFF735FA02200090CB
:1012900069460E48FFF7E4F90C2201210B48FFF7DD
:1012A0002AFA0120009069460848FFF7D9F90C2274
:1012B00000210648FFF71FFA03B0BDE8F08F0000D9
:1012C0000014024000180240000C024000100240CE
:1012D000001C02400008024000B593B0FFF738FE42
:1012E00001210846FFF786FD0220019007220292A5
:1012F0000421039104920590069007900120089024
:10130000002009900A9110210B9140210C91890035
:101310000D910E90C9000F9149001091119001A8F4
:10132000129008A8FFF7F8F800F002F813B000BD1B
:10133000F0B585B001260096082501950024029499
:10134000039420210120FFF7BBF80028F9D168465B
:10135000FFF7D2F80A2000F039F80227009701952C
:101360000294039420210120FFF7AAF80028F9D164
:101370006846FFF7C1F80320009001950297039497
:1013800020210120FFF79CF80028F9D16846FFF7DB
:10139000B3F840F2222004210091019502960390B7
:1013A00020210120FFF78CF80028F9D16846FFF7CB
:1013B000A3F840F26A50FFF74BF920210120FFF714
:1013C0007FF80028F9D105B0F0BD000001B481B06C
:1013D000064901984843009002E00098401E0090A2
:1013E00000980028F9D102B070470000A0860100E3
:1013F000002904D0018841F0400101807047018834
:1014000021F04001018070472DE9F04105460C466E
:101410001746104840260680032000F08DF8C4F3DC
:10142000074000F089F8C4F3072000F085F8E0B227
:1014300000F082F8781E84B207D3FF2000F07CF819
:1014400028706D1C611E8CB2F7D203480680BDE87F
:10145000F08100001A140240181402402DE9F043F4
:1014600087B001212020FFF7B7FC01210805FFF715
:10147000CFFCDFF8B890052207214846FFF73BF97B
:10148000052208214846FFF736F90522092148467A
:10149000FFF731F9802000904FF002088DF80580A9
:1014A0008DF8048000248DF806408DF807406946C9
:1014B0004846FFF7D5F84FF48070009069464846DB
:1014C000FFF7CEF84FF40075009569464846FFF7E0
:1014D000C7F84027009701268DF804606946484602
:1014E000FFF7BEF812480780ADF808404FF482704D
:1014F000ADF80A00ADF80C40ADF80E80ADF8106004
:10150000ADF81250ADF81440ADF816400720ADF814
:101510001800084C02A9204600F05BF80121204683
:10152000FFF766FF07B0BDE8F0830000001402403B
:1015300018140240005001402DE9F04107461D4CAF
:101540004FF4805626601C4D0221284600F036F8E4
:1015500078B92068411E216005D2002000F064F8AF
:10156000C0B2BDE8F0810221284600F027F800282B
:10157000EFD03946284600F02AF826600121284697
:1015800000F01CF878B92168481E206005D20120BF
:1015900000F04AF8C0B2BDE8F0810121284600F011
:1015A0000DF80028EFD0284600F00FF8C0B2BDE8D3
:1015B000F081000010000020005001400246002091
:1015C00012890A4200D001207047808970478181CA
:1015D000704710B4028802F441520B88B1F802C07F
:1015E000CC8843EA0C03B1F804C04CEA040C43EA8B
:1015F0000C03B1F808C043EA0C03B1F80AC043EA8F
:101600000C03B1F80CC043EA0C03B1F80EC043EA76
:101610000C031A430280828B22F400628283098ABF
:10162000018210BC7047000010B5014602A000F016
:1016300041F9002010BD00003C3C2D464C41534870
:101640002D4552524F522D3E3E2053504920B5C891
:10165000B4FDB3ACCAB1216572726F72436F646539
:10166000203D2025640A00007047000082B0002160
:1016700001910091304A106840F480301060106889
:1016800000F4003000900198401C0190009818B9B7
:101690000198B0F5A04FF2D1106810F4003F02D0CD
:1016A0000120009000E000910098012842D12348D9
:1016B000016841F0805101602149086840F44040D0
:1016C0000860204803680360036843F40043036034
:1016D000036843F4A0530360A0F1040C1A4BCCF848
:1016E0000030136843F080731360136813F0007FB9
:1016F000FBD00A6842F480320A604A6812F4803FE4
:10170000FBD00A6842F400320A604A6812F4003FD3
:10171000FBD00E4A40F205711160016821F003010F
:101720000160016841F002010160016801F00C01F3
:101730000829FAD102B07047003802404038024010
:101740000070004008380240195A4007003C02402F
:101750007047000010B51148016841F47001016044
:101760000F48016841F0010101600E4A002111603B
:10177000026822F4102222F080720260031D0A4ADD
:101780001A60026822F48022026008480160FFF7B4
:101790006DFF07494FF00060086010BD88ED00E064
:1017A0000038024008380240103000240C38024053
:1017B00008ED00E0002904D0818941F400518181C5
:1017C0007047818921F400518181704702460020D1
:1017D00012880A4200D001207047000030B585B061
:1017E00004460D46208A20F44050E98808432082B0
:1017F000A08920F4037020F4A050A9882A891143FD
:101800006A8910430843A081A08A20F44070A98906
:101810000843A0826846FFF709FBA4F18040B0F5B9
:10182000883010D0B0F580600DD00298A18911F4F5
:10183000004F0AD000EBC00101EB001029684900FD
:10184000B0FBF1F009E00398F0E700EBC00101EB19
:10185000001029688900B0FBF1F0124AA2FB0031A8
:10186000490909010B096FF0180C03FB0CF300EB9D
:101870008300A38913F4004F4FF0320307D003EB2A
:10188000C000A2FB0020C0F34210084306E003EBB7
:101890000010A2FB0020C0F343100843208105B0D4
:1018A00030BD00001F85EB51C1F3080181807047F6
:1018B000FEE700000FB4054B10B503A9044A0298D7
:1018C00000F018F810BC5DF814FB0000211B0008A4
:1018D0001400002002E008C8121F08C1002AFAD133
:1018E00070477047002001E001C1121F002AFBD1A0
:1018F000704700002DE9FF4F89B09B460446002544
:1019000006E025280BD05A460B999047641C6D1CA5
:1019100020780028F5D10DB02846BDE8F08F0027CB
:10192000B8460122474900E0074314F8013F203B35
:1019300002FA03F00842F7D120782E2819D114F8C2
:10194000010F47F004072A280ED06FF02F022078ED
:10195000A0F1300109290CD808EB880102EB410104
:1019600000EB0108641CF2E70A98641C50F8048B31
:101970000A9020780028CED0642808D0692806D0A4
:1019800075281ED05A460B9990476D1C58E00A994D
:101990004FF00A0901C90A91002802DA40422D21BC
:1019A00002E0390504D52B218DF82010012103E038
:1019B000F90704D02021F7E78A4608AE0DE00021A0
:1019C000FAE70A994FF00A0901C90A91F7E749466F
:1019D000FEF708FC303106F8011D0028F7D1ADEB09
:1019E000060000F12009780701D44FF00108C8452E
:1019F00002DDA8EB090000E000208046002706E099
:101A000008A85A46C05D0B9990476D1C7F1C57452E
:101A1000F6DB04E030205A460B9990476D1CB8F174
:101A20000001A8F10108F5DC05E016F8010B5A46A3
:101A30000B9990476D1CB9F10001A9F10109F4DC83
:101A4000641C65E70928010070B50C46054611467F
:101A50002448FEF765FE04EBC401A80001EB041165
:101A600000EBC1102049084400231E4DDFF87CC064
:101A70004FF07F44002103EB4302AE5C8E4016F032
:101A8000800F02D0C0F800C000E00460001D491CB7
:101A9000C9B20829F1D300212A4456788E4016F0A5
:101AA000800F02D0C0F800C000E00460001D491C97
:101AB000C9B20829F1D3002196788E4016F0800F24
:101AC00002D0C0F800C000E00460001D491CC9B28B
:101AD0000829F1D300F54260591CCBB2182BC9D3A9
:101AE00070BD00001800002000B80BD00000FFFF00
:101AF00070B505460E461446207800280FD022887F
:101B00001006000C40EA122231462846FFF79CFFDF
:101B100005F1180085B2A41C20780028EFD170BD13
:101B200070B50446064DE1B22846FFF7BDFE8021A0
:101B30002846FFF74BFE0028F9D0204670BD000074
:101B400000100140FFF720F8FFF788FCFEF76CFC5F
:101B50000DA0FFF7AFFEFFF7BFFBFEF779FFFEF723
:101B60006BFBFEF7A3FBFEF7B5FBFEF77BFB6421E7
:101B70004BF6BA220846FFF767FF0BA2C821642084
:101B8000FFF7B6FFFEE700000D0A20B1FCBBF053E3
:101B9000544D333246343239204C434420B2E2CAE9
:101BA000D4C0FDB3CC0D0A00BABAD7D6D1DDCABEB7
:101BB00000000000D41B00080000002018000000F6
:101BC000D4180008EC1B000818000020480400008E
:101BD000E4180008000000000102030401020304ED
:0C1BE0000607080900A00000000000003B
:04000005080001AD41
:00000001FF
