:020000040800F2
:1000000020060020C1010008A3090008FB03000826
:10001000A1090008AB0200089D0C000800000000C8
:10002000000000000000000000000000850A000839
:10003000AD02000800000000A50900085D0B0008E3
:10004000DB010008DB010008DB010008DB01000820
:10005000DB010008DB010008DB010008DB01000810
:10006000DB010008DB010008DB010008DB01000800
:10007000DB010008DB010008DB010008DB010008F0
:10008000DB010008DB010008DB010008DB010008E0
:10009000DB010008DB010008DB010008DB010008D0
:1000A000DB010008DB010008DB010008DB010008C0
:1000B000DB010008DB010008DB010008DB010008B0
:1000C000DB010008DB010008DB010008DB010008A0
:1000D000DB010008DB010008DB010008DB01000890
:1000E000DB010008DB010008DB010008DB01000880
:1000F000DB010008DB010008DB010008DB01000870
:10010000DB010008DB010008DB010008DB0100085F
:10011000DB010008DB010008DB010008DB0100084F
:10012000DB010008DB010008DB010008DB0100083F
:10013000DB010008DB010008DB010008DB0100082F
:10014000DB010008DB010008DB010008DB0100081F
:10015000DB010008DB010008DB010008DB0100080F
:10016000DB010008DB010008DB010008DB010008FF
:10017000DB010008DB010008DB010008DB010008EF
:10018000DB010008DB010008DB010008DB010008DF
:10019000DB010008DB010008DB010008DB010008CF
:1001A000DB010008DB010008DB010008DFF80CD0F0
:1001B00000F04AF8004800476911000820060020B6
:1001C0000648804706480047FEE7FEE7FEE7FEE7F1
:1001D000FEE7FEE7FEE7FEE7FEE7FEE7610B00084D
:1001E000AD0100082DE9F05F0546002092469B46D0
:1001F00088460646814640241BE02846414647463D
:10020000224600F042F853465A46C01A914110D394
:1002100011461846224600F029F82D1A67EB01080E
:100220004F4622460120002100F020F817EB00097C
:100230004E41201EA4F10104DFDC484631462A4627
:100240004346BDE8F09F0000064C074D06E0E0681D
:1002500040F0010394E8070098471034AC42F6D30D
:10026000FFF7A8FF0812000828120008202A04DB64
:10027000203A00FA02F1002070479140C2F12003B9
:1002800020FA03F3194390407047202A04DB203AF8
:1002900021FA02F00021704721FA02F3D040C2F1A6
:1002A00020029140084319467047FEE7704700005E
:1002B00070B586B00121084600F076FB01211020C0
:1002C00000F080FB1E4E07220A21304600F07AF82B
:1002D00007220921304600F075F800248DF81640F9
:1002E00001208DF8170002258DF814504102049169
:1002F0008DF8155004A9304600F026F88DF81450FA
:100300006802049004A9304600F01EF84FF4E13072
:100310000090ADF80440ADF80640ADF80840ADF8E7
:100320000C400C20ADF80A00064C6946204600F04F
:1003300053FC0121204600F03BFC06B070BD0000DC
:1003400000000240001001402DE9F0410022012789
:100350004FF0030C07FA02F50B682B40AB422CD18F
:10036000066853000CFA03F4A64306600E79D0F831
:1003700000809E4046EA080606600E79012E01D0F4
:10038000022E12D18668A64386604E79D0F8088086
:100390009E4046EA080686604668AE434660456869
:1003A0008E799640B6B235434560C568A543C560B1
:1003B000CC799C40C3681C43C460521C102AC9D32A
:1003C000BDE8F08110B54B07DB0E9A40C90800EB81
:1003D0008100016A0F249C40A1430162016A11431C
:1003E000016210BD0246002012690A4200D00120BD
:1003F00070474183704701837047FEE72DE9F04164
:1004000005460F46144600F045FA184E307800F0C5
:1004100015FA00F077FA78B9384600F00FFA00F0D4
:1004200071FA48B900F036FA307840F0010000F077
:1004300005FA00F067FA90B100F048FA0020BDE834
:10044000F081012C03D100F0BFF900F03FFA00F079
:10045000D3F905F8010B641EA4B200F093F9002C47
:10046000EFD100F033FA0120E9E70000100000208E
:100470002DE9F04105460C4604F00700C0F10807DD
:10048000C2F3C70602F00708002811D09EB3D01BA4
:10049000C0F3C70600F00708F7B33A4621462846DE
:1004A00000F05AF800F086F8E019C4B23D4437E095
:1004B00096B942462146284600F04EF8BDE8F04184
:1004C00000F078B808222146284600F045F800F0F0
:1004D00071F80834E4B20835761EF6B2F2D2B8F1FB
:1004E000000F2CD042462146284600F035F8BDE8E2
:1004F000F04100F05FB842462146284600F02CF853
:10050000BDE8F04100F056B808222146284600F028
:1005100023F800F04FF800E002E00834E4B20835B8
:10052000761EF6B2F0D2B8F1000F08D0424621464E
:10053000284600F011F8BDE8F04100F03BB8BDE8F6
:10054000F081000010B500F049F80249A0200880B1
:1005500010BD0000100000202DE9F04105460F46B7
:10056000144600F097F9124E307800F067F900F069
:10057000C9F970B9384600F061F900F0C3F940B923
:100580004FF480570CE0287800F058F900F0BAF9E1
:1005900020B100F09BF90020BDE8F0816D1C776070
:1005A000641EE4B2EFD200F091F90120F4E70000FC
:1005B0001000002010B5084C00F088F900F06AF92E
:1005C000207800F03BF900F09DF90028F4D1BDE857
:1005D000104000F07BB90000100000201CB5012184
:1005E000022000F0E1F94020009001208DF8040085
:1005F00002218DF805108DF8060000208DF8070007
:10060000054C69462046FFF79FFE80210091694610
:100610002046FFF799FE1CBD0004024070B523A0E0
:1006200000F03EFB0024294DE1B2295528A000F03E
:1006300037FBE043000702D127A000F031FB641C28
:10064000A4B2FF2CF0D94FF48074224600211F4839
:10065000FFF70EFF21A000F023FB27A000F020FBF6
:10066000224600212C48FFF7C9FE00242A4E285DAF
:10067000315D814207D016A000F012FB27A000F0E8
:100680000FFB002070BD12A000F00AFBE043000742
:1006900002D111A000F004FB641CA4B2FF2CE6D927
:1006A0002DA000F0FDFA012070BD00003C3C2D455E
:1006B0004550524F4D2D494E464F2D3E3E20D0B411
:1006C000C8EBB5C4CAFDBEDD0A0000001C00002056
:1006D00030782530325820000A0D00003C3C2D4572
:1006E0004550524F4D2D494E464F2D3E3E20D0B4E1
:1006F000B3C9B9A60A0000003C3C2D454550524FF5
:100700004D2D494E464F2D3E3E20B6C1B3F6B5C4E1
:10071000CAFDBEDD0A0000001C0100203C3C2D4546
:100720004550524F4D2D4552524F522D3E3E20B412
:10073000EDCEF33A49324320454550524F4DD0B4A7
:10074000C8EBD3EBB6C1B3F6B5C4CAFDBEDDB2BBD0
:10075000D2BBD6C20A0000003C3C2D454550524F4A
:100760004D2D494E464F2D3E3E204932432841549F
:10077000323443303229B6C1D0B4B2E2CAD4B3C99C
:10078000B9A60A0010B50C4C80212046FFF731FEB7
:1007900000F014F840212046FFF72DFE00F00EF87F
:1007A00040212046FFF725FE00F008F82046BDE86E
:1007B00010408021FFF71FBE000402400020401CB3
:1007C000C0B23228FBD3704710B50A4C80212046B6
:1007D000FFF711FEFFF7F2FF40212046FFF70BFE67
:1007E000FFF7ECFF40212046FFF703FEBDE8104075
:1007F000FFF7E4BF0004024070B5002400250E4E50
:100800006006040E40213046FFF7F5FDFFF7D6FFE6
:1008100080213046FFF7E6FD08B1641CE4B24021B8
:100820003046FFF7E6FDFFF7C9FF6D1CEDB2082D5E
:10083000E6D3204670BD00000004024070B50546B6
:100840000024134E280604D580213046FFF7D3FD3F
:1008500003E080213046FFF7CCFDFFF7AFFF4021DA
:100860003046FFF7C8FDFFF7A9FF40213046FFF7EC
:10087000C0FDFFF7A3FF6806050E072C03D18021FA
:100880003046FFF7B8FD641CE4B2082CDAD370BD23
:100890000004024010B50C4C80212046FFF7ABFD50
:1008A00040212046FFF7A7FDFFF788FF8021204663
:1008B000FFF79FFDFFF782FF40212046FFF799FDDC
:1008C000BDE81040FFF77ABF0004024010B50C4CA1
:1008D00080212046FFF78DFD40212046FFF78BFD4C
:1008E000FFF76CFF80212046FFF785FDFFF766FFCD
:1008F00040212046FFF77FFDBDE81040FFF75EBFB7
:100900000004024070B50E4D80212846FFF773FDAC
:10091000FFF754FF40212846FFF76DFDFFF74EFF1C
:1009200080212846FFF75EFD08B1012400E0002485
:1009300040212846FFF75DFDFFF740FF204670BDD0
:10094000000402402DE9FC410121802000F02CF838
:100950004FF48064009401208DF8040000218DF88C
:1009600006108DF807008DF805100C4F69463846C3
:10097000FFF7EAFC6600009669463846FFF7E4FC9C
:10098000A500009569463846FFF7DEFC034818309D
:10099000048006800580BDE8FC810000001C024048
:1009A000FEE7704770470000054A002903D0116830
:1009B0000143116070471168814311607047000066
:1009C00030380240054A002903D011680143116004
:1009D000704711688143116070470000443802403D
:1009E00070B5244B196801F00C01234C00291ED06E
:1009F000224E04291DD008291DD00460196801F079
:100A0000F00109091E4A545C0168E14041601C681C
:100A100004F4E054A40A145D21FA04F484601B6811
:100A200003F460435B0BD25CD140C16070BD0460D5
:100A3000E4E70660E2E70F4A121F1168C1F3805530
:100A4000116801F03F0135B1B6FBF1F11468C4F350
:100A50008814614305E0B4FBF1F11468C4F3881411
:100A600061431268C2F30142521C5200B1FBF2F121
:100A70000160C3E7083802400024F40040787D019B
:100A800000000020704700001CB50021019100917A
:100A90002E4A106840F4803010604FF4A043106874
:100AA00000F4003000900198401C0190009810B9AB
:100AB00001989842F3D11068800302D5012000907C
:100AC00000E00091009801283FD1204840300168A3
:100AD00041F0805101601E49086840F440400860C0
:100AE0001A48083003680360036843F40043036056
:100AF000036843F4A0530360041F164B236013687C
:100B000043F08073136013689B01FCD50A6842F4BC
:100B100080320A604A68D203FCD50A6842F4003287
:100B20000A604A689203FCD50B4A40F205711160D5
:100B3000016821F003010160016841F002010160D8
:100B40000168C1F381010229FAD11CBD00380240BD
:100B500000700040195A4007003C024070470000F6
:100B600010B50F48016841F0010101600C4A0021F5
:100B70000832116002680B4B1A400260031D0A4ADA
:100B80001A60026822F48022026005480C3001607D
:100B9000FFF77AFF05494FF00060086010BD0000C4
:100BA00000380240FFFFF6FE1030002408ED00E0A0
:100BB000002904D0818941F40051818170478189E5
:100BC00021F40051818170470246002012880A42B8
:100BD00000D00120704700007FB504460D46208AF2
:100BE00020F44051E88808432082A08941F20C613A
:100BF0008843A9882A8911436A8902431143A18144
:100C0000A08A20F44071A8890843A0826846FFF7B3
:100C1000E7FE1E48844202D01D48844201D1039859
:100C200000E00298A189090408D500EBC00101EB9E
:100C3000001029684900B0FBF1F007E000EBC001AB
:100C400001EB001029688900B0FBF1F06422B0FBD1
:100C5000F2F109010B096FF018056B4300EB8300FB
:100C6000A3891D044FF0320307D503EBC000B0FB8E
:100C7000F2F000F00700084306E003EB0010B0FBC1
:100C8000F2F000F00F00084320817FBD001001400A
:100C900000140140C1F3080181807047FEE70000A5
:100CA0000FB4054B10B503A9044A029800F018F8D8
:100CB00010BC5DF814FB000045110008180000206E
:100CC00002E008C8121F08C1002AFAD17047704715
:100CD000002001E001C1121F002AFBD17047000073
:100CE0002DE9FF4F8DB00F460546002606E025286A
:100CF0000BD0DDE90F1290476D1C761C2878002878
:100D0000F5D111B03046BDE8F08F0024A246A146CF
:100D10000122EC4900E0044315F8013F203B02FAB0
:100D200003F00842F7D128782A2810D06FF02F025C
:100D30002878A0F13001092914D80AEB8A0102EBC6
:100D4000410144F0020400EB010A6D1CF0E701CF01
:100D50005FEA000A03D544F40054CAF1000A44F0E3
:100D600002046D1C28782E2817D115F8010F44F0C5
:100D700004042A280ED06FF02F022878A0F1300149
:100D800009290AD809EB890102EB410100EB0109AD
:100D90006D1CF2E757F8049B6D1C28786C280FD067
:100DA00006DC4C2817D068280DD06A2814D104E03E
:100DB000742810D07A280FD10DE044F400140AE012
:100DC00044F4801401E044F440146978814202D173
:100DD00004F580146D1C6D1C2A786E2A1FD00CDC63
:100DE000632A31D004DC002A8BD0582A11D1A3E029
:100DF000642A68D0692A0CD165E0732A2ED004DCFD
:100E00006F2A73D0702A04D19BE0752A6FD0782A9C
:100E10006ED01046DDE90F129047761C50E1C4F306
:100E20000250022806D0032809D0042801CF09D097
:100E3000066045E101CFF117C0E9006140E101CF53
:100E400006803DE106703BE117F8040B8DF80000C9
:100E500000208DF80100EB46012003E057F804BBA9
:100E60004FF0FF3061074FF0000102D40DE008F1B0
:100E70000101884649450FDA8045F8DB1BF8081068
:100E80000029F4D108E008F1010188468142FADB2B
:100E90001BF808100029F6D1DDE90F23AAEB0800A2
:100EA0008146214600F036F9304400EB080604E0A4
:100EB000DDE90F121BF8010B9047B8F10108F7D2DA
:100EC00021464846F7E00A21C4F302534FF0000BD5
:100ED0000891022B04D001CFC117032B09D00AE0DF
:100EE000FF1D27F00707F7E8020108E032E01FE0E6
:100EF00020E000B2C117042B01D140B2C117031E7C
:100F000071F1000307DA4FF0000CD0EB0C006CEB32
:100F100001012D2302E0230504D52B238DF8243075
:100F2000012303E0E30701D02023F7E7984658E0C8
:100F30000A2110E010210EE010204FF0000B089065
:100F40000CE010214FF0000B44F004044FF00809AE
:100F5000089103E008214FF0000B0891C4F30253FD
:100F6000022B04D001CF0021032B06D006E0FF1D89
:100F700027F00707F7E8020103E080B2042B00D155
:100F8000C0B24FF0000823072BD5702A07D0DDF838
:100F900020C08CF0100C5CEA0B0C05D00EE0402356
:100FA0008DF82430012308E050EA010306D03023F5
:100FB0008DF824308DF8252002239846DDF820C0D6
:100FC0008CF0080C5CEA0B0C0BD150EA010301D148
:100FD000630706D530238DF824304FF00108A9F1BE
:100FE0000109582A04D038A20B9208AA0A920BE0F1
:100FF0003AA2F9E75B46089AFFF7F4F80B9B9B5C73
:101000000A9A521E0A92137050EA0102F2D10A980B
:10101000ADEB000000F1200B600702D524F4803412
:1010200001E04FF00109D94502DDA9EB0B0000E01A
:10103000002000EB0B0141440890AAEB010AE003F9
:1010400006D4DDE90F232146504600F063F806443C
:101050004FF0000908E009A911F80900DDE90F12B5
:10106000904709F10109761CC145F4DBE0030CD57A
:10107000DDE90F232146504600F04CF8064404E019
:10108000DDE90F1230209047761C0899481E089021
:101090000029F5DC08E00A980A990078491C0A91B1
:1010A000DDE90F129047761CBBF10001ABF1010B9B
:1010B000F1DC21465046DDE90F2300F019F8064423
:1010C0006D1C1BE6092801003031323334353637C8
:1010D0003839616263646566000000003031323384
:1010E0003435363738394142434445460000000024
:1010F0002DE9F041044600251E461746880404D415
:1011000005E039462020B0476D1C641EF9D52846FD
:10111000BDE8F0812DE9F041044600251E469046C9
:10112000C80301D5302700E02027880404D505E056
:1011300041463846B0476D1C641EF9D52846BDE8C7
:10114000F081000070B50446064DE1B22846FFF775
:10115000A1FD80212846FFF737FD0028F9D0204661
:1011600070BD000000100140FFF7ECFB104C4FF485
:101170008068A4F80080E5142580A71CA6143E8092
:10118000FFF796F80BA0FFF78BFD14A0FFF788FD83
:10119000FFF7D8F9FFF742FA012804D0A7F800803A
:1011A00025802680FEE7A4F800803D802680F9E7B0
:1011B000181C02400D0A20BBB6D3ADCAB9D3C3B1C7
:1011C000FCBBF0202053544D3332204634323920BA
:1011D000BFAAB7A2B0E5A1A30D0A00000D0A20D551
:1011E000E2CAC7D2BBB8F6493243CDE2C9E82841CA
:1011F00054323443303229B6C1D0B4B2E2CAD4C07A
:10120000FDB3CC200D0A00002812000800000020C9
:101210001C000000C00C0008441200081C00002044
:1012200004060000D00C00080000000001020304C6
:1012300001020304060708090000000000A00000E6
:0412400000000000AA
:04000005080001AD41
:00000001FF
